:020000040800F2
:10800000C8F30024B98300083984000829840008D3
:108010003184000819840008598600080000000017
:10802000000000000000000000000000498400087B
:10803000218400080000000041840008A984000891
:10804000E5830008E5830008E5830008E583000870
:10805000E5830008E5830008E5830008E583000860
:10806000E5830008E5830008E5830008E583000850
:10807000E5830008E5830008E5830008E583000840
:10808000E5830008E5830008E583000800000000A0
:10809000000000000000000000000000E583000870
:1080A000E5830008E5830008E5830008E583000810
:1080B000E5830008E5830008E5830008E583000800
:1080C000E5830008E5830008E5830008E5830008F0
:1080D000E5830008E5830008E5830008E5830008E0
:1080E000E5830008E583000800000000E583000840
:1080F000E5830008E5830008E5830008E5830008C0
:10810000E5830008E5830008E5830008E5830008AF
:10811000E5830008E5830008E5830008E58300089F
:10812000E5830008E5830008E5830008E58300088F
:10813000E5830008E5830008E583000800000000EF
:10814000000000000000000000000000000000002F
:10815000E5830008E5830008E5830008E58300085F
:10816000E5830008E5830008E5830008E58300084F
:10817000E5830008E5830008E5830008E58300083F
:10818000E5830008E5830008E5830008E58300082F
:10819000E5830008E5830008E5830008E58300081F
:1081A000E5830008E5830008E5830008E58300080F
:1081B000E58300080000000000000000E5830008DF
:1081C000E5830008E58300080000000000000000CF
:1081D0000000000000000000E5830008000000002F
:1081E000000000000000000000000000000000008F
:1081F0000000000000000000E5830008E58300089F
:10820000E5830008E5830008E5830008000000001E
:10821000E5830008E5830008E5830008000000000E
:10822000E583000800000000E5830008000000006E
:10823000E5830008E583000800000000E5830008EE
:10824000000000000000000000000000000000002E
:10825000000000000000000000000000000000001E
:1082600000000000E583000800000000000000009E
:1082700000000000000000000000000000000000FE
:10828000E5830008E583000800000000000000000E
:108290000000000000000000E5830008E5830008FE
:1082A000E5830008E5830008E5830008000000007E
:1082B00000000000000000000000000000000000BE
:1082C00000000000E5830008E5830008E58300085E
:1082D000E5830008E5830008E5830008E5830008DE
:1082E000E5830008E5830008E5830008E5830008CE
:1082F000E5830008E5830008E5830008E5830008BE
:10830000E5830008E583000800000000E58300081D
:10831000E5830008E5830008E5830008E58300089D
:10832000E5830008E5830008E5830008E58300088D
:10833000E5830008E5830008E5830008E58300087D
:10834000E5830008E5830008E5830008E58300086D
:10835000E5830008E5830008E5830008E58300085D
:10836000E5830008E5830008E5830008E58300084D
:10837000E5830008E5830008E5830008E58300083D
:10838000E5830008E5830008E5830008E58300082D
:10839000E5830008E5830008E5830008E58300081D
:1083A000E5830008DFF80CD000F024F8004800470F
:1083B000318E0008C8F300240B4800F500414FF04F
:1083C0000002E0E802228842FBD1084880470848C2
:1083D0000047FEE7FEE7FEE7FEE7FEE7FEE7FEE713
:1083E000FEE7FEE7FEE7000000000024B18400087D
:1083F000A5830008064C074D06E0E06840F0010345
:1084000094E8070098471034AC42F6D3FFF7CEFF4C
:10841000B0480C08D0480C08FFE7FEE70000000059
:10842000FFE7FEE700000000FFE7FEE700000000B6
:10843000FFE7FEE700000000FFE7FEE700000000A6
:10844000FFE7FEE700000000FFE7FEE70000000096
:1084500080B582B0009000980138B0F1807F03D3DE
:10846000FFE70120019019E0009801384EF2140155
:10847000CEF2000108604FF0FF300F2100F0F0F85D
:108480004EF21800CEF20000002101604EF2100002
:10849000CEF20000072202600191FFE7019802B0CE
:1084A00080BD00000000000080B500F081F980BDB3
:1084B00080B54EF68850CEF20000016841F470019C
:1084C000016044F20040C5F60200016841F08041BD
:1084D0000160FFE744F20040C5F602000068C00FEB
:1084E000002801D1FFE7F5E744F24C40C5F6020051
:1084F000016841F00101016040F26840C5F60000EA
:10850000016821F00101016044F20840C5F6020053
:10851000016821F00301016044F20041C5F6020147
:108520000A684FF6FF73CEF6F2231A400A6044F24F
:10853000C441C5F602010A684FF6FE73CAF6FF731E
:108540001A400A60016840F20C32C0F2C0021140C9
:10855000016044F28C40C5F602000168CC22C7F6E7
:1085600000621140016044F29040C5F602000168CB
:1085700048F28002C8F688021140016044F294403B
:10858000C5F6020001684EF6C072CCF2FF3211400F
:10859000016044F2D040C5F60200016840F20132A9
:1085A0009143016044F2F040C5F60200016848F6CC
:1085B0008802CFF688721140016044F20C40C5F683
:1085C00002000021C1F2FF41016044F2CC40C5F637
:1085D00002004FF4E001016044F20440C5F60200DD
:1085E00042F22001C0F20011016044F28440C5F65D
:1085F000020042F22001C0F20111016044F2884001
:10860000C5F60200016044F29840C5F60200002160
:10861000016044F28040C5F6020040F20112C0F24F
:108620000102026044F2D840C5F60200016044F243
:108630009C40C5F60200016044F2A040C5F602006D
:10864000016044F2A440C5F60200016001F040F967
:1086500080BD000000000000FFE7FEE70000000012
:1086600082B00246ADF806000091BDF90600002870
:108670000AD4FFE700980001BDF906104EF200424F
:10868000CEF2000288540BE000980001BDF80610FD
:1086900001F00F014EF61452CEF200028854FFE7AB
:1086A00002B070470000000083B04EF61450CEF2C6
:1086B000000000688003002801D5FFE71AE0BFF33F
:1086C0004F8FBFF36F8F4EF65070CEF20000002137
:1086D0000160BFF34F8FBFF36F8F4EF61450CEF291
:1086E0000000016841F400310160BFF34F8FBFF318
:1086F0006F8FFFE74EF61450CEF200000068C00303
:10870000002801D5FFE73CE04EF68450CEF2000091
:1087100000210160BFF34F8F4EF68050CEF2000073
:10872000006802900298C0F34E300190FFE7029873
:10873000C0F3C9000090FFE701980099890760F332
:108740004D114EF66070CEF2000001600098411E9F
:1087500000910028F0D1FFE70198411E0191002807
:10876000E5D1FFE7BFF34F8F4EF61450CEF2000075
:10877000016841F480310160BFF34F8FBFF36F8F09
:10878000FFE703B07047000081B0009000984EF200
:10879000C431C2F200410860FFE74EF2C430C2F2B9
:1087A00000400068002801D0FFE7F6E701B07047FD
:1087B0004EF2C430C2F200400068002808D0FFE743
:1087C0004EF2C430C2F20040016801390160FFE797
:1087D000704700000000000086B0059004910392ED
:1087E0000598006A01900598406A00900020ADF855
:1087F0000A00FFE7BDF80A00072823D8FFE7BDF805
:108800000A00039921FA00F0C007002813D0FFE7FF
:10881000BDF80A0080000F2101FA00F0019921EA59
:10882000000001900498BDF80A1089008840019961
:1088300008430190FFE7FFE7BDF80A000130ADF8FB
:108840000A00D7E70820ADF80A00FFE7BDF80A00E4
:108850000F2827D8FFE7BDF80A00039921FA00F096
:10886000C007002817D0FFE7BDF80A006FF01F010E
:1088700001EB80000F2202FA00F0009A22EA0000C9
:1088800000900498BDF80A2001EB8201884000990D
:1088900008430090FFE7FFE7BDF80A000130ADF89C
:1088A0000A00D3E701980599086200980599486283
:1088B00006B070470000000082B00190009100985F
:1088C0000199886102B0704787B0069005910492C3
:1088D00003930698006801900698C06800900020F5
:1088E000ADF80A00FFE7BDF80A000F2834D8FFE70B
:1088F000BDF80A00039921FA00F0C007002824D02F
:10890000FFE7BDF80A004000032101FA00F0019AD8
:1089100022EA000001900598BDF80A20520090401C
:10892000019A10430190BDF80A00400001FA00F0DE
:10893000009921EA000000900498BDF80A1049004F
:108940008840009908430090FFE7FFE7BDF80A0060
:108950000130ADF80A00C6E7019806990860009852
:108960000699C86007B0704786B08C4605908DF8B0
:108970001310039202939DF81300012806D1FFE71C
:10898000029805994A681043486006E002980599E4
:108990004A6822EA00004860FFE705988068009076
:1089A0000020ADF80600FFE7BDF806000F2823D829
:1089B000FFE7BDF80600029921FA00F0C007002881
:1089C00013D0FFE7BDF806004000032101FA00F0D4
:1089D000009921EA000000900398BDF806104900B4
:1089E0008840009908430090FFE7FFE7BDF80600C4
:1089F0000130ADF80600D7E700980599886006B009
:108A0000704700000000000080B59EB01D9040F649
:108A1000016000F089FD00F02FF80020029000F0C6
:108A2000E3F90220109040F21001C2F200410D91D2
:108A300002991291139111910F910E917622159234
:108A4000F72214921691179118910DAA01901046D1
:108A500000F01EF81D980390019807900299069166
:108A6000059104910A910991089103A800F01CF95D
:108A70001EB080BD0000000080B582B040F20160F1
:108A8000019000F081FD019800F066FD02B080BD0C
:108A900080B584B0039000208DF8070041F20000FB
:108AA000C5F200200068C00700280CD0FFE70120B5
:108AB0008DF8070041F20000C5F20020016821F0A6
:108AC00001010160FFE741F23400C5F200200168B6
:108AD0004FF6F842CFF6F072114001600399CA6870
:108AE0004B6AD1F828C0C96A1A4342EA0C02114302
:108AF00001600398C068029002980428009078D81A
:108B00000FF20800009900EB8100874600F008B8DA
:108B100000F01CB800F02CB800F03DB800F052B8DE
:108B200041F23800C5F20020016800220260039A79
:108B30009368D2F810C0D2F814E0926942EA0E228B
:108B400042EA0C4242EA0362026053E041F238001A
:108B5000C5F20020016801F07F41016003990A69B4
:108B60004B69896941EA032141EA0241016041E020
:108B700041F23800C5F2002001684FF6FF729143C0
:108B8000016003990A694B69896941EA431141EA25
:108B9000C22101602EE041F23800C5F200200168D8
:108BA0004FF6FF729143016003998A680B69D1F80F
:108BB00014C0896941EA4C1141EA832141EAC2317A
:108BC000016017E041F23800C5F2002001684FF65D
:108BD000FF729143016003998A680B69D1F814C050
:108BE000896941EA0C1141EA032141EA023101603D
:108BF00000E0FFE741F23C00C5F2002001680022DE
:108C00000260039A1268026041F24000C5F200203F
:108C1000026843F6FF739A430260039A5268026047
:108C200041F24400C5F20020026802F040420260B6
:108C3000039AD369126A42EA034203681A43026044
:108C400041F25000C5F20020026802F0C02202602A
:108C5000039A136B526B6FF39F3340F2000CC3F611
:108C6000FF7C0CEA02421A44026041F25400C5F251
:108C70000020026802F040420260039A938F926BD8
:108C80000CEA02421A4402609DF80700012809D14B
:108C9000FFE741F20000C5F20020016841F0010148
:108CA0000160FFE704B080BD82B0019000208DF824
:108CB000030041F20000C5F200200068C007002850
:108CC0000CD0FFE701208DF8030041F20000C5F24F
:108CD0000020016821F001010160FFE741F20C0072
:108CE000C5F20020016800220260019A1268026049
:108CF00041F21000C5F20020026843F6FF739A4368
:108D00000260019A5268026041F21C00C5F2002024
:108D100002684FF6F073C0F27C031A400260019AB9
:108D20009268036843EA02620260019AD2680368AB
:108D30001A430260019A126903681A43026001989B
:108D4000006A012809D1FFE741F21C00C5F20020AA
:108D5000016841F400010160FFE741F22000C5F223
:108D60000020016801F07F41016001994A698B6927
:108D7000C969120442EA03221143026811430160E7
:108D800041F25C00C5F20020016800220260019AF5
:108D9000526A02609DF80300012809D1FFE741F201
:108DA0000000C5F20020016841F001010160FFE709
:108DB00002B070470000000082B0009041F2040051
:108DC000C5F2002000680099084204D0FFE70120A6
:108DD0008DF8070003E000208DF80700FFE79DF8FD
:108DE000070002B07047000081B0009041F200001F
:108DF000C5F20020016821F4403101600099026849
:108E00001143016001B0704741F20000C5F200203B
:108E1000016841F00101016070470000000000009E
:108E200080B500F0ADFE00F00BFE80BD000000003C
:108E300080B582B0002001904EF60851CEF20001BC
:108E400048F20002C0F600020A600090FFF72CFC16
:108E500000F042FDFFF7E4FF41F28400C5F200009C
:108E600001F052F941F20410C5F2000001F04CF992
:108E7000009801F0B9F900F077FE00F04DFD0120F7
:108E800001F0B2F9FFE74AF24020C0F60000FFF718
:108E9000BBFDFFF7B9FFFFE70220FFF78DFF0028BA
:108EA00001D1FFE7F8E73220FFF76EFC43F2101024
:108EB000C0F60400FFF7A8FDFFF7A6FFFFE70220BA
:108EC000FFF77AFF002801D1FFE7F8E73220FFF72C
:108ED0005BFC41F2C440C0F60500FFF795FDFFF7CB
:108EE00093FFFFE70220FFF767FF002801D1FFE7AC
:108EF000F8E73220FFF748FC4FF67800C0F605008F
:108F0000FFF782FDFFF780FFFFE70220FFF754FF26
:108F1000002801D1FFE7F8E73220FFF735FC4DF6D6
:108F20002C40C0F60600FFF76FFDFFF76DFFFFE76F
:108F30000220FFF741FF002801D1FFE7F8E73220C8
:108F4000FFF722FC4BF6E070C0F60700FFF75CFD70
:108F5000FFF75AFFFFE70220FFF72EFF002801D19D
:108F6000FFE7F8E73220FFF70FFC4AF29430C0F633
:108F70000800FFF749FDFFF747FFFFE70220FFF773
:108F80001BFF002801D1FFE7F8E73220FFF7FCFBC9
:108F900048F24870C0F60900FFF736FDFFF734FFCE
:108FA000FFE70220FFF708FF002801D1FFE7F8E7FD
:108FB0003220FFF7E9FB46F6FC20C0F60A00FFF777
:108FC00023FDFFF721FFFFE70220FFF7F5FE002852
:108FD00001D1FFE7F8E73220FFF7D6FB48F2F45063
:108FE000C0F60100FFF710FDFFF70EFFFFE70220BC
:108FF000FFF7E2FE002801D1FFE7F8E73220FFF794
:10900000C3FB46F6A810C0F60200FFF7FDFCFFF711
:10901000FBFEFFE70220FFF7CFFE002801D1FFE7AC
:10902000F8E73220FFF7B0FB44F65C50C0F60300CF
:10903000FFF7EAFCFFF7E8FEFFE70220FFF7BCFEC0
:10904000002801D1FFE7F8E73220FFF79DFB1AE780
:1090500081B00146ADF80000BDF80000800944F27F
:109060000042C5F602028058BDF8002002F01F023F
:10907000D040C007002804D0FFE701208DF803008E
:1090800003E000208DF80300FFE79DF8030001B026
:10909000704700000000000081B00146ADF80200FA
:1090A000BDF8020000F01F02012303FA02F280095A
:1090B00044F20043C5F6020350F803C042EA0C0232
:1090C000C25001B07047000080B590B00146ADF8C5
:1090D0003E0000200E908DF837008DF83600BDF868
:1090E0003E00024610280C9239D0FFE70C98182851
:1090F00000F03881FFE70C981A2800F05E81FFE746
:109100000C981C2800F08481FFE70C981E287AD068
:10911000FFE70C98B0F5E05F4AD0FFE70C98B0F598
:10912000E85F00F0C580FFE743F210000C99814230
:1091300000F09180FFE70C98B0F5445F00F0E58007
:10914000FFE743F21C100C99814200F08C81FFE78D
:1091500043F21E100C99814200F0B281DDE1FFE77D
:109160009DF83600002100280B9108D1FFE70E98EA
:109170004FF6FF71401A18BF01200B90FFE70B98C4
:10918000C007002809D0FFE71120FFF761FF8DF825
:1091900036000E9801300E90E2E71120FFF758FFDD
:1091A000002804D0FFE701208DF83700FFE7B5E184
:1091B000FFE79DF83600002100280A9108D1FFE75B
:1091C0000E986FF07041401A18BF01200A90FFE717
:1091D0000A98C00700280AD0FFE741F60140FFF7D0
:1091E00037FF8DF836000E9801300E90E1E741F61A
:1091F0000140FFF72DFF002804D0FFE701208DF884
:109200003700FFE78AE1FFE79DF8360000210028DC
:10921000099107D1FFE70E98B0F5A06018BF0120B3
:109220000990FFE70998C007002809D0FFE71F2031
:10923000FFF70EFF8DF836000E9801300E90E3E731
:109240001F20FFF705FF002804D0FFE701208DF85D
:109250003700FFE762E1FFE79DF8360000210028B4
:1092600008910AD1FFE70E984FF6FF71C0F20F0187
:10927000401A18BF01200890FFE70898C00700288F
:109280000AD0FFE743F21100FFF7E2FE8DF8360047
:109290000E9801300E90DFE743F21100FFF7D8FE81
:1092A000002804D0FFE701208DF83700FFE735E103
:1092B000FFE79DF836000021002807910AD1FFE75B
:1092C0000E984FF6FF71C0F20F01401A18BF01202F
:1092D0000790FFE70798C00700280AD0FFE741F68C
:1092E0000150FFF7B5FE8DF836000E9801300E9054
:1092F000DFE741F60150FFF7ABFE002804D0FFE79F
:1093000001208DF83700FFE708E1FFE79DF8360000
:109310000021002806910AD1FFE70E984FF6FF7151
:10932000C0F20F01401A18BF01200690FFE706980F
:10933000C00700280AD0FFE743F20110FFF788FEBC
:109340008DF836000E9801300E90DFE743F20110E1
:10935000FFF77EFE002804D0FFE701208DF83700DC
:10936000FFE7DBE0FFE79DF83600002100280591CC
:109370000AD1FFE70E984FF6FF71C0F20F01401AB5
:1093800018BF01200590FFE70598C007002809D005
:10939000FFE71920FFF75CFE8DF836000E980130CC
:1093A0000E90E0E71920FFF753FE002804D0FFE7F6
:1093B00001208DF83700FFE7B0E0FFE79DF83600A9
:1093C0000021002804910AD1FFE70E984FF6FF71A3
:1093D000C0F20F01401A18BF01200490FFE7049863
:1093E000C007002809D0FFE71B20FFF731FE8DF8EA
:1093F00036000E9801300E90E0E71B20FFF728FEA4
:10940000002804D0FFE701208DF83700FFE785E052
:10941000FFE79DF836000021002803910AD1FFE7FD
:109420000E984FF6FF71C0F20F01401A18BF0120CD
:109430000390FFE70398C007002809D0FFE71D202D
:10944000FFF706FE8DF836000E9801300E90E0E72B
:109450001D20FFF7FDFD002804D0FFE701208DF857
:109460003700FFE75AE0FFE79DF8360000210028AB
:1094700002910AD1FFE70E984FF6FF71C0F20F017B
:10948000401A18BF01200290FFE70298C007002889
:109490000AD0FFE743F21D10FFF7DAFD8DF8360022
:1094A0000E9801300E90DFE743F21D10FFF7D0FD5C
:1094B000002804D0FFE701208DF83700FFE72DE0FA
:1094C000FFE79DF836000021002801910AD1FFE74F
:1094D0000E984FF6FF71C0F20F01401A18BF01201D
:1094E0000190FFE70198C00700280AD0FFE743F288
:1094F0001F10FFF7ADFD8DF836000E9801300E906D
:10950000DFE743F21F10FFF7A3FD002804D0FFE7B9
:1095100001208DF83700FFE700E0FFE79DF83700F6
:1095200010B080BD0000000081B00146ADF802001F
:10953000BDF8020000F01F02012303FA02F28009C5
:1095400044F20043C5F6020350F803C042EA0C029D
:10955000C25001B07047000081B00146ADF8020072
:10956000BDF8020000F01F02012303FA02F2800995
:1095700044F20043C5F6020350F803C02CEA02028D
:10958000C25001B07047000081B00146ADF8020042
:10959000BDF8020000F01F02012303FA02F2800965
:1095A00044F20043C5F6020350F803C042EA0C023D
:1095B000C25001B07047000085B0DDF814C00390C0
:1095C000029101920093039800284BD0FFE7039883
:1095D0003F2847D8FFE70298092843D3FFE70298BE
:1095E000B0F5007F3ED8FFE7019800283AD0FFE7AA
:1095F0000198802836D8FFE70098002832D0FFE78E
:10960000009880282ED8FFE7059800282AD0FFE789
:109610000598802826D8FFE7039802996FF03F024B
:1096200002EB8111084301990022CFF6FF7202EB91
:10963000014108430599013940EA016044F288413B
:10964000C5F60201086044F28040C5F602000168D8
:1096500021F4FE010160009902EB0141026811430F
:10966000016003E000208DF8130003E001208DF875
:109670001300FFE79DF8130005B0704700000000DD
:1096800081B00090009844F28041C5F602010A685A
:109690001043086001B0704784B003468DF80F0096
:1096A000029101929DF80F0001460028009108D018
:1096B000FFE70098012813D0FFE7009802281ED08A
:1096C0002CE044F29840C5F60200016821F0070141
:1096D00001600299019A11430268114301601EE082
:1096E00044F29840C5F60200016821F07001016063
:1096F0000299019A11430268114301600FE044F29C
:109700009840C5F60200016821F4E0610160029909
:10971000019A114302681143016000E0FFE704B0C1
:10972000704700000000000082B0019044F28C40BD
:10973000C5F6020001680091009921F440310091C2
:109740000099019A1143016002B0704700000000C7
:1097500083B000200290019044F20040C5F6020060
:10976000016841F480310160FFE702980130029006
:1097700044F20040C5F60200006800F40030019099
:10978000FFE7019800210028009108D1FFE7029827
:109790004FF6FF71401A18BF01200090FFE70098B4
:1097A000C0070028E1D1FFE744F20040C5F60200FF
:1097B00000688003002802D4FFE7FFE7FEE744F2D9
:1097C0004C40C5F60200016841F00101016040F221
:1097D0006840C5F60000016841F00101016044F2F3
:1097E0000840C5F60200016841F08001016001688F
:1097F00041F080610160016841F000510160016841
:109800000160016841F48051016044F29840C5F65E
:10981000020001684FF6F872CFF6FC721140016049
:1098200001680622C0F202021143016044F20440C2
:10983000C5F60200016848F20002C0F28002114041
:109840000160016841F6C552C0F200121143016087
:1098500044F28040C5F60200016821F07F010160FA
:10986000016841F001010160016841F0607101602F
:1098700044F20040C5F60200016841F080710160C9
:10988000FFE744F20040C5F60200006880010028AE
:1098900001D4FFE7F5E744F20840C5F6020001688D
:1098A00021F003010160016841F003010160FFE75D
:1098B00044F20840C5F60200006800F00C000C28D5
:1098C00001D0FFE7F4E703B070470000000000009C
:1098D00080B5FFF73DFF80BD80B582B040F200004B
:1098E000C2F20040006844F6D351C1F26201A0FB0D
:1098F0000101890901900846FEF7AAFD002802D05F
:10990000FFE7FFE7FEE74FF0FF300021FEF7A8FE7C
:1099100002B080BD0000000080B59CB04FF49050B4
:10992000FFF702FE00F02CF9022000214FF48062C4
:10993000FFF7B2FE684603210160192096220491C8
:109940001146049A049BFFF737FE002802D1FFE777
:10995000FFE7FEE74FF08040FFF792FE4FF4003044
:10996000FFF7E2FE1C200390FFF796FB0398FFF73A
:10997000ABFB002802D1FFE7FFE7FEE700201890CD
:1099800019901A901B902821ADF83E100921ADF8CE
:109990003C102A21ADF842100B21ADF8401040F2E6
:1099A0000A21129140F21B1111914FF4037114918D
:1099B00040F21D111391FF211591169117910FAAD5
:1099C00002901046019100F043FB7D20ADF8160097
:1099D00040F27110ADF814002020ADF81A00952067
:1099E000ADF818000220079001988DF820004FF480
:1099F000C0610A9107210B9102998DF821108DF811
:109A000024108DF823108DF8221040F21002C2F2BB
:109A100000420C9240F2F112ADF836204FF4F7728A
:109A2000ADF834207622ADF8382041F20410C5F2AA
:109A3000000005A900F074FB1CB080BD0000000010
:109A400080B59CB04FF49050FFF76EFD00F098F891
:109A5000022000214FF48062FFF71EFE68460321BA
:109A600001601920962204911146049A049BFFF785
:109A7000A3FD002802D1FFE7FFE7FEE74FF080409B
:109A8000FFF7FEFD4FF40030FFF74EFE1C20039061
:109A9000FFF702FB0398FFF717FB002802D1FFE74F
:109AA000FFE7FEE70020189019901A901B902821DC
:109AB000ADF83E100921ADF83C102A21ADF8421056
:109AC0000B21ADF8401040F20A21129140F21B1117
:109AD00011914FF40371149140F21D111391FF2164
:109AE0001591169117910FAA02901046019100F05E
:109AF000AFFA7D20ADF816004FF4DD70ADF814001C
:109B0000A220ADF81A0040F20510ADF818000220AE
:109B1000079001988DF820008DF824008DF823001F
:109B20008DF8220002998DF821104FF4C0620A923C
:109B300007220B9244F6B062C0F60B020C9240F280
:109B40008322ADF836204FF42072ADF83420642221
:109B5000ADF8382041F28400C5F2000005A900F0FC
:109B6000DFFA1CB080BD000041F21800C5F2000011
:109B7000016841F001010160704700000000000031
:109B800080B59AB04FF47060FFF7CEFC40F60170DC
:109B9000FFF7CAFC40F60270FFF7C6FC40F6037000
:109BA000FFF7C2FC40F60470FFF7BEFC40F60570FC
:109BB000FFF7BAFC40F60770FFF7B6FC40F60670F8
:109BC000FFF7B2FC41F20000C5F602000E214FF48F
:109BD0000042199018911792FEF7FEFD0020C5F67D
:109BE000020080211690189A15911146159AFEF7D9
:109BF000F3FD41F60000C5F6020014901899159A7D
:109C0000FEF7EAFD02200021199A13901046139BDB
:109C100012911946129A179BFEF756FE01201999C8
:109C2000119008461299119A179BFEF79DFE1698FF
:109C30001399129A159BFEF747FE16981299119ADE
:109C4000159BFEF791FE14981399129A159BFEF737
:109C50003BFE14981299119A159BFEF785FE402041
:109C60001499109008461899109AFEF7B5FD41F620
:109C70000040C5F602004FF480510F90189A0E91E3
:109C800011460E9AFEF7A8FD4FF400600F990D9053
:109C9000084618990D9AFEF79FFD202016990C9002
:109CA000084618990C9AFEF797FD4FF400700F992B
:109CB0000B90084618990B9AFEF78EFD4FF48070B2
:109CC0000F990A90084618990A9AFEF785FD082010
:109CD0000F99099008461899099AFEF77DFD04200E
:109CE0000F99089008461899089AFEF775FD149880
:109CF0001399129A109BFEF7E7FD14981299119A86
:109D0000109BFEF731FE0F981399129A0E9BFEF7E7
:109D1000DBFD0F981299119A0E9BFEF725FE0F9806
:109D20001399129A0D9BFEF7CFFD0F981299119A75
:109D30000D9BFEF719FE16981399129A0C9BFEF7CD
:109D4000C3FD16981299119A0C9BFEF70DFE0F9801
:109D50001399129A0B9BFEF7B7FD0F981299119A5F
:109D60000B9BFEF701FE0F981399129A0A9BFEF7C0
:109D7000ABFD0F981299119A0A9BFEF7F5FD0F980B
:109D80001399129A099BFEF79FFD0F981299119A49
:109D9000099BFEF7E9FD0F981399129A089BFEF7AD
:109DA00093FD0F981299119A089BFEF7DDFD40F67E
:109DB0000040C5F6020007901899099AFEF70CFDBD
:109DC00040F60000C5F6020006901899159AFEF7B5
:109DD00003FD06981899139AFEF7FEFC0F98189940
:109DE000179AFEF7F9FC4FF480400F99059008464A
:109DF0001899059AFEF7F0FC4FF400500F99049063
:109E000008461899049AFEF7E7FC40F20040C5F6B0
:109E1000020003901899119AFEF7DEFC0398189936
:109E2000139AFEF7D9FC07981399129A099BFEF72B
:109E30004BFD07981299119A099BFEF795FD06981C
:109E40001399129A159BFEF73FFD06981299119AE5
:109E5000159BFEF789FD06981399129A139BFEF73E
:109E600033FD06981299119A139BFEF77DFD0F980A
:109E70001399129A179BFEF727FD0F981299119AC2
:109E8000179BFEF771FD0F981399129A059BFEF729
:109E90001BFD0F981299119A059BFEF765FD0F980F
:109EA0001399129A049BFEF70FFD0F981299119ABD
:109EB000049BFEF759FD03981399129A119BFEF724
:109EC00003FD03981299119A119BFEF74DFD03981B
:109ED0001399129A139BFEF7F7FC03981299119AA3
:109EE000139BFEF741FD039818990B9AFEF774FC3B
:109EF000039818990A9AFEF76FFC032103980C9AAD
:109F0000FEF76AFC069818990D9AFEF765FC1498FE
:109F100018990D9AFEF760FC4FF480601499029036
:109F200008461899029AFEF757FC149818990E9A49
:109F3000FEF752FC14981899059AFEF74DFC039809
:109F40001399129A0B9BFEF7BFFC03981299119A72
:109F50000B9BFEF709FD03981399129A0A9BFEF7D3
:109F6000B3FC03981299119A0A9BFEF7FDFC039823
:109F70001399129A0C9BFEF7A7FC03981299119A59
:109F80000C9BFEF7F1FC06981399129A0D9BFEF7B5
:109F90009BFC06981299119A0D9BFEF7E5FC14980C
:109FA0001399129A0D9BFEF78FFC14981299119A2F
:109FB0000D9BFEF7D9FC14981399129A029BFEF799
:109FC00083FC14981299119A029BFEF7CDFC149809
:109FD0001399129A0E9BFEF777FC14981299119A16
:109FE0000E9BFEF7C1FC14981399129A059BFEF77D
:109FF0006BFC14981299119A059BFEF7B5FC41F27F
:10A000000040C5F6020001901899029AFEF7E4FBA1
:10A0100001981399129A029BFEF756FC0198129927
:10A02000119A029BFEF7A0FC14981199119A049BB7
:10A03000FEF74AFC14981299119A049BFEF794FCBF
:10A0400014980499FEF738FC1AB080BD0000000097
:10A0500081B0009041F20800C5F20000016801F0F3
:10A06000F021016000990968016041F20C00C5F21D
:10A070000000016801F0F021016000994968016069
:10A0800041F21000C5F20000016801F0F02101600A
:10A0900000998A68C96842EA0141016041F21400EE
:10A0A000C5F20000016801F0F021016000990A6921
:10A0B000496942EA0141016041F22C00C5F2000009
:10A0C000016801F07F41016000998A69CB69096AE2
:10A0D00041EA032141EA0241016041F21800C5F260
:10A0E0000000016821F07041016000994A6A8B6AA2
:10A0F000D1F82CC0096B1A4342EA0C0211430268E2
:10A100001143016001B0704781B000900098016870
:10A1100041F00101016001B0704700000000000043
:10A1200082B0019000910198416801F0F0214160F6
:10A1300000984188008841EA0040019948600198F0
:10A14000816801F0F02181600098C188808841EA2F
:10A150000040019988600198016921F007010161BF
:10A1600000988068019908610198416921F0FF0118
:10A1700041610098007B0199486101988169002242
:10A1800082610098D0F80D0000BA019B9861019897
:10A19000C36940F2077C23EA0C03C361009843695A
:10A1A00080691843019BD8610198836A8262009894
:10A1B000C069019A90620198C26A02F0C022C2622C
:10A1C0000098428C008C42EA0040019AD0620198CB
:10A1D000026B40F2FF7C22EA0C0202630098808C42
:10A1E000019A106302B0704781B001468DF80300F8
:10A1F0009DF80300002809D1FFE741F22400C5F2D1
:10A200000000016841F00201016008E041F2240011
:10A21000C5F20000016841F001010160FFE701B0F3
:10A22000704702E008C8121F08C1002AFAD170471F
:10A230007047002001E001C1121F002AFBD17047C6
:10A24000FFFFFFFFFFFFFFFFFFFFFFFFFFFFFFFF1E
:10A25000FFFFFFFFFFFFFFFFFFFFFFFFFFFFFFFF0E
:10A26000FFFFFFFFFFFFFFFFFFFFFFFFFFFFFFFFFE
:10A27000FFFFFFFFFFFFFFFFFFFFFFFFFFFFFFFFEE
:10B28000FFFFFEFFFFFFFFFFFEFFFFFFFFFFFFFFD0
:10B29000FFFFFFFFFFFFFFFFFFFFFFFFFFFFFFFFBE
:10B2A000FFFFFFFFDFFFFFFFFFFFFFFFDFFFFFFFEE
:10B2B000DEFFFFFFFFFFFFFFFFFFDEFFFFFFFFFFE0
:10B2C000FFF7FFF7FFFFFFFFFFFFFFFFFFFFFFFF9E
:10B2D000FFFFFFFFFFFFFFFFFFFFFFFFFFFFFFFF7E
:10B2E000FFFFFFFFFFFFFFFFFFFFFFFFFFFFFFFF6E
:10B2F000FFFFFFFFFFFFFFFFFFFFFFFFDFFFDFFF9E
:10B30000FFFFFFFFFFFFFFFFFFFFFFFFFFF7FFF75D
:10B31000FFFFFFFFFFFFFFFFFFFFFFFFFFFFFFFF3D
:10B32000FFFFFFFFDEFFFFFFFFFFDFFFFFFFDFFF8E
:10B33000FEF7FFFFFFFFFEF7FFFFFFFFDEF7FFFF58
:10B34000FFFFFFFFFFFFFFFFDEFFFFFFFFFFFFFF2E
:10B35000FFFFFFFFFFFFFFFFFFFFFFFFFFFFFFFFFD
:10B36000FFFFFFFFFFFFFFFFFFFFFFFFFFFFFFFFED
:10B37000FFFFFFFFFFFFFFFFFFFFFFFFFFFFFFFFDD
:10B38000FFFFFFFFFFFFFFFFFFFFFFFFFFFFFFFFCD
:10B39000FFFFFFFFFFFFFFFFFFFFFFFFFFFFFFFFBD
:10B3A000FFFFFFFFFFFFFFFFFFFFFFFFFFFFFFFFAD
:10B3B000FFFFFFFFFFFFFFFFFFFFFFFFFFFFFFFF9D
:10B3C000FFFFFFFFFFFFFFFFFFFFFFFFFFFFFFFF8D
:10B3D000FFFFFFFFFFFFFFFFFFFFFFFFFFFFFFFF7D
:10B3E000FFFFFFFFFFFFFFFFFFFFFFFFFFFFFFFF6D
:10B3F000FFFFFFFFFFFFFFFFFFFFFFFFFFFFFFFF5D
:10B40000FFFFFFFFFFFFFFFFFFFFFFFFFFFFFFFF4C
:10B41000FFFFFFFFFFFFFFFFFFFFFFFFFFFFFFFF3C
:10B42000FFFFFFFFFFFFFFFFFFFFFFFFFFFFFFFF2C
:10B43000FFFFFFFFFFFFFFFFFFFFFFFFFFFFFFFF1C
:10B44000FFFFFFFFFFFFFFFFFFFFFFFFFFFFFFFF0C
:10B45000FFFFFFFFFFFFFFFFFFFFFFFFFFFFFFFFFC
:10B46000FFFFFFFFFFFFFFFFFFFFFFFFFFFFFFFFEC
:10B47000DFFFFFFFFFFFFFFFFFFFFFFFDFFFFFFF1C
:10B48000FFFFFFFFFFFFFFFFFFFFFFFFFFFFFEFFCD
:10B49000FEFFFFFFFFFFDEF7FEFFFFFFDEFFFFFF08
:10B4A000FFFFFFFFFFFFFFFFFFFFFFFFFFFFFFFFAC
:10B4B000FFFFFFFFFFFFFFFFFFFFFFFFFFFFFFFF9C
:10B4C000FFFFFFFFFFFFFFFFFFFFFFFFFFFFFFFF8C
:10B4D000FFFFFFFFFFFFFFFFFFFFFFFFFFFFFFFF7C
:10B4E000FFFFFFFFFFFFFEFFFFFFFFFFFFFFDFFF8D
:10B4F000FFFFFFFFFFFFFFFFFFFFFFFFFFFFFFFF5C
:10B50000FFFFFFFFFFFFFFFFFFFFFFFFFFFFFFFF4B
:10B51000FFFFDFFFFFFFFFFFDFFFFFFFFFFFFFFF7B
:10B52000FFFFFFFFFFFFDFFFDFFFDFFFFFFFFFFF8B
:10B53000FFFFFFFFFFFFFFFFFFFFDEFFFFFFFFFF3C
:10B54000FFFFFFFFFFFFFFFFFFFFFFFFFFFFFFFF0B
:10B55000FFFFFFFFFFFFFFFFFFFFFFFFFFFFFFFFFB
:10B56000FFFFFFFFFFFFFFFFFFFFFFFFFFFFFFFFEB
:10B57000FFFFFFFFFFFFFFFFFFFFFFFFFFFFFFFFDB
:10B58000FFFFFFFFFFFFFFFFFFFFFFFFFFFFFFFFCB
:10B59000FFFFFFFFFFFFFFFFFFFFFFFFFFFFFFFFBB
:10B5A000FFFFFFFFFFFFFFFFFFFFFFFFFFFFFFFFAB
:10B5B000FFFFFFFFFFFFFFFFFFFFFFFFFFFFFFFF9B
:10B5C000FFFFFFFFFFFFFFFFFFFFFFFFFFFFFFFF8B
:10B5D000FFFFFFFFFFFFFFFFFFFFFFFFFFFFFFFF7B
:10B5E000FFFFFFFFFFFFFFFFFFFFFFFFFFFFFFFF6B
:10B5F000FFFFFFFFFFFFFFFFFFFFFFFFFFFFFFFF5B
:10B60000FFFFFFFFFFFFFFFFFFFFFFFFFFFFFFFF4A
:10B61000FFFFFFFFFFFFFFFFFFFFFFFFFFFFFFFF3A
:10B62000FFFFFFFFFFFFFFFFFFFFFFFFFFFFFFFF2A
:10B63000FFFFFFFFFFFFFFFFFFFFFFFFFFFFFFFF1A
:10B64000FFFFFFFFFFFFFFFFFFFFFFFFFFFFFFFF0A
:10B65000FFFFFFFFFFFFFFFFFFFFFFFFFFFFFFFFFA
:10B66000FFFFFFFFFFFFFFFFFFFFFFFFFFFFFFFFEA
:10B67000FFFFFFFFFFFFDFFFFFFFFFFFFFFFFFF702
:10B68000FFFFFFFFFFF7FFFFFFFFFFFFFFFFFFFFD2
:10B69000FFFFFFFFFFFFFFFFFFFFFFFFDFFFFFFFDA
:10B6A000FFFFFFFFFFFFDEFFDEFFFFFFFFFFFFFFEC
:10B6B000FFFFFFFFFFFFFFFFFFFFFFFFFFFFFFFF9A
:10B6C000FFFFFFFFFFFFFFFFFFFFFFFFFFFFFFFF8A
:10B6D000FFFFFFFFFFFFFEFFFEFFFDFFFFFFFFFF7E
:10B6E000FFFFFFFFDEFFDEFFFFFFFFFFFFFFFFFFAC
:10B6F000FFFFFFFFFFFFFFFFFFFFFFFFFFFFFFFF5A
:10B70000FFFFFFFFFFFFFFFFFFFFFFFFFFFFFFFF49
:10B71000DFFFDFFFDFFFDFFFFFFFFFFFFFFFFFFFB9
:10B72000FFFFDFFFFFFFFFFFDFFFFFFFFFFFFFFF69
:10B73000FFFFFFFFFFFFFFFFFFFFFFFFFFFFFFFF19
:10B74000FFFFFFFFFFFFFFFFFFFFFFFFFFFFFFFF09
:10B75000FFFFFFFFFFFFFFFFFFFFFFFFFFFFFFFFF9
:10B76000FFFFFFFFFFFFFFFFFFFFFFFFFFFFFFFFE9
:10B77000FFFFFFFFFFFFFFFFFFFFFFFFFFFFFFFFD9
:10B78000FFFFFFFFFFFFFFFFFFFFFFFFFFFFFFFFC9
:10B79000FFFFFFFFFFFFFFFFFFFFFFFFFFFFFFFFB9
:10B7A000FFFFFFFFFFFFFFFFFFFFFFFFFFFFFFFFA9
:10B7B000FFFFFFFFFFFFFFFFFFFFFFFFFFFFFFFF99
:10B7C000FFFFFFFFFFFFFFFFFFFFFFFFFFFFFFFF89
:10B7D000FFFFFFFFFFFFFFFFFFFFFFFFFFFFFFFF79
:10B7E000FFFFFFFFFFFFFFFFFFFFFFFFFFFFFFFF69
:10B7F000FFFFFFFFFFFFFFFFFFFFFFFFFFFFFFFF59
:10B80000FFFFFFFFFFFFFFFFFFFFFFFFFFFFFFFF48
:10B81000FFFFFFFFFFFFFFFFFFFFFFFFFFFFFFFF38
:10B82000FFFFFFFFFFFFFFFFFFFFFFFFFFFFFFFF28
:10B83000FFFFFFFFFFFFFFFFFFFFFFFFFFFFFFFF18
:10B84000FFFFFFFFFFFFFFFFFFFFFFFFFFFFFFFF08
:10B85000FFFFFFFFFFFFFFFFFFFFFFFFFFFFFFFFF8
:10B86000FFFFFFFFFFFFFFFFDEFFFFFFFFFFFFFF09
:10B87000FFFFFFFFFFFFDFF7FFFFDFF7FFFFFFFF28
:10B88000FFFFFFFFFFFFFFFFFFFFFFFFFFFFBFFF08
:10B89000FFFFFFFFFFFFFFFFFFFFFFFFFFFFFFFFB8
:10B8A000FFFFFFFFFFFFFFFFFFFFFFFFFFFFFFFFA8
:10B8B000FFFFFFFFFFFFFFFFFFFFFFFFFFFFFFFF98
:10B8C000FFFFFFFFFFFFFFFFFFFFFFFFFFFFFFFF88
:10B8D000FFFFFFFFFFFFFFFFFFFFFFFFFFFFFFFF78
:10B8E000FFFFFFFFFFFFFFFFFFFFDFFFFFFFFFFF88
:10B8F000FFFFFFFFFFFFFFFFFFFFDEFFFFFFFFFF79
:10B90000FFFFFFFFFFFFFEFFFFFFDFF7FFFFFFFF70
:10B91000FFFFFFFFFFFFFFFFFFFFFFFFFFFFFFFF37
:10B92000FFFFFFFFFFFFFFFFFFFFFFFFFFFFFFFF27
:10B93000FFFFFFFFFFFFFFFFFFFFFFFFFFFFFFFF17
:10B94000FFFFFFFFFFFFFFFFFFFFFFFFFFFFFFFF07
:10B95000FFFFFFFFFFFFFFFFFFFFFFFFFFFFFFFFF7
:10B96000FFFFFFFFFFFFFFFFFFFFFFFFFFFFFFFFE7
:10B97000FFFFFFFFFFFFFFFFFFFFFFFFFFFFFFFFD7
:10B98000FFFFFFFFFFFFFFFFFFFFFFFFFFFFFFFFC7
:10B99000FFFFFFFFFFFFFFFFFFFFFFFFFFFFFFFFB7
:10B9A000FFFFFFFFFFFFFFFFFFFFFFFFFFFFFFFFA7
:10B9B000FFFFFFFFFFFFFFFFFFFFFFFFFFFFFFFF97
:10B9C000FFFFFFFFFFFFFFFFFFFFFFFFFFFFFFFF87
:10B9D000FFFFFFFFFFFFFFFFFFFFFFFFFFFFFFFF77
:10B9E000FFFFFFFFFFFFFFFFFFFFFFFFFFFFFFFF67
:10B9F000FFFFFFFFFFFFFFFFFFFFFFFFFFFFFFFF57
:10BA0000FFFFFFFFFFFFFFFFFFFFFFFFFFFFFFFF46
:10BA1000FFFFFFFFFFFFFFFFFFFFFFFFFFFFFFFF36
:10BA2000FFFFFFFFFFFFFFFFFFFFFFFFFFFFFFFF26
:10BA3000FFFFFFFFFFFFFFFFFFFFFFFFFFF7FFFF1E
:10BA4000FFFFFFFFFFFFFFFFFFFFFFFFFFFFFFFF06
:10BA5000FFFFFFFFFFFFFEFFDFFFFFFFFFFFDEFF38
:10BA6000DEFFFFFFFEFFFEFFFEFFFEFFFEFFFEFF0D
:10BA7000FEFFFEFFFFFFFEFFDEFFFFFFFFFFFFFFFA
:10BA8000DEF7FEFFFFFFFFFFFFFFFFFFDFFFDFFF30
:10BA9000FFFFFFFFFFFFFFFFFFFFFFFFFFFFFFFFB6
:10BAA000FFFFFFFFFFFFFFFFFFFFFFFFFFFFDFFFC6
:10BAB000DFFFDFFFFFFFFFFFFFFFFFFFFFFFFFFFD6
:10BAC000FFFFFFFFFFFFFFFFFFFFFFFFFFFFFFFF86
:10BAD000FFFFFFFFFFFFFFFFFFFFFFFFFFFFFFFF76
:10BAE000FFFFFFFFFFFFFFFFFFFFFFFFFFFFFFFF66
:10BAF000FFFFFFFFFFFFFFFFFFFFDEFFFFFFFFFF77
:10BB0000FFFFDFFFFFFFFFFFFFFFFFFFFFFFFFFF65
:10BB1000FFFFFFFFFFFFFFFFFFFFFFFFFFFFFFFF35
:10BB2000FFFFFFFFFFFFFFFFFFFFFFFFFFFFFFFF25
:10BB3000FFFFFFFFFFFFFFFFFFFFFFFFFFFFFFFF15
:10BB4000FFFFFFFFFFFFFFFFFFFFFFFFFFFFFFFF05
:10BB5000FFFFFFFFFFFFFFFFFFFFFFFFFFFFFFFFF5
:10BB6000FFFFFFFFFFFFFFFFFFFFFFFFFFFFFFFFE5
:10BB7000FFFFFFFFFFFFFFFFFFFFFFFFFFFFFFFFD5
:10BB8000FFFFFFFFFFFFFFFFFFFFFFFFFFFFFFFFC5
:10BB9000FFFFFFFFFFFFFFFFFFFFFFFFFFFFFFFFB5
:10BBA000FFFFFFFFFFFFFFFFFFFFFFFFFFFFFFFFA5
:10BBB000FFFFFFFFFFFFFFFFFFFFFFFFFFFFFFFF95
:10BBC000FFFFFFFFFFFFFFFFFFFFFFFFFFFFFFFF85
:10BBD000FFFFFFFFFFFFFFFFFFFFFFFFFFFFFFFF75
:10BBE000FFFFFFFFFFFFFFFFFFFFFFFFFFFFFFFF65
:10BBF000FFFFFFFFFFFFFFFFFFFFFFFFFFFFFFFF55
:10BC0000FFFFFFFFFFFFFFFFFFFFFFFFFFFFFFFF44
:10BC1000FFFFFFFFFFFFFFFFFFFFFFFFFFFFFFFF34
:10BC2000FFFFFFFFFFFFDFF7DFF7FFFFFFFFDFFF94
:10BC3000FFFFFFFFFFFFFDFFFEFFBDFF9DFFDDFFDD
:10BC4000DDFFBBFF7AF7F7EED3CDD3CD95E695DEDA
:10BC500074DEB5E674DE75DE96E6B7E6D7EEB7E6D7
:10BC6000D7EE7AFF9BFFFCFFFEFF9EF7FFFFFDFF75
:10BC7000FDFFFFFFFFFFFFFFFFFFFFFFFFFFFFFFD6
:10BC8000FFFFFFFFFFFFFFFFFFFFFFFFFFFFFFFFC4
:10BC9000FFFFFFFFFFFFFFFFFFFFDFFFFFFFDFFFF4
:10BCA000DFFFDFFFBEFFFFFFFFFFFFFFFFFFFFFF25
:10BCB000FFFFFFFFFFFFFFFFFFFFFFFFFFFFFFFF94
:10BCC000FFFFFFFFFFFFFFFFDFFFFFFFFFFFFFFFA4
:10BCD000FFFFFFFFFFFFFFFFDFF7FFFFFFFFFFFF9C
:10BCE000FFFFFFFFFFFFF9F697E677DEBDFFFFFFDF
:10BCF000FFFFFFFFFFFFFFFFFFFFFFFFFFFFFFFF54
:10BD0000FFFFFFFFFFFFFFFFFFFFFFFFFFFFFFFF43
:10BD1000FFFFFFFFFFFFFFFFFFFFFFFFFFFFFFFF33
:10BD2000FFFFFFFFFFFFFFFFFFFFFFFFFFFFFFFF23
:10BD3000FFFFFFFFFFFFFFFFFFFFFFFFFFFFFFFF13
:10BD4000FFFFFFFFFFFFFFFFFFFFFFFFFFFFFFFF03
:10BD5000FFFFFFFFFFFFFFFFFFFFFFFFFFFFFFFFF3
:10BD6000FFFFFFFFFFFFFFFFFFFFFFFFFFFFFFFFE3
:10BD7000FFFFFFFFFFFFFFFFFFFFFFFFFFFFFFFFD3
:10BD8000FFFFFFFFFFFFFFFFFFFFFFFFFFFFFFFFC3
:10BD9000FFFFFFFFFFFFFFFFFFFFFFFFFFFFFFFFB3
:10BDA000FFFFFFFFFFFFFFFFFFFFFFFFFFFFFFFFA3
:10BDB000FFFFFFFFFFFFFFFFFFFFFFFFFFFFFFFF93
:10BDC000FFFFFFFFFFFFFFFFFFFFFFFFFFFFFFFF83
:10BDD000FFFFFFFFFFFFFFFFFFFFFFFFFFFFFFFF73
:10BDE000FFFFFFFFFFFFFFFFFFFFFFFFFFFFFFFF63
:10BDF000FFFFFFFFFFFFFFFFFFFFFFFFFFFFFFFF53
:10BE0000FFFFFFFFFFFFFFFFFFFFFFFFFFFFFFFF42
:10BE1000FFFFFFFFFEFFBDFFFEFF7CFF78DE77DE4A
:10BE200036D636DE50C58DAC4983C772AA8BCEB4E8
:10BE30002FBD0EBD6BAC058387932DC54DC50CC5BD
:10BE40002CC5AAB4E99BCDBC6FCD4FC50A9CA89365
:10BE50002FC5D1D5AFC5CEAC6B8312B5F7EEFBFFC6
:10BE6000DDFFDFFFDFFFFFFFFFFFFFFFFFFFFFFF44
:10BE7000FFFFFFFFFFFFFFFFFFFFFFFFFFFFFFFFD2
:10BE8000FFFFFFFFFFFFFFFFFFFFFFFFFFFFBCFF05
:10BE900059FF17F716EF38F77AFFDCFFFEFFFFFFB9
:10BEA000FFFFFFFFFFFFFFFFFFFFFFFFFFFFFFFFA2
:10BEB000FFFFFFFFFFFF9EFFFFFFFFFFFEFFFEFFF5
:10BEC000FEFFFEFFDFFFFFFF9DFFDEFFFEFFDDFF4A
:10BED000DDFF9CFFCEB48DAC8A8BF5CD9CFFFFFFC0
:10BEE000FFFFFFFFFFFFFFFFFFFFFFFFFFFFFFFF62
:10BEF000FFFFFFFFFFFFFFFFFFFFFFFFFFFFFFFF52
:10BF0000FFFFFFFFFFFFFFFFFFFFFFFFFFFFFFFF41
:10BF1000FFFFFFFFFFFFFFFFFFFFFFFFFFFFFFFF31
:10BF2000FFFFFFFFFFFFFFFFFFFFFFFFFFFFFFFF21
:10BF3000FFFFFFFFFFFFFFFFFFFFFFFFFFFFFFFF11
:10BF4000FFFFFFFFFFFFFFFFFFFFFFFFFFFFFFFF01
:10BF5000FFFFFFFFFFFFFFFFFFFFFFFFFFFFFFFFF1
:10BF6000FFFFFFFFFFFFFFFFFFFFFFFFFFFFFFFFE1
:10BF7000FFFFFFFFFFFFFFFFFFFFFFFFFFFFFFFFD1
:10BF8000FFFFFFFFFFFFFFFFFFFFFFFFFFFFFFFFC1
:10BF9000FFFFFFFFFFFFFFFFFFFFFFFFFFFFFFFFB1
:10BFA000FFFFFFFFFFFFFFFFFFFFFFFFFFFFFFFFA1
:10BFB000FFFFFFFFFFFFFFFFFFFFFFFFFFFFFFFF91
:10BFC000FFFFFFFFFFFFFFFFFFFFFFFFFFFFFFFF81
:10BFD000FFFFFFFFFFFFFFFFFFFFFFFFFFFFFFFF71
:10BFE000FFFFFFFFFFFFFFFFFFFFFFFFFFFFFFFF61
:10BFF000FFFFFFFFFFFFFFFFFFFFFFFFFFFFFFFF51
:10C00000FFFFD2CD8EA4AEAC2B9CA98B2BA4C99BD9
:10C01000A8938BBCCDC48CBCE9AB2AACCBC4EBC41D
:10C02000EAC4ADC44BB4ACC40DCDCBC4ECC40CCD90
:10C030008ABC6AB40CC54DCDAFDDECC4ABBCD0DD61
:10C04000AFDD0EDE0DC5E7824CA4B0D56FC52D9CCB
:10C0500051A4FBDE7DEFFFFFFFFFFFFFFFFFFFFFB0
:10C06000FFFFFFFFFFFFFFFFFFFFFFFFFFFFFFFFE0
:10C07000FFFFFFFFFFFFFFFF5CF756D6B2C58FC57E
:10C08000AECDADD5AED5D0D534DED8EE7DF7DFFF61
:10C09000FFFFFFFFFFFFFFFFFFFFFFFFFFFFFFFFB0
:10C0A000FFFF5DF779D6DAE63BEFFAE6FAE61AE744
:10C0B000F9E6D8EEF4CD045225520FB50FB56DA4B4
:10C0C00068838CB40AA46049297B94BD9DF7FFFF67
:10C0D000FFF7FFFFFFFFFFFFFFFFFFFFFFFFFFFF78
:10C0E000FFFFFFFFFFFFFFFFFFFFFFFFFFFFFFFF60
:10C0F000FFFFFFFFFFFFFFFFFFFFFFFFFFFFFFFF50
:10C10000FFFFFFFFFFFFFFFFFFFFFFFFFFFFFFFF3F
:10C11000FFFFFFFFFFFFFFFFFFFFFFFFFFFFFFFF2F
:10C12000FFFFFFFFFFFFFFFFFFFFFFFFFFFFFFFF1F
:10C13000FFFFFFFFFFFFFFFFFFFFFFFFFFFFFFFF0F
:10C14000FFFFFFFFFFFFFFFFFFFFFFFFFFFFFFFFFF
:10C15000FFFFFFFFFFFFFFFFFFFFFFFFFFFFFFFFEF
:10C16000FFFFFFFFFFFFFFFFFFFFFFFFFFFFFFFFDF
:10C17000FFFFFFFFFFFFFFFFFFFFFFFFFFFFFFFFCF
:10C18000FFFFFFFFFFFFFFFFFFFFFFFFFFFFFFFFBF
:10C19000FFFFFFFFFFFFFFFFFFFFFFFFFFFFFFFFAF
:10C1A000FFFFFFFFFFFFFFFFFFFFFFFFFFFFFFFF9F
:10C1B000FFFFFFFFFFFFFFFFFFFFFFFFFFFFFFFF8F
:10C1C000FFFFFFFFFFFFFFFFFFFFFFFFFFFFFFFF7F
:10C1D000FFFFFFFFFFFFFFFFFFFFFFFFFFFFFFFF6F
:10C1E000FFF7BFEFFFFFFFFFD7BDCD83EC934CB44C
:10C1F0002C9C697B6983ADAC2BACE9ABEAA34CA466
:10C200008DACADB46CACEEC4CEBC4CAC07838A93A1
:10C210000CAC4DB4EB9B8A932CA4EEBCACBCC8A375
:10C22000A2512A9C6FCD8893468BCEDDEEDD6ED574
:10C230004FCDF0DDAED5CFDD6FCDB1D5CDBCA79361
:10C240006BBCCDC450CD35E678E63CF7DFFFDFFFB1
:10C25000BFFFFFFFDFFFFFFFFEFFFEFFFEFFDDFF73
:10C260001BE798DE36DEAEB42AA40DB56D9C064AF7
:10C27000676AEFB46FC5CFCD8EC5E66ACC83FAE6A8
:10C28000F9EE19EFB7E6F8EE75DE2FB5B0C54A9CAA
:10C29000612080200A9411D64EC54FC54ECD0CBDED
:10C2A0000BC5ECC4EAA3EAA32EC58CA42552275AD9
:10C2B0008DAC077B6462ADAC898B287B4EA4F9FE04
:10C2C000FFFFFFFFFFFFFFFFFFFFFFFFBEFFFFFFBF
:10C2D000FFFFFFFFFFFFFFFFFFFFFFFFFFFFFFFF6E
:10C2E000FFFFFFFFFFFFFFFFFFFFFFFFFFFFFFFF5E
:10C2F000FFFFFFFFFFFFFFFFFFFFFFFFFFFFFFFF4E
:10C30000FFFFFFFFFFFFFFFFFFFFFFFFFFFFFFFF3D
:10C31000FFFFFFFFFFFFFFFFFFFFFFFFFFFFFFFF2D
:10C32000FFFFFFFFFFFFFFFFFFFFFFFFFFFFFFFF1D
:10C33000FFFFFFFFFFFFFFFFFFFFFFFFFFFFFFFF0D
:10C34000FFFFFFFFFFFFFFFFFFFFFFFFFFFFFFFFFD
:10C35000FFFFFFFFFFFFFFFFFFFFFFFFFFFFFFFFED
:10C36000FFFFFFFFFFFFFFFFFFFFFFFFFFFFFFFFDD
:10C37000FFFFFFFFFFFFFFFFFFFFFFFFFFFFFFFFCD
:10C38000FFFFFFFFFFFFFFFFFFFFFFFFFFFFFFFFBD
:10C39000FFFFFFFFFFFFFFFFFFFFFFFFFFFFFFFFAD
:10C3A000FFFFFFFFFFFFFFFFFFFFFFFFFFFFFFFF9D
:10C3B000FFFFFFFFFFFFFFFFFFFFFFFFFFFFDFFFAD
:10C3C000FFFFDFFFFFFFFFFFBEF7FFFFBEF7FFF737
:10C3D000FFFF9CFF12B5401801310BA4CDC486723B
:10C3E0008028A3516EAC8DB42CAC4983A449C6728D
:10C3F000898BCA9B2BA4CA9BA993656A65620CA40E
:10C40000EB9B045A2141077B0BA4A99BE9A3E87A83
:10C410000A9C4BA40783C57AECBC4DCD09A4646A81
:10C420008BB4CFD5ABB4636AC99B6FD5ECBCCCB42D
:10C430006BACEDBCEEB46CA40FB5F3CDF7EE3AF7F0
:10C4400093C54E9C51BDD3CD13D634D613D6C66AF0
:10C45000EB9330C54BACE8A3ECBCEB9BC030624126
:10C460000B9C0DBD2DC54DC5E99B0B9C4EA44CA44A
:10C47000EB9B8A930CA4AEB4EDBC4DCDCAB4035A69
:10C48000488350C54CA4C459C77AEDBC6DCD6ECD60
:10C490000EC5EEC4ADB4ADB4287B8020E649AEB481
:10C4A000856A888B2FBD4BA42883CB932983B9DE63
:10C4B000FFFFFFFFFFFFDFFFFFFFFFFFDFFFFFFFCC
:10C4C000FFFFFFFFFFFFFFFFFFFFFFFFFFFFFFFF7C
:10C4D000FFFFFFFFFFFFFFFFFFFFFFFFFFFFFFFF6C
:10C4E000FFFFFFFFFFFFFFFFFFFFFFFFFFFFFFFF5C
:10C4F000FFFFFFFFFFFFFFFFFFFFFFFFFFFFFFFF4C
:10C50000FFFFFFFFFFFFFFFFFFFFFFFFFFFFFFFF3B
:10C51000FFFFFFFFFFFFFFFFFFFFFFFFFFFFFFFF2B
:10C52000FFFFFFFFFFFFFFFFFFFFFFFFFFFFFFFF1B
:10C53000FFFFFFFFFFFFFFFFFFFFFFFFFFFFFFFF0B
:10C54000FFFFFFFFFFFFFFFFFFFFFFFFFFFFFFFFFB
:10C55000FFFFFFFFFFFFFFFFFFFFFFFFFFFFFFFFEB
:10C56000FFFFFFFFFFFFFFFFFFFFFFFFFFFFFFFFDB
:10C57000FFFFFFFFFFFFFFFFFFFFFFFFFFFFFFFFCB
:10C58000FFFFFFFFFFFFFFFFFFFFFFFFFFFFFFFFBB
:10C59000FFFFFFFFFFFFFFFFFFFFFFFFFFFFFFFFAB
:10C5A000FFFFFFFFFFFFFFFFFFFFFFFFDFFFFFFFBB
:10C5B000FFFFFFFFFFFFDFF7DFF7FFFFFFFF16D6ED
:10C5C0006EACCA9BE77AA9938BBC4DDD4BB4657208
:10C5D00049838EB44CACCB9B297B0129A572CA93AD
:10C5E0004CAC4BACA993CA9B698BCB934883698BAA
:10C5F0008A8B49834983698BAA93CA9BEC9B4BA482
:10C600002BA44DAC2BA4ACB4CCBCA99B27836BACA6
:10C610006DCD69AC226A278BCDBC8BB4A662C249B2
:10C620006883CCB4ABB4ECBC8BAC0DB5CDBCEDBC6D
:10C630008CAC2EC52DC54ECD8ECD8ECDEFDD0DC56E
:10C640004ECD4ECD0CCDCBC48CBCCBA3EA93ADB4B8
:10C650008CB429AC2AB44AB48DBCCAA3E99BC99B4B
:10C660002CA48A93488BEDC48ED5AEDDF0D5CFD502
:10C67000B0D5688B4020C459AEB4888B698B2FC568
:10C680002FC5CEB4CC9363416018475A2FC5899308
:10C69000CDB44BACEA9B8993AEB466724A8332BD8B
:10C6A000FEFFDEFFFFFFBFF7FFFFFFFFFFFFFFFF04
:10C6B000FFFFFFFFFFFFFFFFFFFFFFFFFFFFFFFF8A
:10C6C000FFFFFFFFFFFFFFFFFFFFFFFFFFFFFFFF7A
:10C6D000FFFFFFFFFFFFFFFFFFFFFFFFFFFFFFFF6A
:10C6E000FFFFFFFFFFFFFFFFFFFFFFFFFFFFFFFF5A
:10C6F000FFFFFFFFFFFFFFFFFFFFFFFFFFFFFFFF4A
:10C70000FFFFFFFFFFFFFFFFFFFFFFFFFFFFFFFF39
:10C71000FFFFFFFFFFFFFFFFFFFFFFFFFFFFFFFF29
:10C72000FFFFFFFFFFFFFFFFFFFFFFFFFFFFFFFF19
:10C73000FFFFFFFFFFFFFFFFFFFFFFFFFFFFFFFF09
:10C74000FFFFFFFFFFFFFFFFFFFFFFFFFFFFFFFFF9
:10C75000FFFFFFFFFFFFFFFFFFFFFFFFFFFFFFFFE9
:10C76000FFFFFFFFFFFFFFFFFFFFFFFFFFFFFFFFD9
:10C77000FFFFFFFFFFFFFFFFFFFFFFFFFFFFFFFFC9
:10C78000FFFFFFFFFFFFFFFFFFFFFFFFFFFFFFFFB9
:10C79000FFFFFFFFFFFFFFFFFFFFFFFFDFFFFFFFC9
:10C7A000FFFFFFFFFFFFFFFFBEF774B567620BA43B
:10C7B0002BACE9A36BAC6ED5EBC42ECD0DBD2EBD5D
:10C7C0008CACE89B468B0A9CEB8B2BA42BA40BA474
:10C7D0000AA48993AA9349836A834983287B297B86
:10C7E000087B097B297B29838A8B8B93A9934883B8
:10C7F000EC9BEB9BA993C99B2CA44CAC6CAC8BB46D
:10C80000CBBCACB48DB44CAC4AAC885A8341E87A0A
:10C810000BA42AAC6BAC488B856A09A40DC5ECBC93
:10C820000DC54DCD4DCD0CC52CCD0BCDECC4EDBC07
:10C830000DBDAFD56DD5CCC48CC48CAC4BAC2BAC82
:10C84000EAAB2BAC0BAC6DB42CAC2A9CEA93EC9B02
:10C850002562A030898B6FC5AFCD90D58FD56ECDB9
:10C860002DC5C9930B9C0D9C8028A3512FC5ECBCF2
:10C870004BA4097BA128E1308A83CDBC8CB4ADB434
:10C88000A99B2783446A89936DACEAA3AFB4F5D51D
:10C89000DEFFDEF7FFFFDFF7FFFFFFFFFFFFFFFF1A
:10C8A000FFFFFFFFFFFFFFFFFFFFFFFFFFFFFFFF98
:10C8B000FFFFFFFFFFFFFFFFFFFFFFFFFFFFFFFF88
:10C8C000FFFFFFFFFFFFFFFFFFFFFFFFFFFFFFFF78
:10C8D000FFFFFFFFFFFFFFFFFFFFFFFFFFFFFFFF68
:10C8E000FFFFFFFFFFFFFFFFFFFFFFFFFFFFFFFF58
:10C8F000FFFFFFFFFFFFFFFFFFFFFFFFFFFFFFFF48
:10C90000FFFFFFFFFFFFFFFFFFFFFFFFFFFFFFFF37
:10C91000FFFFFFFFFFFFFFFFFFFFFFFFFFFFFFFF27
:10C92000FFFFFFFFFFFFFFFFFFFFFFFFFFFFFFFF17
:10C93000FFFFFFFFFFFFFFFFFFFFFFFFFFFFFFFF07
:10C94000FFFFFFFFFFFFFFFFFFFFFFFFFFFFFFFFF7
:10C95000FFFFFFFFFFFFFFFFFFFFFFFFFFFFFFFFE7
:10C96000FFFFFFFFFFFFFFFFFFFFFFFFFFFFFFFFD7
:10C97000FFFFFFFFFFFFFFFFFFFFFFFFFFFFFFFFC7
:10C98000FFFFFFFFFFFFFFFFFFFFFFFFFFFFFFFFB7
:10C99000BEF7FFFFFEFF90940000465AEFBC4BAC81
:10C9A000ACB46BA4CCB42DC50EBD2B9C6883E993AD
:10C9B0004AAC669309A46CA44CA4A993688BA99370
:10C9C0008993898B087B297B69836662E872498336
:10C9D000E87AE872A76AE559E882488B688B4A8B47
:10C9E0002983688B688B8B938A93A993E99B0AA40C
:10C9F0004CAC2CA4EBA3EA9BED936A83CB9BEBA3FB
:10CA0000EBAB4DACC8720010A572CDBCEDBCC99BA0
:10CA100088938CB4EDBCCCBC8BB4CDBC077BC1512E
:10CA2000299CAECD2CCD6AB48CAC4BAC6DB44DAC66
:10CA30002CA42983297B0D940A9CEA9B2CA46A8B45
:10CA4000656A6CAC2EC58BAC0AA42FC5A893878BE6
:10CA5000CBB4CDB42CA4666AAA930EBDEBB42AA4C1
:10CA6000EB9B097BA662ADA40AA4EEC40AA4899339
:10CA700089932BAC8993EAA3847AA99B498377DEB7
:10CA8000FEFFFFFFFFFFFFFFFFFFFFFFFFFFFFFFB7
:10CA9000FFFFFFFFFFFFFFFFFFFFFFFFFFFFFFFFA6
:10CAA000FFFFFFFFFFFFFFFFFFFFFFFFFFFFFFFF96
:10CAB000FFFFFFFFFFFFFFFFFFFFFFFFFFFFFFFF86
:10CAC000FFFFFFFFFFFFFFFFFFFFFFFFFFFFFFFF76
:10CAD000FFFFFFFFFFFFFFFFFFFFFFFFFFFFFFFF66
:10CAE000FFFFFFFFFFFFFFFFFFFFFFFFFFFFFFFF56
:10CAF000FFFFFFFFFFFFFFFFFFFFFFFFFFFFFFFF46
:10CB0000FFFFFFFFFFFFFFFFFFFFFFFFFFFFFFFF35
:10CB1000FFFFFFFFFFFFFFFFFFFFFFFFFFFFFFFF25
:10CB2000FFFFFFFFFFFFFFFFFFFFFFFFFFFFFFFF15
:10CB3000FFFFFFFFFFFFFFFFFFFFFFFFFFFFFFFF05
:10CB4000FFFFFFFFFFFFFFFFFFFFFFFFFFFFFFFFF5
:10CB5000FFFFFFFFFFFFFFFFFFFFFFFFFFFFFFFFE5
:10CB6000FFFFFFFFFFFFFFFFFFFFFFFFFFFFFFFFD5
:10CB7000FFFFFFFFFFFFFFFFFFFFFFFFFFFFFFFFC5
:10CB8000DDFFF5CDC872096B4D9C6CACCA9B435A56
:10CB9000E672EEB42EC5CB93A3410131A7722BAC44
:10CBA0002BAC2CAC0C9CCA9B89938993EA9BAA93CF
:10CBB0006983E8722973465A8028C45149832983BE
:10CBC0008A8BA7726020498BCA9BCA9B2562214130
:10CBD000C672698B4A83298365624783A9938A8BCE
:10CBE0006A8BEC9B898BC9938893A99BEAA32BAC96
:10CBF0006DAC4EA4C86A488350C52FC5856AC03045
:10CC0000C672ADB48DB48DB46DACC772856A4EBDBD
:10CC1000EFD5ECBC6AB40B9C2883CA930C9C6A8B3E
:10CC2000834162394A736AB42AB42AAC6BB44BB4F8
:10CC3000ACBCCCBCACBC6BACADB4456A256A2BAC0F
:10CC4000ACB42DC56ECD2FC5EDBC49AC29A42AA42A
:10CC50004CAC0B9C4B9CA9932BACCA9B4CAC488B0B
:10CC6000EBA388936BAC09A40EC5CEB4CFACFDFF8B
:10CC7000DDFFFFFFFFFFFFFFFFFFFFFFFFFFFFFFE6
:10CC8000FFFFFFFFFFFFFFFFFFFFFFFFFFFFFFFFB4
:10CC9000FFFFFFFFFFFFFFFFFFFFFFFFFFFFFFFFA4
:10CCA000FFFFFFFFFFFFFFFFFFFFFFFFFFFFFFFF94
:10CCB000FFFFFFFFFFFFFFFFFFFFFFFFFFFFFFFF84
:10CCC000FFFFFFFFFFFFFFFFFFFFFFFFFFFFFFFF74
:10CCD000FFFFFFFFFFFFFFFFFFFFFFFFFFFFFFFF64
:10CCE000FFFFFFFFFFFFFFFFFFFFFFFFFFFFFFFF54
:10CCF000FFFFFFFFFFFFFFFFFFFFFFFFFFFFFFFF44
:10CD0000FFFFFFFFFFFFFFFFFFFFFFFFFFFFFFFF33
:10CD1000FFFFFFFFFFFFFFFFFFFFFFFFFFFFFFFF23
:10CD2000FFFFFFFFFFFFFFFFFFFFFFFFFFFFFFFF13
:10CD3000FFFFFFFFFFFFFFFFFFFFFFFFFFFFFFFF03
:10CD4000FFFFFFFFFFFFFFFFFFFFFFFFFFFFFFFFF3
:10CD5000FFFFFFFFFFFFFFFFFFFFFFFFFFFFFFFFE3
:10CD6000FFFFFFFFFFFFFFFFFFFFFFFFFEFF56D6A6
:10CD7000CB93AA9B2B9C4BAC4BAC0A9C4041245AB6
:10CD80006CAC4BB40CA4E87AE8726A8B2CAC4CB453
:10CD9000498BED930BA48993AA9B2CAC6DACAB9300
:10CDA000E86AE96AC96A8762C872E77A28838A8B67
:10CDB0006983AA8BCB9B2BA40AA4666A6249E7729B
:10CDC00069832A83265AC028235A69836A8B886A12
:10CDD000E97A2983478B688BC99B0AA4EA9B888BD5
:10CDE0006CAC0EBD4FC52EC5EDBC2AA42783EAA3AB
:10CDF000ADB48CB44BAC8DB44CAC8CACAFD54DC594
:10CE0000CCBCADBC055A2141E77A6CACADB46883AB
:10CE100007736CA4ACBC8CBC6BB44AAC8BB46BB465
:10CE20008CB48DB4CBB48DB46A8BCB9BCDBCECC42D
:10CE30000CC50CC5EDBCEEC48CB48CBC09A4E99B3C
:10CE40000A9CEB9BC99BEA9BCA9B2883C77A2BA4AD
:10CE5000ADB46BAC6BACEDBCEDBCEA9B92CDFDFF11
:10CE6000DEFFFFFFFFFFFFFFFFFFFFFFFFFFFFFFF3
:10CE7000FFFFFFFFFFFFFFFFFFFFFFFFFFFFFFFFC2
:10CE8000FFFFFFFFFFFFFFFFFFFFFFFFFFFFFFFFB2
:10CE9000FFFFFFFFFFFFFFFFFFFFFFFFFFFFFFFFA2
:10CEA000FFFFFFFFFFFFFFFFFFFFFFFFFFFFFFFF92
:10CEB000FFFFFFFFFFFFFFFFFFFFFFFFFFFFFFFF82
:10CEC000FFFFFFFFFFFFFFFFFFFFFFFFFFFFFFFF72
:10CED000FFFFFFFFFFFFFFFFFFFFFFFFFFFFFFFF62
:10CEE000FFFFFFFFFFFFFFFFFFFFFFFFFFFFFFFF52
:10CEF000FFFFFFFFFFFFFFFFFFFFFFFFFFFFFFFF42
:10CF0000FFFFFFFFFFFFFFFFFFFFFFFFFFFFFFFF31
:10CF1000FFFFFFFFFFFFFFFFFFFFFFFFFFFFFFFF21
:10CF2000FFFFFFFFFFFFFFFFFFFFFFFFFFFFFFFF11
:10CF3000FFFFFFFFFFFFFFFFFFFFFFFFFFFFFFFF01
:10CF4000FFFFFFFFFFFFFFFFFFFFFFFFFFFFFFFFF1
:10CF5000FFFFDFFFFFFFFFFFDEF7D5C56A83488BCA
:10CF6000EAAB2AACC8A36BB48CB46DAC6DAC2BAC83
:10CF70002ABC2AAC4BA44CA4EA9BADB40BA4003948
:10CF8000C7622BA4488B288BA9938A8BA76A25524A
:10CF9000C96AEA72A8720983E882088389938A8B36
:10CFA000EB930BA40AA4C99BCB9BAB93CB93498374
:10CFB0002A7B0B73255AC76A497B0973023943419F
:10CFC0006A83298329838A93CB934CAC2AA48BB49C
:10CFD000ECC44DCD2DC50DC54ECD0DC50DC5ABBC9D
:10CFE0006BB46AB429AC4BACACBCCBBC4AB48CBC03
:10CFF0002CB4AC8B876ACB9B8CB4CCBC2DC50DC537
:10D000002ECDAEB4CEB4CDB40A9C4BA42B9C297BC0
:10D010006241E259EB9B6CAC4AACAABCEBC40DCDAF
:10D02000EFCCEDBCAA9BCCA32CB48BBC6AB4C67A63
:10D03000CC9B4BA4CA93CB9386728A8B698BEA9B59
:10D04000E993A88B6BAC90D5CDBCCEB45AFFFFFF53
:10D05000FFF7FFFFFFFFFFFFFFFFFFFFFFFFFFFFE8
:10D06000FFFFFFFFFFFFFFFFFFFFFFFFFFFFFFFFD0
:10D07000FFFFFFFFFFFFFFFFFFFFFFFFFFFFFFFFC0
:10D08000FFFFFFFFFFFFFFFFFFFFFFFFFFFFFFFFB0
:10D09000FFFFFFFFFFFFFFFFFFFFFFFFFFFFFFFFA0
:10D0A000FFFFFFFFFFFFFFFFFFFFFFFFFFFFFFFF90
:10D0B000FFFFFFFFFFFFFFFFFFFFFFFFFFFFFFFF80
:10D0C000FFFFFFFFFFFFFFFFFFFFFFFFFFFFFFFF70
:10D0D000FFFFFFFFFFFFFFFFFFFFFFFFFFFFFFFF60
:10D0E000FFFFFFFFFFFFFFFFFFFFFFFFFFFFFFFF50
:10D0F000FFFFFFFFFFFFFFFFFFFFFFFFFFFFFFFF40
:10D10000FFFFFFFFFFFFFFFFFFFFFFFFFFFFFFFF2F
:10D11000FFFFFFFFFFFFFFFFFFFFFFFFFFFFFFFF1F
:10D12000FFFFFFFFFFFFFFFFFFFFFFFFFFFFFFFF0F
:10D13000DFFFFFFFFFFFFFFFFFFFFFFFFFFFFFFF1F
:10D14000FFFF1BEF77DEEB9349838A8B4983876A66
:10D15000E772ADB48CB48BB4CCC44BAC857249834C
:10D160002DA4CB9B2BAC09A4ABB40DBD099C4A9C50
:10D170000CA4288329838B8B8B83E4510131C862F3
:10D18000A772A772097B6A83A349A772CB9B899375
:10D19000C99B6CACEA9BC99B4AA4099C2BA4488BF5
:10D1A00029830883E87A297BE87246628762297BB3
:10D1B0002A7B265A6241C7722C9C4CA4ACB4ACB4F6
:10D1C0000FCD2ECDCCC40BC50BC52DCDCDC48CB48D
:10D1D0002AAC4BAC6DAC2BA40AACE9ABE9A38DB483
:10D1E000CDB44BAC6CB4ACBC0DCD2DCD8ED56DCDCE
:10D1F0004EC5CCB48BB46BB44BACEB936662C12818
:10D200006349A98BCBB40CBD8DAC49834CA46FBDD5
:10D210004CAC23622783EEBCEA9B878B2EC50DBDE9
:10D220008BB4EA9B688B69838A8BAA932783889B3C
:10D23000866A297B94CD70CD0CBD5AFFBFFFFEFFDF
:10D24000FFFFFFFFFFFFFFFFFFFFFFFFFFFFFFFFEE
:10D25000FFFFFFFFFFFFFFFFFFFFFFFFFFFFFFFFDE
:10D26000FFFFFFFFFFFFFFFFFFFFFFFFFFFFFFFFCE
:10D27000FFFFFFFFFFFFFFFFFFFFFFFFFFFFFFFFBE
:10D28000FFFFFFFFFFFFFFFFFFFFFFFFFFFFFFFFAE
:10D29000FFFFFFFFFFFFFFFFFFFFFFFFFFFFFFFF9E
:10D2A000FFFFFFFFFFFFFFFFFFFFFFFFFFFFFFFF8E
:10D2B000FFFFFFFFFFFFFFFFFFFFFFFFFFFFFFFF7E
:10D2C000FFFFFFFFFFFFFFFFFFFFFFFFFFFFFFFF6E
:10D2D000FFFFFFFFFFFFFFFFFFFFFFFFFFFFFFFF5E
:10D2E000FFFFFFFFFFFFFFFFFFFFFFFFFFFFFFFF4E
:10D2F000FFFFFFFFFFFFFFFFFFFFFFFFFFFFFFFF3E
:10D30000FFFFFFFFFFFFFFFFFFFFFFFFFFFFFFFF2D
:10D31000FFFFFFFFFFFFFFFFFFFFFFFFFFFFFFFF1D
:10D32000FFFFFFF7FFF7FFF7FFF7FFFFFFFFF2A495
:10D3300043318762EC938A8B69834983E451E772B6
:10D340004CA48CB48BBC6BB48CB48A93CB93097B08
:10D35000EC9B0BA44AACCCBC2DC52EC5CCB4EBA326
:10D360008A93498B49838B834A7BA762C96AC872B7
:10D37000C872097B49832562C772AA9389930BA45B
:10D38000488B0CA44CAC2AA4099CEB9B0DA4AA933B
:10D390002983A772E87A297B0973097B297B0A73A1
:10D3A000C449E030255A8A8B0B9C8DAC4CA46DB4DB
:10D3B0002EC5CCBC0CC54DCD2DC56BB46CB46CACBE
:10D3C000287BC351C672EAA30AA40BA4CA93097BA3
:10D3D000698B8CACCCBCAFD5D0D56FC5F2D58FCD19
:10D3E0000DC5ECC4CCBC6BAC0B9C6A83097B8B8BEE
:10D3F0004BA4AAB4ECBC8893E038245ACDAC2BA43F
:10D400008993ADB4EEBCACB4ACB4CCBC8BB4EBA3E0
:10D410004CAC235A6783C88B846ACB9BCBA3488BC5
:10D42000AA8BA349287B0DBD19F7DFFFFEF7FFFF8D
:10D43000FFFFFFFFFFFFFFFFFFFFFFFFFFFFFFFFFC
:10D44000FFFFFFFFFFFFFFFFFFFFFFFFFFFFFFFFEC
:10D45000FFFFFFFFFFFFFFFFFFFFFFFFFFFFFFFFDC
:10D46000FFFFFFFFFFFFFFFFFFFFFFFFFFFFFFFFCC
:10D47000FFFFFFFFFFFFFFFFFFFFFFFFFFFFFFFFBC
:10D48000FFFFFFFFFFFFFFFFFFFFFFFFFFFFFFFFAC
:10D49000FFFFFFFFFFFFFFFFFFFFFFFFFFFFFFFF9C
:10D4A000FFFFFFFFFFFFFFFFFFFFFFFFFFFFFFFF8C
:10D4B000FFFFFFFFFFFFFFFFFFFFFFFFFFFFFFFF7C
:10D4C000FFFFFFFFFFFFFFFFFFFFFFFFFFFFFFFF6C
:10D4D000FFFFFFFFFFFFFFFFFFFFFFFFFFFFFFFF5C
:10D4E000FFFFFFFFFFFFFFFFFFFFFFFFFFFFFFFF4C
:10D4F000FFFFFFFFFFFFFFFFFFFFFFFFFFFFFFFF3C
:10D50000FFFFFFFFFFFFFFFFFFFFFFFFFFFFFFFF2B
:10D51000FFFFFFF7FEFFFDFF9BF7B7DE655AE772DF
:10D520002C9CAA8BE87A49836A836A83EB9B6CAC58
:10D530004BAC6BB4ACBCCDBCC67221398028087B27
:10D54000EA9B6BACECBCCCBC4ECDACB40BA4AA93A8
:10D55000AA93AA8B497B0973E86A875AC96AE97258
:10D560004A7B6A83698B8A93AA9BCAA3EB9B04625A
:10D5700029832CA44CAC6CACAB9B0983698B498B85
:10D58000E87AE87AE872E872E872A86AC96A6762BB
:10D590002552A76A4A83AB8B297B414186724CACEA
:10D5A000ADB4EDBC6FCD0EC52BA42CA42CA4E76AA2
:10D5B0000131255AAA93EA9BAA8B045260200139B3
:10D5C000888B0CBDAFCDA88B04526FA4AFD52DCDE9
:10D5D0002DCDEDC44BB4CA9B8A93EC93AB932BA493
:10D5E000AAB44DCDCDBCE78228832A9CCA9B6CACE3
:10D5F000EEBC4FCD6BAC8793CCB4099CC359AA9BAE
:10D600002BA40A9CA98B2783CA9B0FC50AA4ACB480
:10D61000C34962394B9CFDFFDFFFFFFFFFFFFFFFA8
:10D62000FFFFFFFFFFFFFFFFFFFFFFFFFFFFFFFF0A
:10D63000FFFFFFFFFFFFFFFFFFFFFFFFFFFFFFFFFA
:10D64000FFFFFFFFFFFFFFFFFFFFFFFFFFFFFFFFEA
:10D65000FFFFFFFFFFFFFFFFFFFFFFFFFFFFFFFFDA
:10D66000FFFFFFFFFFFFFFFFFFFFFFFFFFFFFFFFCA
:10D67000FFFFFFFFFFFFFFFFFFFFFFFFFFFFFFFFBA
:10D68000FFFFFFFFFFFFFFFFFFFFFFFFFFFFFFFFAA
:10D69000FFFFFFFFFFFFFFFFFFFFFFFFFFFFFFFF9A
:10D6A000FFFFFFFFFFFFFFFFFFFFFFFFFFFFFFFF8A
:10D6B000FFFFFFFFFFFFFFFFFFFFFFFFFFFFFFFF7A
:10D6C000FFFFFFFFFFFFFFFFFFFFFFFFFFFFFFFF6A
:10D6D000FFFFFFFFFFFFFFFFFFFFFFFFFFFFFFFF5A
:10D6E000FFFFFFFFFFFFFFFFFFFFFFFFFFFFFFFF4A
:10D6F000FFFFFFFFFFFFFFFFFFFFFFFF7EF7FFFFC3
:10D70000FEFFDBFF13D6ADB4AEB40DBDADAC898B5F
:10D71000097B4A834A838762E44907832BA42AACA6
:10D7200009AC8BB46CACE3512010A349AA8B4CA478
:10D730006BACECC42DCD2ECD0DC52CAC8572656ABD
:10D74000AA8B4A838762C86AC962895A064A2A7BB9
:10D75000AB93CA930BA40BACC99BEB9B298B8A930D
:10D760002CA42BA44BA4698BC459AA938A93288315
:10D77000E87AE872C86AE86A87628762A862C86A5B
:10D78000E96A09736B83C972E2306241AA8B4CA4C7
:10D790002B9C0A9C6CAC4CA42CA4EB9B0C9CAB8BE0
:10D7A000EB93EA9BCA9B0BA46983C97AC77A8CB4B2
:10D7B0006FCD8FCD06732039AB8BEFE5AFDD6FD525
:10D7C0008CB40BA42BA4CA9BAA930CA48CB4CBBC82
:10D7D000CBBC0ECDAEBC8DB4EA9BEA9BADBCADB468
:10D7E0004FCD678BC059ACB44ECD8BB4EEBCAB9370
:10D7F0004A8BAC93698B4AA46DCD4AB46ECDAFA46D
:10D800002231E76ADDFF9FF7FFFFFFFFFFFFFFFF0A
:10D81000FFFFFFFFFFFFFFFFFFFFFFFFFFFFFFFF18
:10D82000FFFFFFFFFFFFFFFFFFFFFFFFFFFFFFFF08
:10D83000FFFFFFFFFFFFFFFFFFFFFFFFFFFFFFFFF8
:10D84000FFFFFFFFFFFFFFFFFFFFFFFFFFFFFFFFE8
:10D85000FFFFFFFFFFFFFFFFFFFFFFFFFFFFFFFFD8
:10D86000FFFFFFFFFFFFFFFFFFFFFFFFFFFFFFFFC8
:10D87000FFFFFFFFFFFFFFFFFFFFFFFFFFFFFFFFB8
:10D88000FFFFFFFFFFFFFFFFFFFFFFFFFFFFFFFFA8
:10D89000FFFFFFFFFFFFFFFFFFFFFFFFFFFFFFFF98
:10D8A000FFFFFFFFFFFFFFFFFFFFFFFFFFFFFFFF88
:10D8B000FFFFFFFFFFFFFFFFFFFFFFFFFFFFFFFF78
:10D8C000FFFFFFFFFFFFFFFFFFFFFFFFFFFFFFFF68
:10D8D000FFFFFFFFFFFFFFFFFFFFFFFFFFFFFFFF58
:10D8E000FFFFFFFFFFFFFFFFFFFFDFFFDFFFD2AC08
:10D8F0004CA42FC52BA4A77AE8934BA4287BC8720D
:10D90000E96A0A73C86A4239866A0BA46BB42AAC06
:10D91000ACBCEEBC898B0873AB8BEB9B2BA48BB49C
:10D92000CCBC0DC54ECDCDBC2BAC857244628A8B70
:10D9300008730552A862E96AC6394010265AAB93AB
:10D94000AA930BA44CAC0BA4C9930BA40BA40AA4DC
:10D950004AAC6AACEA9B0883EBA38A932883087BD2
:10D96000876AC451465AE96A8862675A675AA86248
:10D97000A862C96A2B7BEA6A265A8A83CB8B287BEA
:10D98000656228832BA40B9C2BAC8993CA93EA9BDA
:10D99000EAA32AB40AAC2BA4ADB4ADB48CBCCAA320
:10D9A000CDC44FCDEDBC6FCDAEDD2DC50EC5ADBC2C
:10D9B0004CACEBA3488BA9934CAC8CB42DCD0DCDC6
:10D9C000CDC42BAC4CAC2BA48CB4ADB48BB42EC555
:10D9D0006FCD8CB42EC50DC5B0D52FC5C77A677273
:10D9E000298B0883E99B29A44AB42CC5EFB485414F
:10D9F000A762D5C5FFFFFFFFFFFFFFFFFFFFFFFF90
:10DA0000FFFFFFFFFFFFFFFFFFFFFFFFFFFFFFFF26
:10DA1000FFFFFFFFFFFFFFFFFFFFFFFFFFFFFFFF16
:10DA2000FFFFFFFFFFFFFFFFFFFFFFFFFFFFFFFF06
:10DA3000FFFFFFFFFFFFFFFFFFFFFFFFFFFFFFFFF6
:10DA4000FFFFFFFFFFFFFFFFFFFFFFFFFFFFFFFFE6
:10DA5000FFFFFFFFFFFFFFFFFFFFFFFFFFFFFFFFD6
:10DA6000FFFFFFFFFFFFFFFFFFFFFFFFFFFFFFFFC6
:10DA7000FFFFFFFFFFFFFFFFFFFFFFFFFFFFFFFFB6
:10DA8000FFFFFFFFFFFFFFFFFFFFFFFFFFFFFFFFA6
:10DA9000FFFFFFFFFFFFFFFFFFFFFFFFFFFFFFFF96
:10DAA000FFFFFFFFFFFFFFFFFFFFFFFFFFFFFFFF86
:10DAB000FFFFFFFFFFFFFFFFFFFFFFFFFFFFFFFF76
:10DAC000FFFFFFFFFFFFFFFFFFFFFFFFFFFFFFFF66
:10DAD000FFFFFFFFFFFFDFFFFFFF118C4018EB93FD
:10DAE000D1CD045A4020077B898BA76AA7624A736D
:10DAF000E96AE96AC86AE872CB934CAC4AAC6BB489
:10DB0000EDC48CAC2B9C0B9CEA9B0AA4CCBC29A436
:10DB1000E99B2EC5ADB48CB44BAC4CA44CA4297B72
:10DB20008762E96AC96A685284398762CB9BAEBC56
:10DB30000BA48572CB9309A42BA40BA42BA4ABB488
:10DB40008AAC0AA4ADB4EBA3AA93498B4983255AA6
:10DB5000A0202231A862685A8862685A8862886266
:10DB60008862C9620A6B2A734A7B6A83297B2562B1
:10DB7000C772AA938993A89BA99B4CAC2BA4C9A359
:10DB8000C8A3C9A34CAC6BACADBCCEC40AACACBC96
:10DB9000D0E510E68DD5AEDD6ECDEEBC8A93E87A89
:10DBA000498B6993EAA36CAC8CB42DC5ABBC4AAC71
:10DBB000EAA3698B656A2AA40EC5EDBCEDBCCDBC99
:10DBC0008CB44FCDE9A3C351C672ADB42AA409A445
:10DBD000EA9B0883AB8BEAA349A4AA8BA549097BDE
:10DBE0004D9CFEFFFEFFFFFFFFFFFFFFFFFFFFFF5C
:10DBF000FFFFFFFFFFFFFFFFFFFFFFFFFFFFFFFF35
:10DC0000FFFFFFFFFFFFFFFFFFFFFFFFFFFFFFFF24
:10DC1000FFFFFFFFFFFFFFFFFFFFFFFFFFFFFFFF14
:10DC2000FFFFFFFFFFFFFFFFFFFFFFFFFFFFFFFF04
:10DC3000FFFFFFFFFFFFFFFFFFFFFFFFFFFFFFFFF4
:10DC4000FFFFFFFFFFFFFFFFFFFFFFFFFFFFFFFFE4
:10DC5000FFFFFFFFFFFFFFFFFFFFFFFFFFFFFFFFD4
:10DC6000FFFFFFFFFFFFFFFFFFFFFFFFFFFFFFFFC4
:10DC7000FFFFFFFFFFFFFFFFFFFFFFFFFFFFFFFFB4
:10DC8000FFFFFFFFFFFFFFFFFFFFFFFFFFFFFFFFA4
:10DC9000FFFFFFFFFFFFFFFFFFFFFFFFFFFFFFFF94
:10DCA000FFFFFFFFFFFFFFFFFFFFFFFFFFFFFFFF84
:10DCB000FFFFFFFFFFFFFFFFFFFFFFFFFFFFFFFF74
:10DCC000FFFFDFFFFCFF8C7B4018055A4FC510D6C5
:10DCD0004CA44A83AC8B8862064AA4394752A86296
:10DCE000E96A475A0A736A832BA46BB46AB4ACBC62
:10DCF0008CB44BAC0BA40AA44AACCCBC6BB42AA425
:10DD0000CDACCEAC0AA46CAC6CACEB934A8309737B
:10DD1000E96A675A0A6B2A73297B698B6DB4899308
:10DD2000A028A66A4BAC0BA428832BA4ACB42AA4CD
:10DD3000EA9B4DAC0BA4EBA3698B4983C87283416A
:10DD40008441675A485A88622652C541675AC86258
:10DD5000A85AE96209732973297B6A83087B49837E
:10DD6000A99389930AA4CA93087BAA936CB42AAC9A
:10DD70000AA4688B455A856A6BA42EC56ED56DD5ED
:10DD80008ED5CFDD6DCDD0D58CAC2141A030E87AD9
:10DD9000EA9BEAA32783A8938CB42AAC2AA44CACB0
:10DDA0002883E038E99BEDC4CCBC0DC5CCBC6BB47A
:10DDB00090D5C99B8249035A4AAC0CC58BB4689371
:10DDC0008772EA7A498BE89369838551498BEA9B8C
:10DDD00076E6DDFFFFFFFFFFFFFFFFFFFFFFFFFF17
:10DDE000FFFFFFFFFFFFFFFFFFFFFFFFFFFFFFFF43
:10DDF000FFFFFFFFFFFFFFFFFFFFFFFFFFFFFFFF33
:10DE0000FFFFFFFFFFFFFFFFFFFFFFFFFFFFFFFF22
:10DE1000FFFFFFFFFFFFFFFFFFFFFFFFFFFFFFFF12
:10DE2000FFFFFFFFFFFFFFFFFFFFFFFFFFFFFFFF02
:10DE3000FFFFFFFFFFFFFFFFFFFFFFFFFFFFFFFFF2
:10DE4000FFFFFFFFFFFFFFFFFFFFFFFFFFFFFFFFE2
:10DE5000FFFFFFFFFFFFFFFFFFFFFFFFFFFFFFFFD2
:10DE6000FFFFFFFFFFFFFFFFFFFFFFFFFFFFFFFFC2
:10DE7000FFFFFFFFFFFFFFFFFFFFFFFFFFFFFFFFB2
:10DE8000FFFFFFFFFFFFFFFFFFFFFFFFFFFFFFFFA2
:10DE9000FFFFFFFFFFFFFFFFFFFFFFFFFFFFFFFF92
:10DEA000FFFFFFFFFFFFFFFFFFFFFFFFFFFFDFFFA2
:10DEB0009EF76EBD0A94498B8FD5EEDD6CD52DC5CE
:10DEC0002CA40B73E64927524329264AE962C96A02
:10DED00088620A73C86A2883A89B6AB4CCC48BBCC6
:10DEE0006BB40AAC0AAC4AB48BBCB0D5CDB4A24971
:10DEF000C0282AA48CB46CACCA93297B8762675A69
:10DF0000EA6AE96AE96A698389930BA4AEB4E76AAD
:10DF10000C8C8DB46A93E040C77A4CAC0AA40CA474
:10DF2000466A288BEBA38A932983297BC86AE96A0E
:10DF30006B7B0B73A962843922312652875A665251
:10DF4000E862C86A4A7B0973297B29838A93EA9B22
:10DF50002BAC4CA4E772802086628DAC0BA46CAC19
:10DF60004983074AC441C983EBB46CCD6DCD4ECD16
:10DF7000B0D58DCDCCB44CA4097B097BAB93CA9BA7
:10DF80006BB4478347834BAC0AA4C99BEA9B2DA47F
:10DF9000ED9BABB40DC5EDC48CB48BB4C99B0AA486
:10DFA000CDBCCCAC6BA42EC58CB4A99B298B29838A
:10DFB000097B8B8BCCACAA8BC661AAA3C8A330BD4E
:10DFC000FDFFFFFFFFFFFFFFFFFFFFFFFFFFFFFF63
:10DFD000FFFFFFFFFFFFFFFFFFFFFFFFFFFFFFFF51
:10DFE000FFFFFFFFFFFFFFFFFFFFFFFFFFFFFFFF41
:10DFF000FFFFFFFFFFFFFFFFFFFFFFFFFFFFFFFF31
:10E00000FFFFFFFFFFFFFFFFFFFFFFFFFFFFFFFF20
:10E01000FFFFFFFFFFFFFFFFFFFFFFFFFFFFFFFF10
:10E02000FFFFFFFFFFFFFFFFFFFFFFFFFFFFFFFF00
:10E03000FFFFFFFFFFFFFFFFFFFFFFFFFFFFFFFFF0
:10E04000FFFFFFFFFFFFFFFFFFFFFFFFFFFFFFFFE0
:10E05000FFFFFFFFFFFFFFFFFFFFFFFFFFFFFFFFD0
:10E06000FFFFFFFFFFFFFFFFFFFFFFFFFFFFFFFFC0
:10E07000FFFFFFFFFFFFFFFFFFFFFFFFFFFFFFFFB0
:10E08000FFF7FFFFFFFFBEFFFFFFFFFFFFFFFFFFE9
:10E09000FFFFFFFFFFFFFFFF9FF7FEFF98E6E65140
:10E0A0002BC5ADD5EFE54DD56FDD8CB489832873D5
:10E0B000E84968524652875AC962A962A96209733F
:10E0C0000A6B274A6010E5494CAC8CBCACBC6CAC0C
:10E0D0004BA4C349E2288B8350CDCBBCC472A24170
:10E0E0000BAC2BACADB40C94A86AC649685AC96293
:10E0F000EA62675AC76AEB930A9CACB42DC52DC57A
:10E100008DAC2CA4278368930CAC2DAC6B8BE238C0
:10E110002452CB938A8B297BC9622652AB8B0BA4EA
:10E12000CC8B675A675A064A474A885AA86A8B8333
:10E13000C9A3EAA3EAA3CA9BCA9BAA93CA932CA425
:10E140004AA4ACB44BACACBCCDBC4AAC69ACAAB430
:10E150008BAC4BAC0AAC8BBC2DCD4BA4665ACA5AC7
:10E16000E99B4BACEBA30BA40BA4A99B0AA4CCBCCE
:10E17000ABB46BAC2BACEB9B2CA46DAC6BACEDBC23
:10E18000EEBC0AA44CAC8DB42CAC488BE782ADB489
:10E19000ADBC6BB4ADBC0AAC48932983E9722A7359
:10E1A000AFAC16D6A86AAB9371D5EBA32973DDFF8C
:10E1B000FFFFFFFFFFFFFFFFFFFFFFFFFFFFFFFF6F
:10E1C000FFFFFFFFFFFFFFFFFFFFFFFFFFFFFFFF5F
:10E1D000FFFFFFFFFFFFFFFFFFFFFFFFFFFFFFFF4F
:10E1E000FFFFFFFFFFFFFFFFFFFFFFFFFFFFFFFF3F
:10E1F000FFFFFFFFFFFFFFFFFFFFFFFFFFFFFFFF2F
:10E20000FFFFFFFFFFFFFFFFFFFFFFFFFFFFFFFF1E
:10E21000FFFFFFFFFFFFFFFFFFFFFFFFFFFFFFFF0E
:10E22000FFFFFFFFFFFFFFFFFFFFFFFFFFFFFFFFFE
:10E23000FFFFFFFFFFFFFFFFFFFFFFFFFFFFFFFFEE
:10E24000FFFFFFFFFFFFFFFFFFFFFFFFFFFFFFFFDE
:10E25000FFFFFFFFFFFFFFFFFFFFFFFFFFFFFFFFCE
:10E26000FFFFFFFFFFFFFFFFFFFFFFFFFFFFFFFFBE
:10E27000DEF7DFFFFFFFFFFFDEFFFFFFFFFFFFFF18
:10E28000FDFFFEFF5DEFFFFF35D623522C9C8FD59F
:10E290006FD58FD54FD54CB4E4598020264A4952CA
:10E2A000E6416752A75A885ACA6AE96AA86209739E
:10E2B000A862A441C76A4BAC2AB44BB46CB44BA45B
:10E2C000E451E128E87AEDBC4ECDACB48DAC2BAC7A
:10E2D0006BB4CDB42C9C297B675AE96AE86AEA6A78
:10E2E0004339413949836CAC8CB4CCB44EC5ADB420
:10E2F0002AA44BAC6BB42BAC4CACEB9BA76AE7727B
:10E30000CA938A93097BE54922396A836CAC4983B5
:10E31000A24966620973A76AC772AB930C9C2BACC7
:10E32000EEC4EEC44BACEAA30BA42CA44CA4ABB437
:10E33000EDBC4FCD6FCDADBC2BAC8DB4ADB4ACB49A
:10E340002BAC899B2BACEDC42BA404522231068349
:10E35000EA9BEBA3CA9BCA9BEAA38CB4ACB4ABB454
:10E360008BB42BA4488B89938DB4CDB46BAC2AA409
:10E37000888BCDB4ADB4698BCA9B6CAC8CACC67ABF
:10E380006472278B899B89930883E8728B83B3CD52
:10E39000CC8B0552B2CDB2D58EB4223117C6FFFF59
:10E3A000FFFFFFFFFFFFFFFFFFFFFFFFFFFFFFFF7D
:10E3B000FFFFFFFFFFFFFFFFFFFFFFFFFFFFFFFF6D
:10E3C000FFFFFFFFFFFFFFFFFFFFFFFFFFFFFFFF5D
:10E3D000FFFFFFFFFFFFFFFFFFFFFFFFFFFFFFFF4D
:10E3E000FFFFFFFFFFFFFFFFFFFFFFFFFFFFFFFF3D
:10E3F000FFFFFFFFFFFFFFFFFFFFFFFFFFFFFFFF2D
:10E40000FFFFFFFFFFFFFFFFFFFFFFFFFFFFFFFF1C
:10E41000FFFFFFFFFFFFFFFFFFFFFFFFFFFFFFFF0C
:10E42000FFFFFFFFFFFFFFFFFFFFFFFFFFFFFFFFFC
:10E43000FFFFFFFFFFFFFFFFFFFFFFFFFFFFFFFFEC
:10E44000FFFFFFFFFFFFFFFFFFFFFFFFFFFFFFFFDC
:10E45000FFFFFFFFFFFFFFFFFFFFFFFFFFFFDFFFEC
:10E46000FFFFFFFFFFFFFFFFFFFFFFF7FFFFFEFFC5
:10E47000FEFFFFFFF6C52B942EBDC9938A8BAEB469
:10E480006DAC288BEC9BA0284431F7C5F3A4E64182
:10E49000A75A096B4752275288620973A7724983AA
:10E4A00029838A93EAA3E9AB6BB4ADBCCDBC6DAC58
:10E4B0002C9C8DB4CCBCECC48CB42CA44BACACB4B4
:10E4C000ABACE9934983A762C862C7622A736762EB
:10E4D00046626A8B0B9C2BA40B9C8DAC0CBD8AAC4A
:10E4E000ABB4ABBC2AAC0AA44BA46CA4CA93CA9329
:10E4F000AA9349834662255AEB9B6CAC88930783A9
:10E50000688BCA93AA93288BA99BC9A36BB48CB4BC
:10E510006CB46CAC278380518472ADB42DC56ECDC4
:10E52000D0DDB0D54BAC0362C459EDA36DCD6BAC5F
:10E53000498B0CA4ADB46CACCA93AA93E99B0AA412
:10E540002BA42BA40BA44BAC8CB46BAC0BA40AA4D3
:10E550000BA4688B488B4BA4EEBCCDB4CDB40EB5E8
:10E56000B1CDCEB42C9CADAC2B9C4783AA8B6983D8
:10E57000CA93CB9BEB9BCB93AB8B4E9C0C94C34928
:10E5800092C534DE33DE10BDAD83FFFFFFFFFFFF1A
:10E59000FFFFFFFFFFFFFFFFFFFFFFFFFFFFFFFF8B
:10E5A000FFFFFFFFFFFFFFFFFFFFFFFFFFFFFFFF7B
:10E5B000FFFFFFFFFFFFFFFFFFFFFFFFFFFFFFFF6B
:10E5C000FFFFFFFFFFFFFFFFFFFFFFFFFFFFFFFF5B
:10E5D000FFFFFFFFFFFFFFFFFFFFFFFFFFFFFFFF4B
:10E5E000FFFFFFFFFFFFFFFFFFFFFFFFFFFFFFFF3B
:10E5F000FFFFFFFFFFFFFFFFFFFFFFFFFFFFFFFF2B
:10E60000FFFFFFFFFFFFFFFFFFFFFFFFFFFFFFFF1A
:10E61000FFFFFFFFFFFFFFFFFFFFFFFFFFFFFFFF0A
:10E62000FFFFFFFFFFFFFFFFFFFFFFFFFFFFFFFFFA
:10E63000FFFFFFFFFFFFFFFFFFFFFFFFFFFFFFFFEA
:10E64000FFFFFFFFFFFFFFFFFFFFFEFFFFFFFFFFDB
:10E65000DFFFFFFFFFFFFFF7FFFFFFFFFFFF7CF77D
:10E66000495AE2308DACD1D56572A028C86A6EA433
:10E67000C76AC76A4B73DBE6FFFF79D6064287524B
:10E68000E441A120A5418862C862E87A498B4983A8
:10E690004983CA9B4CAC4BAC89930AAC8CB4ADBCDF
:10E6A0006BB42AAC8BB48CBC2BAC4CA4ACB4EDBC1E
:10E6B0002A9CEB93297B8762E7620A736B836A8BE0
:10E6C0006A8BAB93CB93656282492AA48BB46AAC04
:10E6D0008BB4ACB44BAC0A9CEA9BEA9BAA93698BC3
:10E6E00049832983CB934CACA99B0BA44CAC2BAC9A
:10E6F000A99B0BA40AACEAA30AAC0AA48CB44BAC49
:10E700006BAC4BAC8893E99BCDBC2DC56DCDCFDDFB
:10E710008FCDEDBC8893E7828FBCAED50DBDEC9B51
:10E72000CC932CA4ADB46BB44BB46CB40BA4EA9BE7
:10E73000A993A9934CACADB46BAC488BAA934CACE9
:10E74000ADB4EEB450C591CD91C5B2C534D655DE49
:10E75000D4CD15D6F4CD6D9CCB8B8B7BAC830C9438
:10E760000C944D9C4DA4EC932C9C00312C9413D60E
:10E77000B5EE34DE52BDFFFF9FFFFFFFFFFFFFFF3F
:10E78000FFFFFFFFFFFFFFFFFFFFFFFFFFFFFFFF99
:10E79000FFFFFFFFFFFFFFFFFFFFFFFFFFFFFFFF89
:10E7A000FFFFFFFFFFFFFFFFFFFFFFFFFFFFFFFF79
:10E7B000FFFFFFFFFFFFFFFFFFFFFFFFFFFFFFFF69
:10E7C000FFFFFFFFFFFFFFFFFFFFFFFFFFFFFFFF59
:10E7D000FFFFFFFFFFFFFFFFFFFFFFFFFFFFFFFF49
:10E7E000FFFFFFFFFFFFFFFFFFFFFFFFFFFFFFFF39
:10E7F000FFFFFFFFFFFFFFFFFFFFFFFFFFFFFFFF29
:10E80000FFFFFFFFFFFFFFFFFFFFFFFFFFFFFFFF18
:10E81000FFFFFFFFFFFFFFFFFFFFFFFFFFFFFFFF08
:10E82000FFFFFFFFFFFFFFFFFFFFFFFFFFFFFFFFF8
:10E83000FFFFFFFFFFFFFFFFFFFFFFFFDFFFFFFF08
:10E84000FFFFDFF7DFF7FFFFBFFF3BF7D1ACE130A2
:10E85000055AEEBC2EC50783834129738A83497309
:10E86000AF9CFDFFBEF7FFFFBEFF4752C85AE44111
:10E870002231685A2A73096B0973097B4A83AB8B6F
:10E88000AA8BAB8BCB93EB938DBC4BB46AB4ABB47C
:10E89000ACB4ADB46CB4C9A3097BE77AADB46DACCC
:10E8A000CC932B7B0652264AC96A2A7B4A836A8B01
:10E8B000CB93EC9B866AC3514BACADBC6CAC27834D
:10E8C0008993AEB44CACEA9BCAA3CA9B6A8B2983DA
:10E8D0006A8B2CAC4CAC88938A8B077B2CA40BA442
:10E8E000CA9B4BAC4BACEA9B0AA48CB44BAC4BAC74
:10E8F000ACB48BB4ACB40DC50CC58AB46DCD6DC5CC
:10E90000EBB4ECBC0DC56FD5ADD50DBDE87A2139A2
:10E91000045A8CB4ACBC8BBC4CAC2BA4EA9B0783D4
:10E9200027836CACADB42BA4498B6DAC10BD50C526
:10E93000B2CD14D655DE55DE16CE37D63BF7BEFF28
:10E94000DEFFFEFFBDFF7CFF7CF77CF7BCFFDCFF3A
:10E950009BFF56DE8FA4AB8B6239AEA434D613CEA8
:10E9600034CE3BEFFFFFFFFFFFFFFFFFFFFFFFFF87
:10E97000FFFFFFFFFFFFFFFFFFFFFFFFFFFFFFFFA7
:10E98000FFFFFFFFFFFFFFFFFFFFFFFFFFFFFFFF97
:10E99000FFFFFFFFFFFFFFFFFFFFFFFFFFFFFFFF87
:10E9A000FFFFFFFFFFFFFFFFFFFFFFFFFFFFFFFF77
:10E9B000FFFFFFFFFFFFFFFFFFFFFFFFFFFFFFFF67
:10E9C000FFFFFFFFFFFFFFFFFFFFFFFFFFFFFFFF57
:10E9D000FFFFFFFFFFFFFFFFFFFFFFFFFFFFFFFF47
:10E9E000FFFFFFFFFFFFFFFFFFFFFFFFFFFFFFFF37
:10E9F000FFFFFFFFFFFFFFFFFFFFFFFFFFFFFFFF27
:10EA0000FFFFFFFFFFFFFFFFFFFFFFFFFFFFFFFF16
:10EA1000FFFFFFFFFFFFFFFFFFFFFFFFFFFFFFFF06
:10EA2000FFFFFFFFFFFFFFFFDFFFFFFFFFFFFFFF16
:10EA3000FFFFFFFFBDFFD0ACEB934B9C8CAC0EBD3A
:10EA40000CBD0DBD2BA46A7B4A7B096B77D6BCF746
:10EA5000FEFFFFFFBEF7FFFF274A875AA75AA862AB
:10EA6000EA6AEA6A0973C962E96A8B83AB8B055269
:10EA7000C020245A6DA48DBC6BB4CCBC6BACCB93C2
:10EA80000C9C8DB4C9A30139A028688BEBA36B8BB8
:10EA90006C83C96AA962E96A09734A836A8B698BC4
:10EAA000EB9BEB9B6DA42CAC0CA40CA461494141E5
:10EAB0000CA44DAC0BA4CAA3AB934A832A838A8BC4
:10EAC0002CA42BA40A9CE872E351CA938CB42BA407
:10EAD0006BACACB4CDB4CDB4CDBCADB46BAC4BACC5
