:1000000000000220691E0000CD1E0000B11C00008F
:10001000CD1E0000CD1E0000CD1E0000000000001F
:10002000000000000000000000000000CD1E0000E5
:10003000CD1E000000000000CD1E0000CD1E0000FF
:10004000CD1E0000CD1E0000CD1E0000CD1E000004
:10005000CD1E000000000000CD1E0000CD1E0000DF
:10006000CD1E0000CD1E0000CD1E0000CD1E0000E4
:10007000CD1E0000CD1E0000CD1E0000CD1E0000D4
:10008000CD1E0000CD1E0000CD1E0000CD1E0000C4
:10009000CD1E0000CD1E0000CD1E0000CD1E0000B4
:1000A000CD1E0000CD1E0000CD1E0000CD1E0000A4
:1000B000CD1E0000CD1E0000CD1E0000CD1E000094
:1000C000CD1E0000CD1E0000CD1E0000CD1E000084
:1000D000CD1E0000CD1E0000CD1E0000CD1E000074
:1000E000CD1E0000CD1E0000CD1E0000CD1E000064
:1000F000CD1E000000000000CD1E0000CD1E00003F
:10010000CD1E0000CD1E0000CD1E0000CD1E000043
:10011000CD1E0000CD1E0000CD1E0000CD1E000033
:10012000CD1E0000CD1E0000CD1E0000CD1E000023
:10013000CD1E000000000000CD1E000000000000E9
:10014000CD1E0000CD1E0000CD1E0000CD1E000003
:10015000CD1E000000000000CD1E0000CD1E0000DE
:10016000CD1E0000CD1E0000CD1E0000CD1E0000E3
:10017000CD1E0000CD1E0000CD1E0000CD1E0000D3
:10018000CD1E0000CD1E0000CD1E000000000000AE
:10019000CD1E0000CD1E0000CD1E0000CD1E0000B3
:1001A000CD1E0000CD1E0000CD1E0000000000008E
:1001B000CD1E0000CD1E0000000000000000000069
:1001C000000000000000000000000000000000002F
:1001D00000000000CD1E0000CD1E0000CD1E00005E
:1001E000CD1E0000CD1E0000CD1E0000CD1E000063
:1001F000CD1E000010B5054C237833B9044B13B164
:100200000448AFF300800123237010BDE8090020EB
:1002100000000000D08000000C4B43B10C480D4999
:1002200010B5AFF300800C48036823B910BD0A482D
:10023000036833B97047094B002BF7D0BDE8104075
:100240001847064B002BF5D0184700BF00000000F0
:10025000D0800000EC090020E4090020000000002C
:10026000154B002B08BF134B9D46A3F5803A002188
:100270008B460F461348144A121A01F0CFFE0F4B5B
:10028000002B00D098470E4B002B00D09847002041
:10029000002104000D000D48002802D00C4803F096
:1002A000E1FB01F093FE2000290000F067F801F067
:1002B0007DFE00BF000008000000022000000000DA
:1002C00000000000E80900206C0A0020653A0000E8
:1002D000694C000010B54FF0804359241620882146
:1002E000C3F80041C3F80001C3F80011D3F800219E
:1002F000002AF5D010BD000010B5FFF7EBFF174A3C
:10030000174C136823F0F0031360012001F0C8F9C3
:10031000012001F0E3F90021084601F0FDF9114840
:1003200001F0FCFA104B11225A63204601F0C0F98B
:1003300000221146204601F06BF901F0C9FD4FF093
:100340008043DA6B22F47F02DA63DA6B42F4CC0288
:10035000DA630022C3F8002110BD00BF4041004015
:10036000103D805700B0710B000200404FF4E131A6
:10037000014801F0D3BC00BF000007402DE9F3475E
:10038000FFF7BAFFFFF7F2FFAC4801F0F7FEAC4809
:1003900001F0F4FEAB4801F0F1FEAB4801F0EEFED7
:1003A000A74801F0EBFEFFF795FF01F06DFB02217E
:1003B000684601F0C9FB002810DAA44801F0DEFE0F
:1003C000A34801F0DBFE01F0E3FA4FF08043002286
:1003D000C3F800219F4801F0D1FEFEE7009B5A06BA
:1003E00012D59D490A6842F010020A6023F04003CA
:1003F00002216846009301F0C1FB08B19748DDE790
:100400004FF0804301229A60954801F055FE01F0BB
:100410002FFB064620B1934801F0B0FE9248D0E78A
:10042000924D9348934C01F0A9FE296826600A2357
:10043000B1FBF3F1884B0B22DA6001225E604900C8
:100440001A611A4611F1FF3101D2216009E01069E9
:10045000C707F7D49268DA2A1CBF4FF0FF32226038
:1004600099682668A6B9844801F026FE29682660A6
:100470000A23B1FBF3F1784B0C22DA6004225A60B4
:10048000012249001A6111F1FF3103D2216005E018
:100490007A4896E71A69D607F5D4996823680BB1AC
:1004A00077488EE7774801F007FE4FF4401001F0DF
:1004B000F3FA0146744801F0FFFD23680BB173485D
:1004C0007FE7734801F0E8FA0146724801F0F4FD55
:1004D0002368002B5DD1DFF810826F4FDFF8609149
:1004E000DFF808A2404601F049FE484601F046FE0A
:1004F000504601F043FE484601F040FE674801F0D7
:100500003DFE674801F03AFE484601F037FE654877
:1005100001F0D2FD644B186841684B68013B002B29
:100520004B6038DA01F032FEC6B231465F4801F066
:10053000C3FD302E34D0312ED4D15D4801F01EFEE3
:100540004FF480135B48196801F0B6FD5A4B5B48C5
:10055000196801F0B1FD5A4A93695802FCD52B681D
:100560000A22B3FBF2F33C4A2E21D1604FF48011F2
:10057000516001215B00116113F1FF3380F0B880FD
:100580004FF480131B6883F308884B4B1B68984714
:10059000A4E74C4815E70B685A1C0A601E78C4E7AC
:1005A0002D4A4948136843F0200313604FF480112B
:1005B00001F082FD4FF4801001F026FA60BB814605
:1005C00029F0030309F5801AD959504601F08AFA37
:1005D000064640BB09F10409B9F5805FF0D13B48FC
:1005E00001F06AFD06F58019484601F055FA2368C6
:1005F0000246DBB926F00303FB58984219D10436B2
:10060000B6F5805FEED1324801F0B8FD124A1368AA
:1006100023F02003136061E72E484FF4801101F0AE
:100620004BFD2D48CDE651462C48F8E749462C486D
:10063000F5E749462B4801F03FFDF2E7687B0000F3
:10064000347900005F7900008A790000B5790000F4
:10065000557D0000397D000000C00040CF790000CA
:10066000727D0000EF790000F7790000080000209B
:10067000E7790000400A00203D7A0000297A000056
:10068000717A0000857A0000B97A0000ED7A0000E6
:10069000040030000F7B000010070000957B000075
:1006A000C07B0000EB7B00002C000020FC7B0000E6
:1006B000C07C0000E77C000004001000FD7C00000E
:1006C00000000740437B0000007C0000677C0000C6
:1006D000767C0000277C00009D7D0000477C0000A8
:1006E0007A7C0000997C0000677B00006A7B000038
:1006F0001169C9073FF540AF002B7FF441AF0148B6
:100700005FE600BF1D7D000000000000000000004B
:1007100000000220950210000503100005031000E0
:100720000503100005031000050310000000000081
:1007300000000000000000000000000005031000A1
:100740000503100000000000050310000503100061
:1007500010B5054C237833B9044B13B10448AFF3FB
:1007600000800123237010BD7400002000000000F1
:100770007C0E10000C4B43B10C480D4910B5AFF383
:1007800000800C48036823B910BD0A48036833B9D8
:100790007047094B002BF7D0BDE810401847064BB7
:1007A000002BF5D0184700BF000000007C0E1000A1
:1007B000780000207000002000000000154B002B86
:1007C00008BF134B9D46A3F5803A00218B460F4688
:1007D0001348144A121A00F0CFF90F4B002B00D027
:1007E00098470E4B002B00D09847002000210400B2
:1007F0000D000D48002802D00C48AFF3008000F037
:1008000097F92000290000F077F800F07DF900BF8B
:1008100000000800000002200000000000000000AE
:1008200074000020A4000020000000000000000070
:1008300010B54FF08043592416208821C3F8004199
:10084000C3F80001C3F80011D3F80021002AF5D045
:1008500010BD000010B5094B01380D2110F9012F12
:1008600002B910BD9C692402FCD40A2A1A60F5D191
:100870009A691202FCD41960F0E700BF000007403B
:1008800008B5FFF7D5FF134A136823F0F003136090
:10089000114B1A6842F001021A601A6DD207FCD59A
:1008A0001A6922F007021A615A6922F040725A61ED
:1008B0000A4B0B4A1A604FF08043DA6B22F47F0236
:1008C000DA63DA6B42F4CC02DA630022C3F8002167
:1008D00008BD00BF40410040000200400000002071
:1008E000001BB700024B0322DA60024A5A627047CB
:1008F000000007406600003010B5FFF7C1FFFFF7AA
:10090000F1FF2048FFF7A6FFFFF792FF00F084F801
:100910001D48FFF79FFF1D4B1C469A695204FCD4EB
:100920001B481B68FFF796FFA3695B02FCD5194BB8
:1009300019491B680A22B3FBF2F3184A00202E243F
:100940000860D460506001205B00106113F1FF3338
:1009500001D20B6002E010690028F7D10B681BB1CF
:100960000F4800F06DF9FEE74FF08042C2F8003109
:100970004FF480131B6883F3088804231B6898478F
:10098000FEE700BF8C0D10009A0D1000000007401C
:10099000C10D1000000000209C00002000C000409D
:1009A000E90D10001449154A154B9A42BEBF51F883
:1009B000040B42F8040BF8E7124859210160162194
:1009C0000160882101601048416841F48041416024
:1009D0000E48416841F002014160416841F0040164
:1009E000416000F051F80A4845F6A521016005482C
:1009F00000210160FFF7E2FE880E100000000020D9
:100A0000740000200001004000020040007000401F
:100A100024000040FEE700BF024A136843F00103D0
:100A20001360704700C0004008B500F067F8582315
:100A300003604FF0FF3008BD08B500F05FF85823A1
:100A400003604FF0FF3008BD08B500F057F8582399
:100A50000360002008BD08B500F050F8582303607B
:100A60004FF0FF3008BD08B500F048F85823036088
:100A70004FF0FF3008BD08B500F040F85823036080
:100A80004FF0FF3008BD0000174AD2F8883043F419
:100A90007003C2F88830154AD36C23F00F0343F07B
:100AA0000803D364124BD3F8982042F48022C3F891
:100AB00098209A6842F002029A600E4AD2F8041115
:100AC00001F0F731C2F80411D2F8081101F0F73142
:100AD000C2F808119A6822F002029A60064A136866
:100AE00023F0F0031360704700ED00E000C0004009
:100AF000000200400010044040410040014B1868D3
:100B0000704700BF0400002008B5074B044613B12E
:100B10000021AFF30080054B1868836A03B1984742
:100B2000204600F0ADFC00BF00000000180E1000D1
:100B300070B50D4E0D4CA41BA4100025A54209D183
:100B40000B4E0C4C00F09EFCA41BA4100025A542EB
:100B500005D170BD56F8253098470135EEE756F8B7
:100B6000253098470135F2E7680000206800002032
:100B7000680000206C00002002440346934200D12C
:100B8000704703F8011BF9E770B50E46054618B12A
:100B900083690BB900F00EFAAB69AC6813B928464B
:100BA00000F008FA234B9C4217D16C68A3891B07FD
:100BB0001DD52369DBB1013EA36816F8011F013B77
:100BC000A360E9B9002B2EDA22460A21284600F05C
:100BD0003FF8013011D00A2070BD174B9C4201D163
:100BE000AC68E3E7154B9C4208BFEC68DEE72146A2
:100BF000284600F07FF80028DDD04FF0FF3070BDB0
:100C0000002B04DAA269934206DB0A2904D0236888
:100C10005A1C22601970CFE72246284600F018F8C7
:100C20000130C9D1E9E723680A205A1C22601870F4
:100C300070BD00BF3C0E10005C0E10001C0E1000BA
:100C4000024B01461868FFF79FBF00BF0400002059
:100C5000F8B50E461446054618B183690BB900F085
:100C6000A9F9214B9C422AD16C68A369A360A3898E
:100C70001A072ED5236963B323692068C01A6369F4
:100C8000F6B29842374604DB2146284600F028F9A0
:100C900028BBA368013BA36023685A1C22601E7016
:100CA00063690130984204D0A389DB0719D50A2E65
:100CB00017D12146284600F013F990B10FE00B4BF5
:100CC0009C4201D1AC68D0E7094B9C4208BFEC685C
:100CD000CBE72146284600F00DF80028CCD04FF095
:100CE000FF373846F8BD00BF3C0E10005C0E100008
:100CF0001C0E1000324B70B51D6806460C4625B11F
:100D0000AB6913B9284600F055F92E4B9C420FD120
:100D10006C68B4F90C309AB215072CD4D00611D4F3
:100D20000922326043F04003A3814FF0FF3070BDD1
:100D3000254B9C4201D1AC68EBE7244B9C4208BF99
:100D4000EC68E6E7510712D5616B41B104F1440349
:100D5000994202D0304600F01BFA00236363A38956
:100D600023F02403A3810023636023692360A38904
:100D700043F00803A38123694BB9A38903F42073CB
:100D8000B3F5007F03D02146304600F0C1F9A289B7
:100D900012F001030CD00023A36063695B42A361DE
:100DA000236953B9B4F90C3013F08000BAD170BD87
:100DB000920758BF6369A360F2E70020F7E700BF1E
:100DC000040000203C0E10005C0E10001C0E1000F1
:100DD0008A892DE9F041054610070C465AD44B6824
:100DE000002B05DC0B6C002B02DC0020BDE8F08141
:100DF000E66A002EF9D0002312F480522F682B608F
:100E000033D0606DA3895A0705D56368C01A636B38
:100E10000BB1236CC01A00230246E66A216A2846F9
:100E2000B047431CA38906D129681D294BD82B4AFA
:100E3000CA40D60747D500226260D90422692260E1
:100E400004D5421C01D12B6803B96065616B2F602A
:100E50000029CAD004F14403994202D0284600F088
:100E600097F900206063BDE8F081216A01232846DC
:100E7000B047411CC6D12B68002BC3D01D2B01D01D
:100E8000162B01D12F60B0E7A38943F04003A38163
:100E9000BDE8F0810F69002FA7D093070E6808BF47
:100EA0004B690F6018BF0023A6EB07088B60B8F1F1
:100EB000000F9ADD43463A46216AA66A2846B047A3
:100EC000002807DCA38943F04003A3814FF0FF30E3
:100ED000BDE8F0810744A8EB0008E8E701004020E6
:100EE00038B50B6905460C46DBB118B183690BB9FF
:100EF00000F060F80C4B9C4209D16C68B4F90C30DE
:100F00007BB121462846BDE83840FFF761BF074B5B
:100F10009C4201D1AC68F1E7054B9C4208BFEC68EC
:100F2000ECE7002038BD00BF3C0E10005C0E100046
:100F30001C0E1000014900F0A9B800BFD107100035
:100F4000002310B5044603604360836081814366DB
:100F5000C281036143618361194608225C30FFF757
:100F60000BFE054B6362054BA362054BE362054B29
:100F70002462236310BD00BFF90B10001B0C10008E
:100F8000530C1000770C100070B54A1E68255543AD
:100F90000E4605F1740100F049F9044640B1002104
:100FA00080E842000C30A06005F16802FFF7E4FD24
:100FB000204670BD836910B5044633BB8364C364A7
:100FC0000365124B124A1B688262984204BF0123D8
:100FD000836100F01FF86060204600F01BF8A060FD
:100FE000204600F017F80022E06004216068FFF757
:100FF000A7FF01220921A068FFF7A2FF0222122108
:10100000E068FFF79DFF0123A36110BD180E1000DB
:1010100025081000F8B51C4B1E68B369074613B9C4
:101020003046FFF7C7FF4836B4687368013B03D505
:10103000336833B13668F7E7B4F90C506DB16834F2
:10104000F4E704213846FFF79FFF30600028F1D114
:101050000C233B6004462046F8BD4FF6FF73E38146
:101060000123A38165662560A560656025616561D2
:10107000A5610822294604F15C00FFF77DFD656348
:10108000A563A564E564E6E7180E10002DE9F843B2
:101090008046894600F14804002614B93046BDE870
:1010A000F883A5686768013F01D52468F5E7AB8937
:1010B000012B07D9B5F90E30013303D0294640463C
:1010C000C84706436835EEE770B50E46B1F90E1015
:1010D000002990B014461D4607DA00232B60B3891F
:1010E0001A0610D44FF480630EE001AA00F072F9E2
:1010F0000028F2DB029A02F47042A2F500535A4231
:101100005A412A60EEE740230020236010B070BDF2
:101110008B8973B59D0706460C4607D504F1470336
:10112000236023610123636102B070BD01AB6A4695
:10113000FFF7CAFF00990546304600F077F848B936
:10114000B4F90C309A05EFD423F0030343F0020303
:10115000A381E3E70D4BB362A389206043F08003D2
:10116000A381009B6361019B20615BB1B4F90E1008
:10117000304600F041F928B1A38923F0030343F07E
:101180000103A381A3891D43A581CDE72508100094
:1011900038B50546002945D051F8043C0C1F002BFA
:1011A000B8BFE41800F04AF91F4A1368104633B973
:1011B000636014602846BDE8384000F040B9A3429F
:1011C0000CD921686218934204BF1A685B68636097
:1011D00004BF521822600460ECE713465A680AB153
:1011E000A242FAD919685818A0420BD120680144CC
:1011F000581882421960DDD1106852685A60014463
:101200001960D7E702D90C232B60D3E72068211897
:101210008A4204BF11685268626004BF09182160E5
:101220005C60C7E738BD00BF9000002070B5CD1CE2
:1012300025F0030508350C2D38BF0C25002D06467A
:1012400001DBA94203D90C233360002070BD00F0FC
:10125000F5F8234A1468214691B9224C23681BB93A
:10126000304600F041F820602946304600F03CF856
:10127000431C26D10C233360304600F0E0F8E4E74D
:101280000B685B1B1AD40B2B0FD90B60CD50CC18FD
:10129000304600F0D4F804F10B00231D20F00700C5
:1012A000C31A1BD05A42E25070BD8C420DBF636816
:1012B0004B686360136018BF0C46E9E70C46496849
:1012C000CAE7C41C24F00304A04205D0211A30460A
:1012D00000F00AF80130CDD02560D9E770BD00BF1D
:1012E000900000209400002038B5064C00230546ED
:1012F0000846236000F0B6F8431C02D1236803B10E
:101300002B6038BDA000002010B50C46B1F90E10BE
:1013100000F096F80028ABBF636DA3891B1823F477
:101320008053ACBF6365A38110BD2DE9F0411F461A
:101330008B89DB0505460C46164605D5022300229F
:10134000B1F90E1000F068F8A389B4F90E1023F477
:101350008053A38132463B462846BDE8F04100F069
:1013600017B810B50C46B1F90E1000F055F8431C33
:10137000A38915BF606523F4805343F48053A38190
:1013800018BFA38110BDB1F90E1000F013B8000012
:1013900038B5074C054608461146002222601A4619
:1013A000FFF769FB431C02D1236803B12B6038BDF2
:1013B000A000002038B5064C0023054608462360EF
:1013C000FFF732FB431C02D1236803B12B6038BD09
:1013D000A000002038B5074C0023054608461146FA
:1013E0002360FFF729FB431C02D1236803B12B6064
:1013F00038BD00BFA000002038B5064C00230546CC
:1014000008462360FFF720FB431C02D1236803B189
:101410002B6038BDA000002038B5074C05460846B3
:101420001146002222601A46FFF715FB431C02D129
:10143000236803B12B6038BDA000002070477047BF
:1014400038B5074C054608461146002222601A4668
:10145000FFF709FB431C02D1236803B12B6038BDA1
:10146000A0000020044A05491368002B08BF0B4662
:10147000184410601846704798000020A80000200B
:10148000FEE700BFF8B500BFF8BC08BC9E46704739
:10149000F8B500BFF8BC08BC9E4670475B4C445290
:1014A0004F4D20636F64655D0A000A0A50726573D0
:1014B0007320616E79206B657920746F2062726190
:1014C0006E636820746F204150524F4D2E2E2E0AAD
:1014D000000A0A4368616E6765205645434D4150D6
:1014E00020616E64206272616E636820746F2041B7
:1014F00050524F4D2E2E2E0A00464D435F536574B9
:10150000566563746F725061676541646472284602
:101510004D435F4150524F4D5F4241534529206634
:1015200061696C6564210000080000200000000073
:1015300000000000000000000000000000000000AB
:10154000000000000000000000000000000000009B
:10155000000000000000000000000000000000008B
:10156000000000000000000000000000000000007B
:10157000000000000000000000000000000000006B
:10158000000000000000000000000000000000005B
:101590002CF2FF7F01000000001BB70008000020B4
:1015A000000000003C0E10005C0E10001C0E10002D
:1015B000000000000000000000000000000000002B
:1015C000000000000000000000000000000000001B
:1015D000000000000000000000000000000000000B
:1015E00000000000000000000000000000000000FB
:1015F00000000000000000000000000000000000EB
:101600006500100041001000000000000000000014
:1016100070B5C0F38725E5B14FF08043D3F8F431BE
:10162000DBB2012B4FEA904303F0030324D1022BDA
:1016300024D1184E184C00F01D031D2B14BF234657
:1016400033461C68C0F34416B54024EA050422431F
:101650001A60C0F3426474B1C0F3017303F18053A4
:1016600084339B00C0F304501A6804FA00F022EAA5
:1016700000000143196070BD022B06D0032B06D079
:1016800003F1805388339B00DBE7034BD9E7034B1F
:10169000D7E700BF280200402C0200403002004083
:1016A000024A136818431060704700BF00020040F0
:1016B000830F9B0003F1804300F01F02D3F8041254
:1016C000012090400843C3F804027047024A136C9B
:1016D00043F4803313647047000200400B4B0C4A04
:1016E0001B6810B500210B4C11605B08216D30EABE
:1016F000010102D143B9012301E0013BF6D14FF0D2
:10170000FF311160184610BD0123FBE708000020DF
:10171000040A002000020040F8B5114C256D236832
:1017200043F004030646236010200F46FFF7D6FF60
:10173000236943F007032361236A23F00F033B432C
:101740002362206920F007003043206100F0C0FBD5
:10175000EB065EBF236823F004032360F8BD00BFDF
:101760000002004082B001238DF8043002238DF87E
:1017700005308DF8063004238DF807300F4B1B6CB5
:1017800013F4A02F15D19A0315D4C3F30800821CBB
:101790000B4802A95043C3F381320A44C3F34423E4
:1017A00012F8042C03FB0223B0FBF3F0C00002B0DC
:1017B00070470020FBE70348F9E700BF0002004044
:1017C000C0C62D00001BB7002DE9F04F85B00446C0
:1017D0000E46FFF77BFF4A4B1A6800286BD142F098
:1017E00001021A600120FFF779FFA246454B464AE5
:1017F0000393F118914274D8730000250293B3004B
:101800000193A8462C464FF0FF3301224FEA960E73
:1018100002213E48B0FBF1FC3D48ACF57417A7F53A
:101820001067874224D8CCF35D004700A3460090A0
:10183000AEEB07099C460224039B3648FB18834203
:101840000BD8BE4534BFA7EB0E034B46634504D20D
:101850001546884663B1A3469C46009B01341F444D
:10186000A9EB030940F202239C42E5D15C466346A2
:101870000131212901D0002BCBD10132052A23D1FE
:10188000A31E43EA0A0305F1FF3A1D4A43EA8A33DD
:1018900008F1FF3A43EA4A2313640420FFF71EFFCE
:1018A000640005FB08F51948B0FBF5F504FB05F0ED
:1018B00005B0BDE8F08F42F004021A601020FFF777
:1018C0000DFF4FF4002A91E7002BD9D0032AD4D082
:1018D000042A04D00299022A08BF0E4696E7019E08
:1018E00094E7074B54B944F21E221A640420FFF710
:1018F000F5FE05B0BDE8F04FFFF734BF064AF4E748
:1019000000020040800F05FD8074D21A001BB70052
:1019100000093D00C06878041E42080070B51A4CEA
:101920001A4E256D2368864243F0040328BF0646FD
:1019300023601020FFF7D2FE236943F007032361E1
:10194000236A23F00F0323622368DB0712D5314695
:101950000020FFF739FF05F01004054600210220A2
:10196000FFF7DAFE24B9084A136823F00403136072
:10197000284670BD31464FF40020FFF725FF246D47
:10198000054604F01004E9E70002004000B0710BC6
:10199000024A136823F001031360704700C000403F
:1019A0001549164A00230B602223D3604FF400131D
:1019B0005360134B936001231361124B0A201B6881
:1019C000B3FBF0F39B00013B581C002805DC002B07
:1019D00008DC4FF0FF3008607047D2F8C000C00745
:1019E000F1D4F4E7054B186810F04000F4D01A6801
:1019F00042F040021A60ECE7400A002000C00040BC
:101A000003AA55000800002016490023B0F5001F66
:101A10000B6001D1FFF7C4BF134A2223D360012317
:101A200050601361114B0A201B68B3FBF0F39B005D
:101A3000013B581C002805DC002B08DC4FF0FF3070
:101A400008607047D2F8C000C007F1D4F4E7064B35
:101A5000186810F04000F4D01A6842F040021A6092
:101A6000ECE700BF400A002000C000400800002052
:101A7000044B1A68D2035ABF1868C0F34000022012
:101A8000704700BF00C00040024A136843F00103E2
:101A90001360704700C000400F4A104900230B60DC
:101AA000D3600123506013610D4B0A201B68B3FB08
:101AB000F0F35B00013B581C002805DC002B08DC20
:101AC0004FF0FF3008607047D2F8C000C007F1D473
:101AD000F4E7014B9868704700C00040400A0020BE
:101AE0000800002010B5154C154A0023236021235F
:101AF000D3600123506091601361124B0A211B686F
:101B0000B3FBF1F321465B00013B581C002805DCC8
:101B1000002B08DC4FF0FF30086010BDD2F8C00089
:101B2000C007F1D4F4E7064B186C10F04000F4D075
:101B30001A6C42F040021A64ECE700BF400A002031
:101B400000C000400800002070B505464FF440106A
:101B50000E46FFF7A1FF074B28601C682CB9012E29
:101B600005D90548FFF798FF6860204670BD6FF003
:101B70000104FAE7400A0020040030002DE9F84390
:101B80002A4E336843F01003054633604FF440108B
:101B90008946FFF739FF344648B94FF44010FFF744
:101BA0007BFF013006D0236823F0100323604FF041
:101BB000FF3417E01E48FFF76FFFB0F1FF3FF2D18F
:101BC0001C48FFF769FF1C4B9842ECD11B4F3C6847
:101BD0005CB9043D26464E450CD1144A136823F0E7
:101BE000100313602046BDE8F883336823F0100328
:101BF0003360DCE706F540284FEA880855F8041FF3
:101C00004046FFF76FFF28B1084A136823F010031E
:101C10001360CCE74046FFF73FFF2B689842F3D1B3
:101C20003B68002BF0D10136D5E700BF00C0004073
:101C300004003000080030005A5AFFFF400A00201C
:101C4000044608B5114800F099FA2168104800F0E0
:101C500033FA61680F4800F02FFAA1680E4800F0CF
:101C60002BFAE1680D4800F027FA21690C4800F0D2
:101C700023FA61690B4800F01FFAA1690A4800F0D5
:101C80001BFAE169094800F017FAFEE7B97D000088
:101C9000CF7D0000DB7D0000E77D0000F37D0000CC
:101CA000FF7D00000B7E0000177E0000237E0000F9
:101CB000074B04207146084204D0EFF309807146B7
:101CC000FFF7BEBFEFF30880FFF7BABFFEE700BF24
:101CD000411C00000B4B30B588180D24814201D106
:101CE000104630BD9D692D02FCD411F9015B0A2D0F
:101CF00003D011F9015C1D60F0E71C609D692D02A5
:101D0000FCD4F6E700000740034B9A695204FCD468
:101D10001B680B700120704700000740F0B53A4B7C
:101D200005460E460FCB85B004AC04E90F00374BD7
:101D30009D4207D1364B5F691C6AC7F30167C4F344
:101D4000032414E0334B9D4207D1314B5F691C6A79
:101D5000C7F38167C4F3033409E02F4B9D4233D1AD
:101D60002B4BDF691C6BC7F3016704F00F040023E2
:101D70002B630323EB60AB6823F4702323F0F003A1
:101D8000012FAB6002D1FFF7EDFC0190D6B104AB9F
:101D900003EB8707013457F8103CB3FBF4F404EB72
:101DA0005603B3FBF6F3023BB3F5803F21BF04EBD0
:101DB000C604B4FBF6F63609023E36BF43F0405384
:101DC0006E626B6205B0F0BD144B9D4207D1104BA3
:101DD000DF691C6BC7F38167C4F30314C7E7104BBB
:101DE0009D4205D10A4BDF691C6BC7F30177A6E75B
:101DF0000C4B9D4204D1064BDF691C6BBF0FA9E75A
:101E000000242746B3E700BF307E000000000740F3
:101E1000000200400010074000200740003007404B
:101E2000004007400050074008B500F0B9F85823BB
:101E300003604FF0FF3008BD08B500F0B1F858233B
:101E400003604FF0FF3008BD08B500F0A9F8582333
:101E50000360002008BD08B500F0A2F85823036015
:101E60004FF0FF3008BD00001249134A134B9A424D
:101E7000BEBF51F8040B42F8040BF8E71048592193
:101E8000016016210160882101600E48416841F41B
:101E9000804141600C48416841F002014160416865
:101EA00041F00401416000F041F805480021016063
:101EB000FEF7D6F9DC80000000000020E8090020D1
:101EC000000100400002004000700040FEE700BF3B
:101ED00008B5FFF747FC0F4B18600F4B1A691B6AD8
:101EE00002F00702022A18BF0C4903F00F0303F1A6
:101EF000010318BF51F82200B0FBF3F0084B186043
:101F000000F5F420074B00F59070B0FBF3F0064BA2
:101F1000186008BD04000020000200400C000020F2
:101F20000800002040420F0000000020174AD2F8AD
:101F3000883043F47003C2F88830154AD36C23F01C
:101F40000F0343F00803D364124BD3F8982042F4F4
:101F50008022C3F898209A6842F002029A600E4AE2
:101F6000D2F8041101F0F731C2F80411D2F80811C7
:101F700001F0F731C2F808119A6822F002029A6063
:101F8000064A136823F0F0031360704700ED00E089
:101F900000C00040000200400010044040410040EA
:101FA000014B1868704700BF2C00002008B50021C5
:101FB000044601F0E3FC044B1868C36B03B1984777
:101FC000204605F0A9FC00BF407E000070B50F4E12
:101FD0000F4D761BB61018BF002405D0013455F8FC
:101FE000043B9847A642F9D10A4E0B4D761B05F0EB
:101FF00095FCB61018BF002406D0013455F8043BF8
:102000009847A642F9D170BD70BD00BFD809002025
:10201000D8090020E0090020D809002070B4860704
:1020200046D0541E002A41D0CAB2034602E014F141
:10203000FF343BD303F8012B9D07F8D1032C2ED995
:10204000CDB245EA05250F2C45EA054519D903F11E
:1020500010022646103E0F2E42F8105C42F80C5C2F
:1020600042F8085C42F8045C02F11002F2D8A4F1D4
:10207000100222F00F0204F00F041032032C13445C
:102080000DD91E462246043A032A46F8045BFAD8C4
:10209000221F22F003020432134404F003042CB183
:1020A000C9B21C4403F8011B9C42FBD170BC7047B1
:1020B00014460346C2E700BF0FB400B5074983B01A
:1020C00004AB086853F8042B8168019300F0E8F82A
:1020D00003B05DF804EB04B0704700BF2C00002093
:1020E000F0B5054689B008460C4600F069F8AB6BC0
:1020F000214F04940126441C04A902220394059054
:10210000AC68069707960191029253B3636E13F081
:10211000010FB4F90C309AB201D1900525D5910484
:1021200006D4626E43F4005322F40052A381626627
:10213000284601AA214602F0E7FE636E00280CBF84
:102140000A254FF0FF35DA0702D4A3899B0502D593
:10215000284609B0F0BDA06D03F0B2F8284609B0DA
:10216000F0BD284602F048FDD0E7A06D03F0A6F8C8
:10217000B4F90C309AB2D2E7447E0000024B01461B
:102180001868FFF7ADBF00BF2C00002038B50C4623
:10219000054608B1836B63B12846214604F0C6F9B1
:1021A00050B994E80C00013B511C84E80A001078F7
:1021B00038BD02F021FDEFE74FF0FF3038BD00BF22
:1021C00090F800F06DE9024520F007016FF0000C77
:1021D00010F0070491F820F040F049804FF000041F
:1021E0006FF00700D1E9002391F840F000F10800FA
:1021F00082FA4CF2A4FA8CF283FA4CF3A2FA8CF332
:102200004BBBD1E9022382FA4CF200F10800A4FA98
:102210008CF283FA4CF3A2FA8CF3E3B9D1E90423EC
:1022200082FA4CF200F10800A4FA8CF283FA4CF323
:10223000A2FA8CF37BB9D1E9062301F1200182FADD
:102240004CF200F10800A4FA8CF283FA4CF3A2FAE3
:102250008CF3002BC6D0002A04BF04301A4612BAF1
:10226000B2FA82F2FDE8024500EBD2007047D1E9F4
:10227000002304F00305C4F100004FEAC50514F083
:10228000040F91F840F00CFA05F562EA05021CBF54
:1022900063EA050362464FF00004A9E7000000006E
:1022A0002DE9F04FBFB01D468A4691460446049082
:1022B00002F0F2FF036811931846FFF781FF0A95B9
:1022C00010901CB1A36B002B00F06282DAF864302E
:1022D000BAF90C2013F0010F93B202D1990540F125
:1022E00078829F040AD4DAF8641042F4005321F48F
:1022F0000051AAF80C30CAF864109BB21E0740F1D6
:102300002682DAF81020002A00F0218203F01A0257
:102310000A2A00F041829FED8E7B00238DED0E7B1B
:102320000D93239322931293139307932EAB219330
:102330009846CDF818A099F800304C46EBB1252B03
:1023400002D11AE0252B03D014F8013F002BF9D15C
:10235000A4EB09058DB1229B239AC8F800900133A4
:102360002A44072BC8F804502392229300F30582D5
:1023700008F10808079B2B4407932378002B00F0F3
:10238000FE8300231A468DF86730194608939B4652
:1023900066784FF0FF3304F10109059309F1010953
:1023A000A6F12003582B00F2CD83DFE813F0E502FD
:1023B000CB03CB035403CB03CB03CB03CB03CB0324
:1023C000CB0359030D03CB031E02ED02CB0308031D
:1023D0003F033F033F033F033F033F033F033F03ED
:1023E0003F03CB03CB03CB03CB03CB03CB03CB0309
:1023F000CB03CB03CB034E036703CB036703CB03B2
:10240000CB03CB03CB03B003CB03CB036F00CB03D6
:10241000CB03CB03CB03CB035900CB03CB03230369
:10242000CB03CB03CB03CB03CB03CB03CB03CB033C
:10243000CB03CB0329037802670367036703BC025E
:102440007802CB03CB03C102CB03CE02710012038F
:102450004B02CB035702CB035B00CB03CB0323021E
:102460004BF0100B1BF0200F40F061830A9A1BF019
:10247000100F134640F0CA851BF0400F00F0C685D0
:1024800014880432002501230A9214E04BF0100B4B
:102490001BF0200340F040831BF0100240F0A585A4
:1024A0001BF0400300F0A1850A9913460A46043246
:1024B0000C880A9200254FF0000A8DF867A0059954
:1024C0004A1C00F010822BF08002029254EA0502AE
:1024D00040F00F82002940F07C84002B40F03A85C8
:1024E0001BF00103099300F076863EAF302307F816
:1024F000413D059B099A9342B8BF134603930023BD
:102500000C93BAF1000F02D0039B01330393029B9B
:1025100013F002030B9302D0039B02330393029B3D
:1025200013F0840540F02983089B039AA3EB020B68
:10253000BBF1000F40F32183BBF1100F2399229AC6
:102540002CDD43461024A846DDF810A0069D0AE0C5
:102550000000000000000000ABF1100BBBF1100FF9
:1025600003F1080318DD0132B94822921031072A1D
:10257000239183E81100EFDD21AA2946504604F09B
:10258000F5F8002840F07483ABF1100BBBF1100F8D
:102590002399229A2EABE6DC454698460132AC4B95
:1025A00022920BEB0104072A239488E8080800F321
:1025B000D6849DF867A008F10808BAF1000F0ED084
:1025C000229B013301340DF167010122072B239473
:1025D000229388E8060000F3138408F108080B9B97
:1025E0006BB1229B013302341AA90222072B2394D8
:1025F000229388E8060000F30F8408F10808802D74
:1026000000F03883059B099AA3EB020ABAF1000F88
:102610003BDDBAF1100F229B8E4D2BDD4246214649
:10262000B0464FF0100B2E46049C069D06E0AAF122
:10263000100ABAF1100F02F1080217DD0133103150
:10264000072B2391229382E84008F0DD21AA294636
:10265000204604F08BF8002840F00A83AAF1100A03
:10266000BAF1100F2399229B2EAAE7DC35460C46BF
:102670004646904601335444072B2394229388E81E
:10268000200400F3B28308F10808029BDB0500F187
:102690008F82229B0999C8F8007001330C44072BE4
:1026A0002394C8F80410229300F37E8308F10808ED
:1026B000029B59073BD5089B039A9D1A002D36DDD6
:1026C000102D229B21DD1026049FDDF818A004E0C8
:1026D000103D102D08F1080817DD01335C4A2293E4
:1026E0001034072B239488E84400F1DD21AA5146D9
:1026F000384604F03BF8002840F04982103D102D88
:10270000239C229B0DF1B808E7DC0133504A229349
:102710002C44072B239488E8240008DD21AA06997D
:10272000049804F023F8002840F05083239C079B72
:10273000089A03998A42ACBF9B185B180793002C38
:1027400040F03C83002322930DF1B808F3E5514695
:10275000049801F0A5F8002838D0DAF86430DD07D5
:1027600004D4BAF80C309C0540F1D9854FF0FF3302
:10277000079307983FB0BDE8F08F21AA0699049807
:1027800003F0F4FF002840F021830DF1B808F1E5D3
:10279000049802F031FA99E5BAF90E20002AFFF602
:1027A000BAADDAF86420D00705D4990503D4DAF875
:1027B000580002F085FD2B464A465146049801F028
:1027C0002DF8079007983FB0BDE8F08FBAF80C30AD
:1027D0009CE5DAF8580002F071FDBAF90C2093B2CA
:1027E0007FE508980A93404208904BF0040B99F853
:1027F0000060D3E5002A40F0EC87174B12931BF0E2
:10280000200F40F0CD840A9A1BF0100F134640F0C1
:10281000E7831BF0400F00F0E383043314880A932E
:1028200000251BF0010F00F02B8354EA050300F094
:10283000278330238DF868308DF869604BF0020BE8
:10284000022338E64BF0200B99F80060A6E500BFA4
:102850008C7E00009C7E00006C7E00000A9A176847
:1028600000248DF86740151D002F00F05C86059A46
:10287000531C00F0DA852146384603F051F8002851
:1028800000F0D686C31B099305940A95CDF808B0CD
:1028900023EAE37303930C949DF867A031E6002AC2
:1028A00040F0A2871BF0200F40F088841BF0100F2F
:1028B00040F0A3831BF0400F00F09F830A99B1F909
:1028C00000400431E51722462B460A91002A73F195
:1028D0000003C0F2908405999DF867A04A1C4FF050
:1028E00001037FF4F0AD54EA050200F07482CDF8E4
:1028F00008B0012B00F01083022B40F09D8212984B
:102900002EAF230904F00F0143EA05732A091C4680
:102910001546435C07F8013D54EA0503F1D12EAB9F
:10292000DB1B0993E5E54BF0400B99F8006035E5BA
:1029300099F800606C2E03BF99F801604BF0200BF2
:1029400009F101094BF0100B28E5002A40F05C87E3
:102950001BF0200F40F04D851BF0100F40F005815B
:102960001BF0400F00F001810A9A136804320A92AA
:10297000BDF81C201A80DEE499F8006000297FF47D
:102980000DAD0122202109E599F800602A2E09F1F8
:10299000010000F0FC86A6F13003092B814698BFA8
:1029A000002000F2518619F8016B00EB800003EB68
:1029B0004000A6F13003092BF5D90590F0E44BF067
:1029C000800B99F80060E9E499F8006001222B215E
:1029D000E4E40A9AB24B1468129378263023043246
:1029E0008DF868304BF0020B0A9200258DF8696073
:1029F000022360E5002A40F00387AA4B1293FEE60B
:102A00000A99CDF808B00A688DF8902000230A468C
:102A10009A468DF86730043201230393CDF814A051
:102A2000CDF830A00A92099324AF70E5A6F13003E7
:102A3000002019F8016B00EB800003EB4000A6F1C9
:102A40003003092BF5D90890AAE4002A40F0D48677
:102A50004BF0100B26E74BF0010B99F800609DE45A
:102A60000A9C2368089318460028234603F10403B0
:102A7000FFF6B7AE0A9399F800608FE4002A40F0A1
:102A8000AC860A9D1BF0080F05F1070500F03C8499
:102A900025F0070393ED007B8DED0E7B03F108021B
:102AA0000A92DDE90E1222F0004314911593DDE93C
:102AB00014454FF0FF32204629467B4B04F058FD69
:102AC000002840F0A2834FF0FF32774B2046294682
:102AD00004F030FD002840F0988300220023DDE957
:102AE0000E0104F01DFD002840F037849DF867A01A
:102AF0006E4F6F4B032200212BF080000392059153
:102B00000290472ED8BF1F4609920C91F9E44BF072
:102B1000080B99F8006041E40A9D073525F007038A
:102B200003F10802D3E900450A920023C3E40A9D99
:102B3000073525F0070303F10802D3E900450A929F
:102B40000123B8E4002A40F05386C6B100230122D5
:102B50009A4603928DF89060CDF808B08DF86730F2
:102B600005930C93099224AFD1E40A9A13680432B6
:102B70000A92079A1A60FFF7DEBB239C1DE5239B90
:102B8000DDF818A0002B40F0698500232293DAF8C5
:102B9000643013F0010FBAF80C3002D19A0540F1FD
:102BA00048825B063FF5E2AD07983FB0BDE8F08F85
:102BB000652E40F3B18000220023DDE90E0104F010
:102BC000A5FC002800F05F81229B3A4AC8F800204B
:102BD000013301340122072B23942293C8F80420E7
:102BE00000F3C48308F108081B9B0D9A239C9342B1
:102BF00003DB029BDF077FF55BAD229B1099119AE7
:102C0000C8F8002001330C44072BC8F804102394A3
:102C1000229300F3FD8308F108080D9B5E1E002E31
:102C20007FF746AD102E229B234D40F3CF81102716
:102C3000DDF810A0DDF818B005E008F10808103E36
:102C4000102E40F3C38101331034072B23942293B9
:102C500088E8A000F1DD21AA5946504603F086FD20
:102C6000002840F0D283239C229B0DF1B808E6E7B0
:102C7000AA468CE7089B039AA3EB020ABAF1000F5D
:102C80007FF7C0ACBAF1100F229B0B4D38DD4246E6
:102C90002146B0464FF0100B2E46049C069D14E0D2
:102CA0006C7E0000587E0000FFFFEF7F4C7E00002E
:102CB000487E0000887E00009C7E0000AAF1100A79
:102CC000BAF1100F02F1080216DD01331031072BA3
:102CD0002391229382E84008F0DD21AA294620466C
:102CE00003F044FD0028C3D1AAF1100ABAF1100F75
:102CF0002399229B2EAAE8DC35460C464646904690
:102D000001335444072B2394229388E8200400F3D2
:102D1000658208F1080875E40D9B229E012B40F3A3
:102D2000FE81013601340123072E23942296C8F830
:102D30000070C8F8043000F30F8208F10808109AF8
:102D4000119BC8F8003001361444072E23942296B4
:102D5000C8F8042000F30D8208F1080800230022BF
:102D6000DDE90E0104F0D2FB0D9B002840F0068146
:102D7000013B013601371C44072E22962394C8F8E4
:102D80000070C8F8043000F3DA8108F10808139ADB
:102D9000C8F80420013614441DAB072E2394229654
:102DA000C8F800307FF782AC21AA0699049803F096
:102DB000DDFC58B9239C0DF1B80879E421AA0699E5
:102DC000049803F0D3FC00283FF4BCACDDF818A055
:102DD000DDE6DDF808B0012B00F02181022B27D1C0
:102DE000CDF808B00024002589E521AA06990498A9
:102DF00003F0BCFC0028E9D1239C0DF1B80844E4A1
:102E000021AA0699049803F0B1FC0028DED1239C86
:102E10000DF1B808FFF7E3BB21AA0699049803F067
:102E2000A5FC0028D2D1239C0DF1B808FFF7E7BB21
:102E3000CDF808B0002400252EA900E03946E208AC
:102E400042EA4572E80804F00703054614463033A9
:102E500054EA050201F8013C01F1FF37EED1029A74
:102E6000D2077FF55CAD302B3FF459AD30230239EA
:102E700007F8013C2EAB5B1A09930F46FFF739BBED
:102E80000223FFF718BB1B99002940F37A820C9BA1
:102E90000D9A9342A8BF1346002B1E460DDD229BC0
:102EA000C8F8007001333444072B2394C8F8046039
:102EB000229300F32C8308F108080C9B002EA8BF76
:102EC0009B1B002B1E4640F3D080102E229BBA4D38
:102ED00040F3B78022464FF0100ADDF810B0069C90
:102EE00005E008F10808103E102E40F3A9800133D8
:102EF0001032072B2392229388E82004F1DD21AAC7
:102F00002146584603F032FC002840F02A83239AD9
:102F1000229B0DF1B808E6E7002D08BF0A2C7CD3F0
:102F20002EAF204629460A22002304F05FFB3032F0
:102F300007F8012D2046294600230A2204F056FBFB
:102F400004460D4654EA0503EBD12EABDB1B099377
:102F5000FFF7CFBA059B09932EAFFFF7CABA21AA94
:102F60000699049803F002FC00287FF42FAF9DF827
:102F700067A0239C0DF1B808FFF71FBB5F1E002F51
:102F80007FF705AF102F8C4D40F300814FF0100AF2
:102F9000DDF810B005E008F10808103F102F40F3ED
:102FA000F58001361034072E2394229688E82004F9
:102FB000F1DD21AA0699584603F0D8FB00287FF4DA
:102FC00005AF239C229E0DF1B808E6E70133344497
:102FD000072B2394229388E860007FF767ABE3E632
:102FE0001C6804330A9300251BE40A990A4604323C
:102FF0000C680A920025FFF75EBA0A9A1468134615
:103000000433E5170A9322462B465FE404321C681A
:103010000A9201230025FFF74EBADDF808B0CDF87B
:1030200008B03EAF3034012307F8414D0993FFF754
:1030300060BADAF8580002F043F9BAF80C30B0E59B
:10304000144601333444072B2394229388E860000C
:1030500040F3738121AA0699049803F087FB0028A6
:103060007FF4B4AE239C0DF1B8081B9B0D9A9342DC
:1030700080F25E81229A10981199C8F800100132EE
:103080000444072A2394C8F80400229200F35881CC
:1030900008F108080D9A0C99D31A561A9E42A8BF37
:1030A0001E46002E0EDD229AC8F8046001320F443D
:1030B0003444072AC8F800702394229200F3428215
:1030C00008F10808002EACBF9E1B1E46002E7FF79D
:1030D000EFAA102E229B384D7FF778AF1027DDF82E
:1030E00010A0DDF818B005E008F10808103E102E19
:1030F0007FF76CAF01331034072B2394229388E8B9
:10310000A000F1DD21AA5946504603F02FFB00280C
:1031100040F07B81239C229B0DF1B808E6E7029BDF
:10312000D8073FF5FEAD013601340123072E239465
:103130002296C8F80070C8F804307FF726AE21AA9E
:103140000699049803F012FB00287FF43FAE239CFD
:10315000229E0DF1B8081AE621AA0699049803F0F8
:1031600005FB00287FF432AE239C229E0DF1B808A7
:10317000E5E521AA0699049803F0F8FA00287FF4FF
:1031800025AE239C229E0DF1B808E7E501363C44AC
:10319000072E2394229688E8A0007FF7F6ADCEE7AD
:1031A0000A9D073525F0070303F108020A92D3E9C7
:1031B0000045FFF736BB00BF9C7E00000A9D073527
:1031C00025F00705D5E9002305F108010A91144609
:1031D0001D46FFF77BBB2EAFFFF78BB921AA0699DF
:1031E000049803F0C3FA00287FF4F0AD239C0DF19E
:1031F000B808FFF707BA4FF02D0A644265EB4505A2
:103200008DF867A00123FFF75AB9DDE90E010246E8
:103210000B4604F0ADF9002840F08982059B01338C
:1032200026F0200A00F09F80BAF1470F04D1059BD9
:10323000002B08BF012305930F9B4BF48072002BDA
:103240000292C0F2A9819DED0E7B8DED167B0023CD
:103250000B93662E00F08881462E00F0DA81BAF1D9
:10326000450F0CBF059B059D049808BF5D1C1FAA58
:103270001CAB019200932A461BAB02219DED160B5D
:1032800000F08AFC672E074640F0AA811BF0010F70
:1032900000F043827C1900220023DDE9160104F0CE
:1032A00035F9002840F031811F9BA34206D230211E
:1032B0005A1C1F9219701F9B9C42F9D8DB1BBAF154
:1032C000470F0D9300F0C480652E40F37F821B9B57
:1032D0000C93662E00F076810D9B0C9A1946914254
:1032E00000F363811BF0010F40F00E8222EAE273CB
:1032F0000393099267260B9B002B40F0A180059356
:103300009DF867A0FFF7FDB825F0070595ED007B58
:1033100005F108038DED0E7B0A93FFF7C2BBDAF8C7
:10332000580001F0CDFF4FF0FF330793FFF721BAAC
:10333000029AD5077FF5AEAE9CE608F1080894E640
:1033400021AA0699049803F011FA00287FF43EADF3
:103350001B9B239C0DF1B8089CE64FF02D0A8DF8BD
:1033600067A0FFF7C5BB0623059365E721AA069969
:10337000049803F0FBF900287FF428AD0DF1B8089C
:1033800032E4229BB24AC8F8002001330134012202
:10339000072B23942293C8F8042000F32D8108F111
:1033A000080829B90D9B1BB9029BDE077FF580A990
:1033B000229B1098119AC8F800200133024622443B
:1033C000072B2392C8F80400229300F3778108F1B9
:1033D00008080029C0F24C810D99C8F8007001332B
:1033E0008C18072B23942293C8F804107FF75EA94A
:1033F000DAE40A9A07991368CD1708460432294679
:103400000A92C3E90001FEF796BFDA46FFF7BFBB99
:1034100021AA0699049803F0A9F900287FF4D6ACF4
:10342000239C0DF1B808FFF7F8BB38460594FEF76A
:10343000C7FE0A950990CDF808B00346FFF728BAF1
:103440004FF02D0A00238DF867A00593FFF75CB8B5
:103450001B9B0C931A46033304DB059B19469142D0
:10346000BFF63AAF023E0C9B8DF87460013B002B17
:103470001B93BDBF0C9BC3F101032D222B22092BF3
:103480008DF8752040F34B810DF183042046714D7A
:1034900000E0104685FB0312D917C1EBA20101EB36
:1034A0008102A3EB42023032092900F8012C0B46BD
:1034B00000F1FF32EDDC30330238D9B2844202F839
:1034C000011C40F28E810DF17600134601E013F8E5
:1034D000011B00F8011BA342F9D101339B1A0DF126
:1034E000760213441DAA9B1A0D9A1393012A1344C2
:1034F000099340F34281099B109A1344099323EAEC
:10350000E373039300230C93F5E62346D6E621AA42
:103510000699049803F02AF900287FF457AC239CFD
:103520000DF1B808C9E4059B0C97062B28BF0623AC
:103530000597BA4603930A95CDF808B00993464F0C
:10354000FEF7DFBF21AA0699049803F00FF90028BF
:103550007FF43CAC1B9B0D9A239CD31A0DF1B80849
:10356000B0E5A246FFF713BB059C04981FAA1CAB4D
:103570000192009322461BAB03219DED160B00F038
:103580000BFB2346074604191D463B78302B00F001
:10359000D4801B9D2C447EE6DDE90E1202F100432F
:1035A00017932D2316910B9353E6109A0D9B1344FA
:1035B0000C9A0993002A40F3D88023EAE37303931B
:1035C000672698E6002B40F3EF80059A002A40F02A
:1035D000C2801BF0010F40F0BE80039309938AE67E
:1035E000472E7FF457AE1BF0010F00F0E780462E08
:1035F00007EB0504C9D04EE621AA0699049803F00A
:10360000B5F800287FF4E2AB1B99239C0DF1B808B4
:10361000C7E6059D04981FAA1CAB019200932A4699
:103620001BAB03219DED160B00F0B6FA0746DEE753
:10363000059B0393099305900A95CDF808B00C906B
:103640009DF867A0FEF75DBF00230593FEF7A8BEB7
:10365000887E000067666666807E0000049821AA66
:10366000514603F083F800283FF48FAAFFF78FBA82
:103670004E421031664D2FDA1024DDF810A0DDF82F
:1036800018B004E008F10808103E102E24DD0133C4
:103690001032072B23922293C8F80050C8F8044038
:1036A000F0DD21AA5946504603F060F800287FF467
:1036B000ACAE239A229B0DF1B808E5E721AA069942
:1036C000049803F053F800287FF480AB1B99239AE9
:1036D000229B0DF1B8087CE601333244072B88E8C1
:1036E00060002392229308F108087FF775AE21AAA3
:1036F0000699049803F03AF800287FF467AB239A00
:10370000229B0DF1B80867E60C9B109A13440993AD
:1037100023EAE37303936726EDE51F9BCEE5303381
:1037200030228DF877308DF876201EABDAE6394FEF
:10373000394B9DF867A0FFF7DDB900220023DDE9D2
:10374000160103F0E3FE00287FF423AFC5F1010565
:103750001B952C449FE50C9B109A1344059A1A4420
:1037600022EAE27309920393C5E50C9B099AC3F11F
:1037700001031A44134609921FE71BF001030C933F
:103780007FF4B9AE099B23EAE3730393B3E50A9C84
:1037900099F80160236843EAE373059323460433F1
:1037A00081460A93FEF7FABD059B13B91BF0010F82
:1037B00002D0109B0133D1E701230EE71F9BBAF122
:1037C000470FA3EB07030D933FF442AE1B9B0C93F3
:1037D00049E68DF86710FFF710B88DF86710FFF70E
:1037E00050B90DF176037DE68DF86710FFF75AB8F2
:1037F0008DF86710FFF7A9B98DF86710FFF728B9A2
:103800008DF86710FFF7F9B88DF86710FFF7A0B8CB
:103810009C7E0000547E0000507E00002DE9F041A7
:103820000C46ADF58D6D8989666EE589199621F096
:1038300002010646E069ADF80C1017464FF48061AE
:10384000626AADF80E5098461AAD0023079016A88C
:1038500009920693009504950291059101F02AFDC5
:1038600043463A4669463046FEF71AFD051E07DB19
:103870003046694601F056F9002818BF4FF0FF3571
:10388000BDF80C305B0603D5A38943F04003A38148
:10389000169801F011FD28460DF58D6DBDE8F081FB
:1038A00038B5304B1B6805460C4613B19A6B002A9D
:1038B00038D0B4F90C2093B218070CD52069A8B100
:1038C00013F001021ED0636900225B42A361A26073
:1038D000F0B1002038BDD9063CD5580726D4206960
:1038E00042F00803A3819BB20028E9D103F42072BF
:1038F000B2F5007FE4D02846214601F011FDA389EE
:103900002069DDE7990758BF6269A2600028E0D10D
:10391000B4F90C301A06DDD543F04003A3814FF013
:10392000FF3038BD184601F067F9C2E7216B51B18D
:1039300004F14003994204D0284601F0FFF9B4F99C
:103940000C200023236300232069636022F02402FB
:103950002060C5E742F0400209232B604FF0FF30A2
:10396000A28138BD2C000020024B13B1024800F0A8
:1039700079B8704700000000694C00002DE9F04F55
:10398000354B85B00E460190186801F097FC334B1B
:103990001B68029303F5A4730393029BD3F8487149
:1039A00037B3DDF80CA04FF00109D3467C68651EE3
:1039B0000ED4013407EB84044FF00008FEB1D4F8B4
:1039C00000319E421BD0013D6B1CA4F10404F5D1D3
:1039D000234B6BB17B68002B39D13B6843B1384630
:1039E000CBF80030AFF30080DBF80070002FDDD1A2
:1039F000194B186805B0BDE8F04F01F061BC7B6859
:103A00002268013BAB420CBF7D60C4F80080002AF5
:103A1000D9D0D7F88811D7F804A009FA05F30B42DA
:103A20000FD0D7F88C110B420DD1D4F8801001982B
:103A300090477B685345B0D1DBF80030BB42C2D021
:103A4000ABE79047F5E7D4F880009047F1E7BB4635
:103A50003F68002FAAD1CBE758040020407E000029
:103A600000000000002301461A46184602F09EBEE0
:103A700002690B69934200F38D802DE9F04F03F149
:103A8000FF3801F1140700F1140B57F828205BF8F8
:103A900028304FEA880483B00132B3FBF2F90BEB14
:103AA0000403009407EB040A0193B9F1000F39D025
:103AB00000252E46BC46DE465CF8044BDEF800309E
:103AC000A2B209FB0255220C2C0C09FB0242ADB23A
:103AD000751B96B2C6EB134615FA83F306EB234625
:103AE0009BB243EA0643E2454FEA12454EF8043BD7
:103AF0004FEA2646E0D2009B5BF8033093B9019C65
:103B0000231F9B450CD254F8043C4BB9A4F1080385
:103B100002E01A68043B1AB99B4508F1FF38F8D354
:103B2000C0F81080044602F053FA00282EDB09F199
:103B300001095D46002357F8041B28688AB29A1AC7
:103B40000B0C12FA80F2C3EB104303EB224392B248
:103B500042EA0342BA4545F8042B4FEA2343EAD22E
:103B60005BF828200BEB880382B91A1F93450BD210
:103B700053F8042C42B9083B02E01A68043B1AB916
:103B80009B4508F1FF38F8D3C4F81080484603B0CD
:103B9000BDE8F08F002070472DE9F04F57EC106B17
:103BA00097B0056C0291044693460393CDE90067F4
:103BB0004DB1426C6A6001239340AB60294602F02C
:103BC0002FF800232364DDE90023002B994638DB1E
:103BD000209A00231360A04B33EA090317D0DDE9D4
:103BE0000067002200233046394603F08FFC8046F0
:103BF00000282FD0039A01231360219B002B00F093
:103C0000C48096481860013817B0BDE8F08F039A59
:103C100042F20F731360009B6BB9C9F3130353B9DE
:103C2000219B8F48002BEFD000F10803219A1360ED
:103C300017B0BDE8F08F219B8A48002BE4D0C31C4D
:103C4000F4E7019A22F00049209ACDF8049001236C
:103C50001360C0E714AA15A947EC106B204602F0C8
:103C600057FA5FEA1955824673D0C7F3130343F03E
:103C70007F51CDF84080DDF850803046A5F2FF3509
:103C800041F440110022784B03F024F86CA3D3E9EF
:103C9000002303F0D3F96CA3D3E9002303F01CF84D
:103CA000064628460F4603F063F969A3D3E90023CB
:103CB00003F0C4F902460B463046394603F00CF8CF
:103CC00006460F4603F06AFC0022049000233046AB
:103CD000394603F025FC002840F06F81049E162E23
:103CE00000F25981614B03EBC603D3E90001DDE922
:103CF000002303F033FC002800F0C481731E0493FA
:103D000000230C93A8EB05056B1E059300F14F8172
:103D100000230693049B002BC0F24081059A0B936D
:103D200011461944002305910A93029B092B2ED8B2
:103D3000052B40F35186043B02930027029B023B74
:103D4000032B00F23386DFE813F0D603CB02E30344
:103D50006404DDF85080159D454405F23243202B64
:103D600040F38A81C3F1400309FA03F9009B05F28D
:103D7000124023FA00F040EA090003F0E9F80123B9
:103D8000013DA1F1F87110937CE739483CE700212F
:103D9000616420468B4601F01DFF4FF0FF3308930E
:103DA0000D93012307902064CDF808B00993159B6B
:103DB000002BC0F2D080049A0E2A00F3CC802B4B4B
:103DC000BBF1000F03EBC203D3E90089C0F2BE834D
:103DD000DDE9006742464B463046394603F058FA63
:103DE00003F0DCFB834603F0C3F842464B4603F086
:103DF00025F90B4602463946304602F06BFF079D17
:103E00000BF130032B70089B012B06460F4605F182
:103E1000010561D00022174B03F010F900220023A6
:103E200006460F4603F072FB002840F08180CDF873
:103E300000A00294DDF81CA0089C28E0AFF30080ED
:103E400061436F63A787D23FB3C8608B288AC63FA0
:103E5000FB799F501344D33F0000F07F897E000020
:103E6000AC7E0000B87E00000000F83FE87E000055
:103E7000887E00000000244003F0E0F800220023C8
:103E800006460F4603F042FB002840F0C583424639
:103E90004B463046394603F0FBF903F07FFB83467F
:103EA00003F066F842464B4603F0C8F802460B465C
:103EB0003046394602F00EFF0BF1300E05F801EBEB
:103EC000A5EB0A0EA64506460F464FF000026E4BC4
:103ED000D2D1DDF800A0029C32463B46304639463E
:103EE00002F0FAFE06460F4602460B464046494699
:103EF00003F016FB48B932463B464046494603F0BC
:103F000005FBA8B11BF0010F12D015F8018C079A20
:103F10006B1E04E09A4200F02D8413F8018DB8F175
:103F2000390F03F10105F5D008F1010883F800808D
:103F30005146204601F074FE0022049B2A70039A29
:103F400001331360219B002B00F0A38307981D60B1
:103F500017B0BDE8F08F099A002A40D0029A012AD2
:103F600040F31C83089B0A9A5F1EBA42C0F29483F6
:103F7000D71B089B002BC0F27E84069D089B069AE7
:103F80001A440692059A01211A442046059201F02E
:103F9000E1FE064626E001230C93B3E6069A049B55
:103FA000D21A5B420A93002306920B93BDE6C5F139
:103FB0000103069300230593ACE6DDF81090484614
:103FC00002F0D6FF02460B463046394603F09EFA11
:103FD00000287FF483AE09F1FF3304937EE60A9F45
:103FE000069D099E002D0CDD059900290B4608DD74
:103FF000A942069AA8BF2B46D21AED1ACB1A0692EE
:1040000005930A9BD3B1099B002B00F0C082002FBF
:1040100010DD31463A46204601F038FF524601464F
:104020000646204601F0A0FE51468046204601F09B
:10403000F7FDC2460A9BDA1B40F0AA820121204606
:1040400001F088FE0B9B002B81461FDD01461A46BE
:10405000204601F01BFF029B012B814640F35B824F
:104060004FF00008D9F8103009EB8303186901F00C
:1040700021FEC0F1200013E0C3F12009009B03FAE8
:1040800009F07AE60C903DE600002440029B012BEB
:1040900040F38D824FF000080B9B0120002BE1D1F3
:1040A000059A104410F01F0000F0A180C0F1200319
:1040B000042B40F38C84069BC0F11C000344069340
:1040C0001346034405440593069B002B05DD51462A
:1040D0001A46204601F02AFF8246059B002B05DD8B
:1040E00049461A46204601F021FF81460C9B002BD1
:1040F00040F08680089B002B40F36982099B002BCF
:1041000000F09880002D05DD31462A46204601F05A
:104110000DFF0646B8F1000F40F03683B046089B0D
:10412000079A013BD3180893009B03F001030993FE
:10413000174649465046FFF79BFC31460546504618
:1041400001F046FF424649468346204601F05CFFA7
:1041500005F130020092C2680146002A40F0328226
:104160000690504601F034FF069B05901946204604
:1041700001F056FD059A32B9029B23B9099B002B29
:1041800000F0DE83029ABBF1000FC0F2A28205D1DB
:10419000029B1BB9099B002B00F09B82002A00F3B5
:1041A00007839DF800303B70089B07F1010B9F428D
:1041B0005D4600F00883514600230A22204601F0A4
:1041C00039FD4645824631464FF000034FF00A0262
:1041D000204600F0F18101F02DFD41460646002306
:1041E0000A22204601F026FD5F468046A1E71C20FA
:1041F000069B03440693059B03440544059363E72C
:104200004946504601F0E4FE0028BFF673AF049F14
:10421000514600230A222046013F049701F00AFD7F
:10422000099B8246002B40F0A7830D9B002B40F397
:10423000B0830893DDF81CB0DDF820805D4602E015
:1042400001F0F8FC824649465046FFF711FC00F1A8
:10425000300705F8017BA5EB0B0343454FF00A023D
:104260004FF0000351462046EADB079B089A00976F
:10427000012AACBF9B1801331D464FF0000B51467D
:104280000122204601F052FE4946824601F0A0FE7E
:10429000002840F33A8215F8012C07996B1E04E0C0
:1042A0008B4200F0AF8113F8012D392A03F101058B
:1042B000F6D001321A704946204601F0B1FC002EBA
:1042C0003FF436AEBBF1000F05D0B34503D05946DD
:1042D000204601F0A5FC3146204601F0A1FC27E66E
:1042E00000230993049B5B440D930133012B1E466D
:1042F0001D460893B8BF01260021172E61640AD914
:10430000012204235B0003F114008642114602F1EE
:104310000102F7D26164204601F05CFC0E2D07908B
:1043200020643FF644AD002F3FF441AD04990029CD
:104330009DED007B40F3F681B94B01F00F0203EBDA
:10434000C2030D11D3E90067EB0640F1AD81B54B17
:1043500051EC170BD3E9082302F09AFFCDE90E01C7
:1043600005F00F054FF003098DB1DFF8B882E807BB
:1043700009D530463946D8E9002302F05FFE09F13D
:10438000010906460F466D1008F10808EFD13B46BB
:104390003246DDE90E0102F07BFF074688460C9BA2
:1043A00043B10022A04B3846414603F0B9F800283B
:1043B00040F07382484602F0DBFD3A46434602F085
:1043C0003DFE9A4B002202F087FC089B0546A1F1B6
:1043D0005076002B00F04081049BDDF82090119373
:1043E000099B002B00F0F6818D4B914903EBC9032B
:1043F00053E90223002002F04BFF2A46334602F025
:1044000069FCCDE90E014146384603F0C7F8054680
:1044100002F0AEFD02460B463846414602F05AFC19
:1044200030355FFA85F8079D06460F4685F800800F
:1044300002460B46DDE90E01013503F08FF8002836
:1044400056D132463B460020774902F043FC0246F3
:104450000B46DDE90E0103F081F8002840F062828E
:10446000B9F1010F3FF4A3AC079BCDF848A0CDF8FC
:104470004CB09944A046DDE90EAB0DE000206A493E
:1044800002F028FC52465B4603F04AF8002840F050
:1044900044824D4500F04A82504659460022654B01
:1044A00002F0CCFD0022634B82468B4630463946F3
:1044B00002F0C4FD0F46064603F070F8044602F011
:1044C00057FD02460B463046394602F003FC3034B5
:1044D000E4B252465B4605F8014B06460F4603F030
:1044E0001FF832463B460028C8D0DDF848A04446B5
:1044F000119B04931CE500230993BBF1000F40F3CB
:10450000DA805E465D46CDF834B0CDF820B0F3E6F3
:1045100001230993F1E7009B002B7FF4A1ADDDE9B6
:104520000012C2F31303002B7FF4B4AD22F0004756
:104530003F0D3F05002F00F00082069B01330693DC
:10454000059B013305934FF00108A5E5089B002B5F
:104550003FF73EAC40F0998049460022364B40463A
:1045600002F06CFDDDE9002302F0EEFFDDF82090A3
:104570004E4600283ED06FEA0B03079D0493494640
:10458000204601F04DFB002E3FF4D2ACA3E60A9A80
:104590005146204601F07AFC82464FE5109A002AE7
:1045A00000F06F8103F233430A9F069DE7E4009B0E
:1045B000002B7FF46FADB2E701F03CFB5F4606468F
:1045C0008046B6E5204601F02BFB0122DBE5029B8D
:1045D000022B7FF793AD089B002BCCD149460522D7
:1045E000204601F027FB01468146504601F0F0FCD1
:1045F0000028C0DD049A07993123013204920B7020
:104600004D1CBCE7049A01320492079A31231370BF
:1046100051E60123099365E6DDF800A0029C87E4DA
:10462000E87E0000C07E00000000F03F00001C405B
:104630000000E03F0000244000001440484602F023
:1046400097FC3A46434602F0F9FC0022C44B02F0C4
:1046500043FB0546A1F1507641460022C14B384646
:1046600002F038FB2A4633468046894602F076FF40
:10467000002840F0AB802A4606F1004340464946F8
:1046800002F04EFF00283FF492AB4FF000094E4677
:1046900071E70798FFF7B8BA0A9B0B9A0A97FB1ABB
:1046A0001A440B92002764E49DED007B4FF0020951
:1046B0008DED0E7B58E600216164204601F08AFAF8
:1046C0004FF0010B07902064CDF820B0CDF834B046
:1046D00029E6002A12DD51460122204601F026FC7F
:1046E0004946824601F074FC002840F33181009B6A
:1046F000392B00F0F78005F1310300939DF800306D
:104700003B70B3467D1C4646D5E504D1009BDB07D4
:1047100001D5C0E5154615F8013C302B05F1FF32F7
:10472000F8D0C8E500F0B480049B5D428E4B05F0E4
:104730000F0203EBC203D3E90023DDE9000102F01D
:104740007DFC2D110746884600F02881874E4FF0EA
:104750000209E90709D538464146D6E9002302F0A7
:104760006DFC09F10109074688466D1006F108063F
:10477000EFD114E6079930220A70049A15F8018CDB
:1047800001320492FFF7D0BB7168204601F022FA93
:10479000336902339A00054606F10C010C3001F032
:1047A0000FF929460122204601F0C0FB8046B6E4FD
:1047B000009B392B00F09680009B0133B3463B7081
:1047C0007D1C464677E5B346464658E54FF000095E
:1047D0004E460FE7644901EBC9012A46334651E9C9
:1047E000020102F02BFCCDE90E013846414602F0F1
:1047F000D5FE054602F0BCFB02460B463846414654
:1048000002F068FA079A3035B9F1010F15700646C3
:104810000F4602F101051CD0079B99440022544B1E
:104820003046394602F00AFC0F46064602F0B6FE54
:10483000804602F09DFB08F1300802460B463046E8
:10484000394602F047FA05F8018B4D4506460F46FA
:10485000E4D10022474BDDE90E0102F03DFA324679
:104860003B4602F05DFE002842D0119B049315F8F0
:10487000018CFFF74CBB069B089A9D1A0023FFF79B
:104880007EBB149B0A9F069DC3F13603FFF777BBDF
:10489000DDE900784FF0020981E5089B002B3FF429
:1048A000CDAE0D9B002B7FF782AA0022304B3846FD
:1048B000414602F0C3FB0746884609F1010002F0B9
:1048C00057FB3A46434602F0B9FB0022244B02F064
:1048D00003FA049ADDF83490013A0546A1F15076C6
:1048E00011927DE53922B3463A7046467D1CD4E4E8
:1048F000DDE90E2300201F4902F0ECF932463B4669
:1049000002F02CFE10B9FFF752BA154615F8013C1B
:10491000302B05F1FF32F8D0EAE54346DDF848A038
:10492000A0461C46119B0493FFF7F1BADDF848A09E
:10493000DDF84CB04446FFF73ABAB846FFF7ACBBD7
:10494000009B392BCED0BBF1000F3FF7D4AED5E69C
:104950007FF4D4AE009BDA077FF5D0AEC7E600BF88
:1049600000001C4000001440E87E0000C07E0000F3
:10497000000024400000E03F314600230A22204688
:1049800001F058F90D9B002B06460ADD0893FFF74E
:10499000B9BB029B022B22DC0D9B4AE44FF00209BB
:1049A000FDE4029B022B1ADC0D9BEFE700256564FA
:1049B0002946204601F00EF94FF0FF3308930D937E
:1049C00001230790AB4620640993FFF7F0B93FF449
:1049D0007BABC0F13C000BE40127FFF7AFB90D9BA7
:1049E0000893F8E5B1F90C309AB22DE9F0410D4683
:1049F000110780463AD46A6843F40063002AAB8109
:104A00006FDDAC6A002C49D000229BB2D8F8006060
:104A1000C8F8002013F4805267D02A6D5F0705D5CF
:104A200069682B6B521A0BB1EB6BD21A0023E96940
:104A30004046A047441C3CD0B5F90C302A692A6096
:104A400023F400630022AB81DB046A6047D4296B46
:104A5000C8F8006011B305F14003994202D0404606
:104A600000F06CF900202863BDE8F0812E69AEB13A
:104A70002C682E6091070CBF6B690023A41BAB60F0
:104A80000AE0234632466F6AE9694046B847002883
:104A9000A4EB0004064404DD002CF2DC0020BDE899
:104AA000F081AB8943F04003AB814FF0FF30BDE8AC
:104AB000F081D8F800401D2CF3D8194BE340DB43BC
:104AC00013F00103EDD1B5F90C206B6022F4006303
:104AD0002969AB81DA042960B9D5002CB7D12865E2
:104AE000B5E7EA6B002A8CDCD8E70123E969404688
:104AF000A047431C024602D0AB89AC6A8EE7D8F8C7
:104B00000030002BF8D01D2B01D0162B02D1C8F895
:104B10000060C3E7AB8943F04003AB81BDE8F0819F
:104B20000100402038B50D46044608B1836BBBB187
:104B3000B5F90C0088B16B6EDB0701D4810517D580
:104B400020462946FFF74EFF6B6EDA07044602D473
:104B5000AB899B0507D5204638BD0446204638BDA5
:104B600000F04AF8E4E7A86D00F0AAFB204638BD43
:104B7000A86D00F0A3FBE3E720B1054B01461868E0
:104B8000FFF7D0BF034B0449186800F05BBB00BFC0
:104B90002C000020407E0000254B0000014900F061
:104BA00051BB00BFF568000010B5002304468181A9
:104BB000C281036043608360436603614361836134
:104BC000194608225C30FDF729FA07480749084AC8
:104BD000084B2062E4616162A262E36204F1580062
:104BE000BDE8104000F066BB656600008966000005
:104BF000C5660000E566000010B50446124800F0E6
:104C00005DFBA26BD2B904F53B731048C4F8E832DF
:104C10000321C4F8E022E063C4F8E41260680421D0
:104C2000FFF7C2FF01220921A068FFF7BDFF0222A2
:104C30001221E068FFF7B8FF0123A3630248BDE833
:104C4000104000F03DBB00BF540A00209D4B000007
:104C5000014800F033BB00BF680A0020014800F0A3
:104C60002FBB00BF680A002038B50A4C0A4D641BF0
:104C7000A4100AD004F18043013B05EB8305013CFD
:104C800055F804399847002CF9D1BDE8384002F0B6
:104C90004BBE00BFE4090020E0090020F8B5244F16
:104CA0000C46064600F08AFFBB685D68C4F57E616D
:104CB0000F3125F00305294421F47F6121F00F0114
:104CC000A1F58054B4F5805F07DB0021304601F088
:104CD000B7FCBB682B44984204D0304600F074FF08
:104CE0000020F8BD6142304601F0AAFC01300DD031
:104CF000104BBA6819682D1B45F001053046091B99
:104D00005560196000F060FF0120F8BD00213046B9
:104D100001F096FCBA68831A0F2BDEDD064C0549BC
:104D2000246843F00103001B53600860D5E700BF0F
:104D30005C040020080A002064080020002944D0F8
:104D40002DE9F0410D46804600F038FF55F8047C0F
:104D5000694927F00103A5F10804E2188E6850683C
:104D6000B24220F003005ED0FE0750600BD455F82D
:104D7000087CE41B01F1080EA56875453B446DD025
:104D8000E768EF60BD6015186D68ED073ED543F02C
:104D900001026260E350B3F5007F17D2DB08581CB4
:104DA0009A104D6851F83070A7600123934001EBD1
:104DB000C0022B43083AE2604B6041F83040FC608F
:104DC0004046BDE8F04100F0FFBE70475A0A042A91
:104DD00052D89A0902F13907FF0002F13805C819C3
:104DE000CA59083890424FD0516821F003018B42D4
:104DF00032D292689042F7D1C368A060E3609C60B1
:104E0000C4604046BDE8F04100F0DEBE95683B4F0F
:104E1000BD42034440D0D068E86043F001028560A1
:104E20006260E350B7E7FF07034407D455F8082C46
:104E3000A41A1344A068E268C2609060304A126805
:104E400043F00100934260608C60B9D32D4B404623
:104E50001968FFF723FFB3E71046CDE7111849683B
:104E6000C90744D49168D268CA60034443F0010082
:104E700091606060E350A3E7142A16D802F15C0742
:104E8000FF0002F15B05AAE7AA1001234D689340D9
:104E90002B434B600346B0E743F001024C610C61C9
:104EA000E560A5606260E3508AE7542A06D81A0BD1
:104EB00002F16F07FF0002F16E0590E7B2F5AA7FDD
:104EC00006D8DA0B02F17807FF0002F1770586E7D2
:104ED00040F25450824206D89A0C02F17D07FF003E
:104EE00002F17C057BE74FF47E777E2577E743F080
:104EF00001016160136063E75C040020640400202A
:104F000068080020380A00209368002B73D02DE930
:104F1000F04F8B8983B00C4619070090164626D5B2
:104F2000226922B313F0020035682CD04FF000093B
:104F3000B04FC846B246B84543464A4628BF3B46EE
:104F40000098B8F1000F50D0E169666AB0470028B8
:104F500058DDDAF808301B1A8144A8EB0008CAF8BB
:104F60000830002BE7D1002003B0BDE8F08F2146C8
:104F70000098FEF795FC002840F03381A38935683E
:104F800013F00200D2D113F0010945D14F4601962A
:104F900037B39A05D4F8088040F183804745C3466B
:104FA000C0F0AB8013F4906F40F0AC802068BA463C
:104FB0005A46494600F09EFDA2682368A2EB08020B
:104FC0005B44A2602360019A9368A3EB0A03D14477
:104FD000A7EB0A079360002BC5D0A389002FD8D177
:104FE000D5F800906F680835D2E7D5F80090D5F86D
:104FF000048008359FE70020704721460098FFF79E
:1050000091FD70B3B4F90C3043F040034FF0FF3022
:10501000A38103B0BDE8F08F814633464E46A846D3
:105020009A464D464EB380B3206823696269B14504
:10503000CB4628BFB34698425F4604D9A3681344C1
:105040009B4500F3A68093454BDB1346676AE169F5
:1050500000982A46B847071ED4DDB9EB0709CCD023
:105060000120DAF80830DB1B3D44F61BCAF8083093
:10507000002B3FF478AF002ED5D108F1080313E9D7
:10508000600098460833002EF9D032460A2128469F
:1050900000F046FC002800F0A1800130A0EB0509DB
:1050A000C2E720682369984202D863699F425DD2B3
:1050B000B84528BFB8464246494600F01BFDA368E4
:1050C0002268A3EB08034244A36022600BB1C246EE
:1050D00079E721460098FFF725FD002892D1C246C6
:1050E00071E75A46294600F005FDA2682368A2EB45
:1050F0000B025B44A2602360AFE72068B846BA4663
:10510000BB4655E762692068216902EB4208A0EBC3
:10511000010A08EBD8780AF101004FEA6808384420
:105120004045424684BF804642465B0544D5114611
:10513000009800F03FF98346002855D05246216977
:1051400000F03EFCA38923F4906343F08003A38125
:105150000BEB0A00A8EB0A03C4F810B0C4F81480E3
:105160002060A360B846BA46BB4621E76FF0004115
:10517000B94228BF39464A4691FBF3F10098666A66
:1051800003FB01F3E169B047B0F1000A3FF71BAF41
:1051900038E71A462946019300F0ACFC2268019BCF
:1051A00000981A4422602146FFF7BCFC019B0028AE
:1051B0007FF428AF1F4650E7009801F007F88346B8
:1051C0000028C5D1009D21692846FFF7B7FDB4F935
:1051D0000C300C2223F080032A6015E706F1010948
:1051E00022E74FF0FF30BFE6009A0C231360B4F9BA
:1051F0000C3009E700FCFF7F2DE9F04110F538770E
:105200001BD0884600267D68BC68013D0FD4A38969
:10521000012B05F1FF3506D9B4F90E3001332046D4
:1052200001D0C04706436B1C04F16804EFD13F680E
:10523000002FE8D13046BDE8F0813E463046BDE85B
:10524000F08100BF2DE9F84310F538771FD088466C
:1052500006464FF000097D68BC68013D11D4A38962
:10526000012B05F1FF3508D9B4F90E300133214681
:10527000304602D0C04749EA00096B1C04F16804BB
:10528000EDD13F68002FE6D14846BDE8F883B94626
:105290004846BDE8F88300BF044A054B1268506BCE
:1052A000002808BF1846F030704700BF2C000020CF
:1052B0006C080020704700BF704700BF704700BFF8
:1052C000704700BF70B50C46B1F90E10002990B0C0
:1052D00015461E4614DB01AA01F0F2FB00280FDB85
:1052E000029A02F47042A2F50052B2FA82F2520916
:1052F0004FF480634FF4006032602B6010B070BDDB
:10530000A289002312F08000336004D040221846A6
:105310002A6010B070BD4FF480632B6010B070BD78
:105320008A8992070B4606D501F1430201211A60D2
:105330001A6159617047F0B583B001AB6A460C46FB
:105340000646FFF7BFFF00990546304600F032F8E9
:10535000B4F90C30D8B1019A154F0099F76343F0B6
:105360008003A3812060206161611AB92B43A3816E
:1053700003B0F0BD3046B4F90E1001F0B5FBA0B19A
:10538000A38923F0030343F001031BB2EEE79A0560
:10539000EED423F0030304F1430243F0020301219E
:1053A000A381226022616161E2E7B4F90C30DDE79C
:1053B0009D4B00002DE9F04F01F10B06162E83B036
:1053C000054640F29E8036F0070600F1BD80B142EE
:1053D00000F2BA8000F0F2FBB6F5FC7FC0F09382D9
:1053E000730A00F0B880042B00F27981B30903F14D
:1053F000390003F1380EC300BF4F3B44A3F108014D
:105400005C68A14206D10CE0002A80F2AA80E46820
:10541000A14206D0636823F003039A1B0F2AF3DD31
:1054200070463C69DFF8E4E2744500F0AB816368E4
:1054300023F003039A1B0F2A00F39081002AC7F878
:1054400014E0C7F810E080F29D80B3F5007F80F093
:105450006181DB0803F1010C99107A6857F83C80F0
:10546000C4F8088001238B4007EBCC0113430839B3
:10547000E1607B6047F83C40C8F80C408210012492
:1054800094409C4200F28B801C4206D120F0030025
:1054900064001C4200F10400FAD007EBC009CC46BE
:1054A0008046DCF80C309C4507D16DE1002A80F283
:1054B0007B81DB689C4500F06781596821F003011E
:1054C0008A1B0F2AF2DDD3F80CC0D3F808800093B2
:1054D0009C19284646F0010642F001055E60C8F8B6
:1054E0000CC0CCF808807C613C61C4F80CE0C4F8C6
:1054F00008E065605A5000F067FB009B03F1080468
:105500001EE0102920D800F059FB10261823022095
:10551000794F3B44A3F108025C68944200F03D815E
:105520006368E168A66823F00303234428465A68A9
:10553000F16042F001028E605A6000F045FB0834D1
:10554000204603B0BDE8F08F00240C2320462B60DA
:1055500003B0BDE8F08F40204FF400734FF03F0ED2
:105560004AE72344E1685A68A66842F00102F16004
:1055700028468E605A6000F027FB0834204603B0AE
:10558000BDE8F08F234428465A6842F001025A6071
:1055900000F01AFB0834204603B0BDE8F08FBC6869
:1055A000636823F00308B04504D3A8EB06030F2B70
:1055B00000F38580DFF85891504BD9F800201B6824
:1055C0000132334404EB080A00F0558103F580539F
:1055D0000F3323F47F6B2BF00F0B5946284601F055
:1055E0002FF8411C024600F0FC80824500F2F78053
:1055F000434B19685944196000F04D81D9F80000F7
:1056000001301BBFA2EB0A0A5144C9F800201960FF
:1056100012F0070100F01581C1F10800C1F58051B9
:105620000244083102EB0B09C9F30B09A1EB09098C
:10563000494628460193009201F002F8431C9DE878
:105640000C0000F04381801A484440F001001968C2
:10565000BA604944BC425060196017D0B8F10F0FCE
:1056600040F2FB806068A8F10C0222F0070204EB14
:10567000020E00F001004FF0050C10430F2A60608D
:10568000CEF804C0CEF808C000F217811D4BBC68EC
:105690001A68914288BF19601B4B1A689142626870
:1056A00088BF196022F003029642A2EB060301D8DC
:1056B0000F2B04DC284600F087FA002440E7A219EB
:1056C00043F0010346F0010666602846BA60536065
:1056D00000F07AFA0834204603B0BDE8F08F142BAE
:1056E00071D9542B00F2A380330B03F16F0003F147
:1056F0006E0EC30080E600BF5C040020380A002064
:10570000080A0020300A0020340A00206404002027
:10571000640800205A0A042A5BD9142A00F2AE80D9
:1057200002F15C01C9005B3207EB010C7958ACF166
:10573000080C8C4500F088804A6822F003029342EE
:1057400073D289688C45F7D1DCF80C207B68E26065
:10575000C4F808C09460CCF80C408FE6A11946F05C
:10576000010C42F00106C4F804C028467961396191
:10577000C1F80CE0C1F808E04E60E25000F024FAF5
:105780000834DDE67B6879E608F1010818F0030FBC
:105790000CF1080C7FF485AE2DE0DC68A34208BF55
:1057A00002303FF43EAEBBE619441C464A68DB6853
:1057B00054F8086F42F001024A602846F3609E6088
:1057C00000F002FABCE603F15C0003F15B0EC300DB
:1057D00012E69A0902F13901C9003832A4E7BC4245
:1057E00054D0BC68626822F003025DE759F80839BA
:1057F000994540F0868010F0030F00F1FF30F5D19D
:105800007B6823EA04037B6064009C423FF6C7AEDA
:10581000002C3FF4C4AE1C4240467FF43EAE640010
:105820001C4200F10400FAD037E68C468CE7B3F551
:10583000AA7F15D8F30B03F1780003F1770EC300AC
:10584000DAE54FF48051EDE67B689210012101FA10
:1058500002F213437B60624679E70123536029E734
:1058600040F25452934222D8B30C03F17D0003F16D
:105870007C0EC300C0E503F1100BAEE6542A29D814
:105880001A0B02F16F01C9006E324DE7204B196807
:1058900059441960B2E6CAF30B0000287FF4AEAE9B
:1058A00008EB0B03BA6843F001035360EEE67F2078
:1058B0004FF47E734FF07E0E9EE504F108012846FA
:1058C0000093FFF73BFA009B1968DFE601204FF0D9
:1058D0000009BCE6B2F5AA7F05D8DA0B02F178011F
:1058E000C900773220E740F254518A4205D89A0C19
:1058F00002F17D01C9007C3216E74FF47E717E22F1
:1059000012E77B6880E7F00806F1080300E600BFB5
:10591000080A002000000000000000000000000055
:1059200001F0FF01102A2BDB10F0070F08D010F850
:10593000013B013A8B422DD010F0070F42B3F6D154
:10594000F0B441EA012141EA014122F007047FF06D
:1059500000070023F0E80256083C85EA010586EAC4
:10596000010685FA47F5A3FA87F586FA47F6A5FA00
:1059700087F68EB9EED1F0BC01F0FF0102F007020C
:1059800032B110F8013B013A83EA010313B1F8D1B7
:105990000020704701387047002D06BF3546033898
:1059A000073815F0010F07D1013015F4807F02BFD1
:1059B000013015F4C03F0130F0BC0138704700BF22
:1059C000844641EA000313F003036DD1403A41D30A
:1059D00051F8043B40F8043B51F8043B40F8043BC9
:1059E00051F8043B40F8043B51F8043B40F8043BB9
:1059F00051F8043B40F8043B51F8043B40F8043BA9
:105A000051F8043B40F8043B51F8043B40F8043B98
:105A100051F8043B40F8043B51F8043B40F8043B88
:105A200051F8043B40F8043B51F8043B40F8043B78
:105A300051F8043B40F8043B51F8043B40F8043B68
:105A400051F8043B40F8043B51F8043B40F8043B58
:105A5000403ABDD2303211D351F8043B40F8043BF8
:105A600051F8043B40F8043B51F8043B40F8043B38
:105A700051F8043B40F8043B103AEDD20C3205D308
:105A800051F8043B40F8043B043AF9D2043208D000
:105A9000D2071CBF11F8013B00F8013B01D30B8872
:105AA00003806046704700BF082A13D38B078DD050
:105AB00010F003038AD0C3F10403D21ADB071CBF22
:105AC00011F8013B00F8013B80D331F8023B20F88C
:105AD000023B7BE7043AD9D3013A11F8013B00F8C5
