:020000040010EA
:1000000000000220950210000503100005031000F7
:100010000503100005031000050310000000000098
:1000200000000000000000000000000005031000B8
:100030000503100000000000050310000503100078
:1000400010B5054C237833B9044B13B10448AFF312
:1000500000800123237010BD740000200000000008
:100060007C0E10000C4B43B10C480D4910B5AFF39A
:1000700000800C48036823B910BD0A48036833B9EF
:100080007047094B002BF7D0BDE810401847064BCE
:10009000002BF5D0184700BF000000007C0E1000B8
:1000A000780000207000002000000000154B002B9D
:1000B00008BF134B9D46A3F5803A00218B460F469F
:1000C0001348144A121A00F0CFF90F4B002B00D03E
:1000D00098470E4B002B00D09847002000210400C9
:1000E0000D000D48002802D00C48AFF3008000F04E
:1000F00097F92000290000F077F800F07DF900BFA3
:1001000000000800000002200000000000000000C5
:1001100074000020A4000020000000000000000087
:1001200010B54FF08043592416208821C3F80041B0
:10013000C3F80001C3F80011D3F80021002AF5D05C
:1001400010BD000010B5094B01380D2110F9012F29
:1001500002B910BD9C692402FCD40A2A1A60F5D1A8
:100160009A691202FCD41960F0E700BF0000074052
:1001700008B5FFF7D5FF134A136823F0F0031360A7
:10018000114B1A6842F001021A601A6DD207FCD5B1
:100190001A6922F007021A615A6922F040725A6104
:1001A0000A4B0B4A1A604FF08043DA6B22F47F024D
:1001B000DA63DA6B42F4CC02DA630022C3F800217E
:1001C00008BD00BF40410040000200400000002088
:1001D000001BB700024B0322DA60024A5A627047E2
:1001E000000007406600003010B5FFF7C1FFFFF7C1
:1001F000F1FF2048FFF7A6FFFFF792FF00F084F819
:100200001D48FFF79FFF1D4B1C469A695204FCD402
:100210001B481B68FFF796FFA3695B02FCD5194BCF
:1002200019491B680A22B3FBF2F3184A00202E2456
:100230000860D460506001205B00106113F1FF334F
:1002400001D20B6002E010690028F7D10B681BB1E6
:100250000F4800F06DF9FEE74FF08042C2F8003120
:100260004FF480131B6883F3088804231B689847A6
:10027000FEE700BF8C0D10009A0D10000000074033
:10028000C10D1000000000209C00002000C00040B4
:10029000E90D10001449154A154B9A42BEBF51F89A
:1002A000040B42F8040BF8E71248592101601621AB
:1002B0000160882101601048416841F4804141603B
:1002C0000E48416841F002014160416841F004017B
:1002D000416000F051F80A4845F6A5210160054843
:1002E00000210160FFF7E2FE880E100000000020F0
:1002F0007400002000010040000200400070004037
:1003000024000040FEE700BF024A136843F00103E7
:100310001360704700C0004008B500F067F858232C
:1003200003604FF0FF3008BD08B500F05FF85823B8
:1003300003604FF0FF3008BD08B500F057F85823B0
:100340000360002008BD08B500F050F85823036092
:100350004FF0FF3008BD08B500F048F8582303609F
:100360004FF0FF3008BD08B500F040F85823036097
:100370004FF0FF3008BD0000174AD2F8883043F430
:100380007003C2F88830154AD36C23F00F0343F092
:100390000803D364124BD3F8982042F48022C3F8A8
:1003A00098209A6842F002029A600E4AD2F804112C
:1003B00001F0F731C2F80411D2F8081101F0F73159
:1003C000C2F808119A6822F002029A60064A13687D
:1003D00023F0F0031360704700ED00E000C0004020
:1003E000000200400010044040410040014B1868EA
:1003F000704700BF0400002008B5074B044613B146
:100400000021AFF30080054B1868836A03B1984759
:10041000204600F0ADFC00BF00000000180E1000E8
:1004200070B50D4E0D4CA41BA4100025A54209D19A
:100430000B4E0C4C00F09EFCA41BA4100025A54202
:1004400005D170BD56F8253098470135EEE756F8CE
:10045000253098470135F2E7680000206800002049
:10046000680000206C00002002440346934200D143
:10047000704703F8011BF9E770B50E46054618B141
:1004800083690BB900F00EFAAB69AC6813B9284662
:1004900000F008FA234B9C4217D16C68A3891B0714
:1004A0001DD52369DBB1013EA36816F8011F013B8E
:1004B000A360E9B9002B2EDA22460A21284600F073
:1004C0003FF8013011D00A2070BD174B9C4201D17A
:1004D000AC68E3E7154B9C4208BFEC68DEE72146B9
:1004E000284600F07FF80028DDD04FF0FF3070BDC7
:1004F000002B04DAA269934206DB0A2904D02368A0
:100500005A1C22601970CFE72246284600F018F8DE
:100510000130C9D1E9E723680A205A1C226018700B
:1005200070BD00BF3C0E10005C0E10001C0E1000D1
:10053000024B01461868FFF79FBF00BF0400002070
:10054000F8B50E461446054618B183690BB900F09C
:10055000A9F9214B9C422AD16C68A369A360A389A5
:100560001A072ED5236963B323692068C01A63690B
:10057000F6B29842374604DB2146284600F028F9B7
:1005800028BBA368013BA36023685A1C22601E702D
:1005900063690130984204D0A389DB0719D50A2E7C
:1005A00017D12146284600F013F990B10FE00B4B0C
:1005B0009C4201D1AC68D0E7094B9C4208BFEC6873
:1005C000CBE72146284600F00DF80028CCD04FF0AC
:1005D000FF373846F8BD00BF3C0E10005C0E10001F
:1005E0001C0E1000324B70B51D6806460C4625B136
:1005F000AB6913B9284600F055F92E4B9C420FD138
:100600006C68B4F90C309AB215072CD4D00611D40A
:100610000922326043F04003A3814FF0FF3070BDE8
:10062000254B9C4201D1AC68EBE7244B9C4208BFB0
:10063000EC68E6E7510712D5616B41B104F1440360
:10064000994202D0304600F01BFA00236363A3896D
:1006500023F02403A3810023636023692360A3891B
:1006600043F00803A38123694BB9A38903F42073E2
:10067000B3F5007F03D02146304600F0C1F9A289CE
:1006800012F001030CD00023A36063695B42A361F5
:10069000236953B9B4F90C3013F08000BAD170BD9E
:1006A000920758BF6369A360F2E70020F7E700BF35
:1006B000040000203C0E10005C0E10001C0E100008
:1006C0008A892DE9F041054610070C465AD44B683B
:1006D000002B05DC0B6C002B02DC0020BDE8F08158
:1006E000E66A002EF9D0002312F480522F682B60A6
:1006F00033D0606DA3895A0705D56368C01A636B50
:100700000BB1236CC01A00230246E66A216A284610
:10071000B047431CA38906D129681D294BD82B4A11
:10072000CA40D60747D500226260D90422692260F8
:1007300004D5421C01D12B6803B96065616B2F6041
:100740000029CAD004F14403994202D0284600F09F
:1007500097F900206063BDE8F081216A01232846F3
:10076000B047411CC6D12B68002BC3D01D2B01D034
:10077000162B01D12F60B0E7A38943F04003A3817A
:10078000BDE8F0810F69002FA7D093070E6808BF5E
:100790004B690F6018BF0023A6EB07088B60B8F108
:1007A000000F9ADD43463A46216AA66A2846B047BA
:1007B000002807DCA38943F04003A3814FF0FF30FA
:1007C000BDE8F0810744A8EB0008E8E701004020FD
:1007D00038B50B6905460C46DBB118B183690BB916
:1007E00000F060F80C4B9C4209D16C68B4F90C30F5
:1007F0007BB121462846BDE83840FFF761BF074B73
:100800009C4201D1AC68F1E7054B9C4208BFEC6803
:10081000ECE7002038BD00BF3C0E10005C0E10005D
:100820001C0E1000014900F0A9B800BFD10710004C
:10083000002310B5044603604360836081814366F2
:10084000C281036143618361194608225C30FFF76E
:100850000BFE054B6362054BA362054BE362054B40
:100860002462236310BD00BFF90B10001B0C1000A5
:10087000530C1000770C100070B54A1E68255543C4
:100880000E4605F1740100F049F9044640B100211B
:1008900080E842000C30A06005F16802FFF7E4FD3B
:1008A000204670BD836910B5044633BB8364C364BE
:1008B0000365124B124A1B688262984204BF0123EF
:1008C000836100F01FF86060204600F01BF8A06014
:1008D000204600F017F80022E06004216068FFF76E
:1008E000A7FF01220921A068FFF7A2FF022212211F
:1008F000E068FFF79DFF0123A36110BD180E1000F3
:1009000025081000F8B51C4B1E68B369074613B9DB
:100910003046FFF7C7FF4836B4687368013B03D51C
:10092000336833B13668F7E7B4F90C506DB1683409
:10093000F4E704213846FFF79FFF30600028F1D12B
:100940000C233B6004462046F8BD4FF6FF73E3815D
:100950000123A38165662560A560656025616561E9
:10096000A5610822294604F15C00FFF77DFD65635F
:10097000A563A564E564E6E7180E10002DE9F843C9
:100980008046894600F14804002614B93046BDE887
:10099000F883A5686768013F01D52468F5E7AB894E
:1009A000012B07D9B5F90E30013303D02946404653
:1009B000C84706436835EEE770B50E46B1F90E102C
:1009C000002990B014461D4607DA00232B60B38936
:1009D0001A0610D44FF480630EE001AA00F072F9F9
:1009E0000028F2DB029A02F47042A2F500535A4248
:1009F0005A412A60EEE740230020236010B070BD0A
:100A00008B8973B59D0706460C4607D504F147034D
:100A1000236023610123636102B070BD01AB6A46AC
:100A2000FFF7CAFF00990546304600F077F848B94D
:100A3000B4F90C309A05EFD423F0030343F002031A
:100A4000A381E3E70D4BB362A389206043F08003E9
:100A5000A381009B6361019B20615BB1B4F90E101F
:100A6000304600F041F928B1A38923F0030343F095
:100A70000103A381A3891D43A581CDE725081000AB
:100A800038B50546002945D051F8043C0C1F002B11
:100A9000B8BFE41800F04AF91F4A1368104633B98A
:100AA000636014602846BDE8384000F040B9A342B6
:100AB0000CD921686218934204BF1A685B686360AE
:100AC00004BF521822600460ECE713465A680AB16A
:100AD000A242FAD919685818A0420BD120680144E3
:100AE000581882421960DDD1106852685A6001447A
:100AF0001960D7E702D90C232B60D3E720682118AF
:100B00008A4204BF11685268626004BF09182160FC
:100B10005C60C7E738BD00BF9000002070B5CD1CF9
:100B200025F0030508350C2D38BF0C25002D064691
:100B300001DBA94203D90C233360002070BD00F013
:100B4000F5F8234A1468214691B9224C23681BB951
:100B5000304600F041F820602946304600F03CF86D
:100B6000431C26D10C233360304600F0E0F8E4E764
:100B70000B685B1B1AD40B2B0FD90B60CD50CC1814
:100B8000304600F0D4F804F10B00231D20F00700DC
:100B9000C31A1BD05A42E25070BD8C420DBF63682D
:100BA0004B686360136018BF0C46E9E70C46496860
:100BB000CAE7C41C24F00304A04205D0211A304621
:100BC00000F00AF80130CDD02560D9E770BD00BF34
:100BD000900000209400002038B5064C0023054604
:100BE0000846236000F0B6F8431C02D1236803B125
:100BF0002B6038BDA000002010B50C46B1F90E10D6
:100C000000F096F80028ABBF636DA3891B1823F48E
:100C10008053ACBF6365A38110BD2DE9F0411F4631
:100C20008B89DB0505460C46164605D502230022B6
:100C3000B1F90E1000F068F8A389B4F90E1023F48E
:100C40008053A38132463B462846BDE8F04100F080
:100C500017B810B50C46B1F90E1000F055F8431C4A
:100C6000A38915BF606523F4805343F48053A381A7
:100C700018BFA38110BDB1F90E1000F013B8000029
:100C800038B5074C054608461146002222601A4630
:100C9000FFF769FB431C02D1236803B12B6038BD09
:100CA000A000002038B5064C002305460846236006
:100CB000FFF732FB431C02D1236803B12B6038BD20
:100CC000A000002038B5074C002305460846114611
:100CD0002360FFF729FB431C02D1236803B12B607B
:100CE00038BD00BFA000002038B5064C00230546E3
:100CF00008462360FFF720FB431C02D1236803B1A1
:100D00002B6038BDA000002038B5074C05460846CA
:100D10001146002222601A46FFF715FB431C02D140
:100D2000236803B12B6038BDA000002070477047D6
:100D300038B5074C054608461146002222601A467F
:100D4000FFF709FB431C02D1236803B12B6038BDB8
:100D5000A0000020044A05491368002B08BF0B4679
:100D6000184410601846704798000020A800002022
:100D7000FEE700BFF8B500BFF8BC08BC9E46704750
:100D8000F8B500BFF8BC08BC9E4670475B4C4452A7
:100D90004F4D20636F64655D0A000A0A50726573E7
:100DA0007320616E79206B657920746F20627261A7
:100DB0006E636820746F204150524F4D2E2E2E0AC4
:100DC000000A0A4368616E6765205645434D4150ED
:100DD00020616E64206272616E636820746F2041CE
:100DE00050524F4D2E2E2E0A00464D435F536574D0
:100DF000566563746F72506167654164647228461A
:100E00004D435F4150524F4D5F424153452920664B
:100E100061696C656421000008000020000000008A
:100E200000000000000000000000000000000000C2
:100E300000000000000000000000000000000000B2
:100E400000000000000000000000000000000000A2
:100E50000000000000000000000000000000000092
:100E60000000000000000000000000000000000082
:100E70000000000000000000000000000000000072
:080E80002CF2FF7F01000000CD
:100E8800001BB70008000020000000003C0E100006
:100E98005C0E10001C0E1000000000000000000096
:100EA800000000000000000000000000000000003A
:100EB800000000000000000000000000000000002A
:100EC800000000000000000000000000000000001A
:100ED800000000000000000000000000000000000A
:100EE8000000000000000000650010004100100034
:040EF80000000000F6
:040000050010029550
:00000001FF
